:10800000F0550020816D0100796E0100796E01004C
:108010000000000000000000000000000000000060
:108020000000000000000000000000003DFA000019
:10803000000000000000000061FB0000A9FB000040
:10804000796E0100796E0100796E0100796E010090
:1080500011E80000796E01000DE50000796E010065
:10806000796E0100654101007D41010095410100EB
:10807000AD410100C5410100DD410100796E010003
:10808000796E0100796E010065F6000079F6000056
:108090008DF60000A1F60000B5F60000796E010033
:1080A000796E0100796E0100796E0100796E010030
:1080B0000000000010B5064C2378002B07D1054BBB
:1080C000002B02D0044800E000BF0123237010BD44
:1080D000E0040020000000005C210200084B10B505
:1080E000002B03D00749084800E000BF0748036899
:1080F000002B00D110BD064B002BFBD09847F9E7B1
:1081000000000000E40400205C2102005C21020069
:108110000000000080B500AFC046BD4680BDC0462F
:1081200080B584B000AF0200FB1D1A700F23FB184E
:10813000FA1D1278D2091A700E23FB18FA1D127854
:1081400052091A700D4BBB600F23FB181B78002BD4
:108150000FD10F23FB181B789B0010229446BC44C0
:108160006344083B1A680E23FB181B78DB01D31805
:1081700000E000231800BD4604B080BD004400416B
:1081800080B582B000AF0200FB1D1A70FB1D1B788A
:108190001800034B984703001800BD4602B080BD8D
:1081A0002181000080B582B000AF78607B6800223A
:1081B0001A707B6801225A707B6800229A70C04650
:1081C000BD4602B080BDC04680B584B000AF02009D
:1081D000FB1D1A70BB1D0A1C1A70FB1D1B781800B2
:1081E0000D4B98470300FB60FB1D1B781F221340BB
:1081F00001229A401300BB60BB1D1B78002B03D0EB
:10820000FB68BA689A6102E0FB68BA685A61C046C6
:10821000BD4604B080BDC0468181000080B500AF7E
:10822000044B01221A70BFF35F8F62B6C046BD4691
:1082300080BDC0465100002080B500AF044B1B68D4
:10824000002B02D0024B1B689847C046BD4680BD3C
:10825000FC04002080B582B000AF3B1D18000C4B21
:1082600098473B1D01221A703B1D19002620094B1F
:1082700098473B1D19002520064B98473B1D1900C8
:108280002720044B9847C046BD4602B080BDC0467B
:10829000A58100005D35010080B500AF0C4B0022C8
:1082A0001A600C4B98470C4B1B680122134004D0FA
:1082B000094B1B680222134001D1084B9847084B19
:1082C0009847084B984700231800BD4680BDC0461C
:1082D000FC0400205582000010E000E01581000041
:1082E000E98200001D82000080B500AF002125203A
:1082F0000C4B9847002126200A4B984764200A4BD4
:10830000984701212520074B98470A20064B98479C
:1083100001212620034B98470A20034B9847C0466B
:10832000BD4680BDC98100002D830000F0B583B03B
:1083300000AF786015E000200E4B984703001D0049
:1083400000231E000C4B00245B197441180021000F
:108350000A4C0B4A0023A04703000C001800094BED
:1083600098477B685A1E7A60002BE4D1C046BD4610
:1083700003B0F0BD09690100571B000071D701006F
:10838000581B00000100002080B586B000AF786067
:10839000154B7A681A600C23FB181800134B98478A
:1083A0000C23FB1824221A600C23FB1800225A60AD
:1083B0000C23FB1801221A720C23FB180222DA721A
:1083C0000C23FB1819000420094B9847094B002285
:1083D00004211800084B984700210420074B9847B8
:1083E000C046BD4606B080BDFC0400201DEB000069
:1083F00051EB0000398200001DE7000081E700001A
:1084000080B582B000AF0200FB1D1A70FB1D1B7807
:10841000002B04D000210420054B984703E00021E5
:108420000420044B9847C046BD4602B080BDC046FC
:1084300081E70000C9E7000080B584B000AF02000A
:10844000FB1D1A700F23FB18FA1D1278D2091A703F
:108450000E23FB18FA1D127852091A700D4BBB60DF
:108460000F23FB181B78002B0FD10F23FB181B7851
:108470009B0010229446BC446344083B1A680E23B8
:10848000FB181B78DB01D31800E000231800BD4661
:1084900004B080BD0044004180B582B000AF02004E
:1084A000FB1D1A70FB1D1B781800034B9847030037
:1084B0001800BD4602B080BD3984000080B582B08E
:1084C00000AF78607B6800221A707B6801225A70C6
:1084D0007B6800229A70C046BD4602B080BDC0468F
:1084E00080B584B000AF0200FB1D1A70BB1D0A1CD2
:1084F0001A70FB1D1B7818000D4B98470300FB609A
:10850000FB1D1B781F22134001229A401300BB6001
:10851000BB1D1B78002B03D0FB68BA689A6102E090
:10852000FB68BA685A61C046BD4604B080BDC0460B
:108530009984000080B582B000AF0200FB1D1A7064
:10854000064BFA1D127811001F220A4001219140AA
:108550000A001A60C046BD4602B080BD00E100E0DE
:1085600080B582B000AF0200FB1D1A70074AFB1DE8
:108570001B7819001F230B40012199400B001900A3
:108580008023D150C046BD4602B080BD00E100E06E
:1085900080B584B000AF78607B681B68FB60FB68C7
:1085A000DB695A1E9341DBB21800BD4604B080BDA2
:1085B00080B582B000AF78607B6801221A707B685A
:1085C00000225A607B6800229A607B68C022920376
:1085D000DA607B6800221A747B6800225A747B6818
:1085E00001229A747B680122DA747B6800221A7572
:1085F0007B682422002199547B6818330C220021C7
:1086000018000A4B98477B68094A9A617B680022E8
:108610009A627B680022DA627B6800221A637B68B8
:1086200000225A63C046BD4602B080BDADEE0100D7
:10863000A086010080B582B000AF78607B680A2216
:108640001A707B6800225A707B6800229A70C046BC
:10865000BD4602B080BDC04680B584B000AF786032
:1086600039603B681A787B681A703B685A787B6877
:108670005A703B689A787B689A700C23FB18180034
:108680000B4B98470C23FB1801221A707B681B7850
:108690000C22BA1811001800064B98477B681B780B
:1086A00001211800044B9847C046BD4604B080BD68
:1086B000BD8400005D350100E184000080B584B018
:1086C00000AF78607B681B68FB607B681B681800E4
:1086D0000B4B9847030018000A4B9847C0467B682D
:1086E0001800094B9847031EF9D1FB681B6802224A
:1086F0001A43FB681A60C046BD4604B080BDC04640
:1087000019410100358500009185000080B584B0D5
:1087100000AF78607B681B68FB607B681B68180093
:108720000B4B9847030018000A4B9847C0467B68DC
:108730001800094B9847031EF9D1FB681B680222F9
:1087400093431A00FB681A60C046BD4604B080BD62
:1087500019410100618500009185000080B584B059
:1087600000AF78607B681B68FB60FB681B7EDBB238
:108770001A00022313405A1E9341DBB21800BD4673
:1087800004B080BD80B584B000AF78607B681B68A2
:10879000FB60FB681B7EDBB21A00012313405A1EEC
:1087A0009341DBB21800BD4604B080BD80B584B0F3
:1087B00000AF78607B681B68FB60FB681B7EDBB2E8
:1087C0001A00042313405A1E9341DBB21800BD4621
:1087D00004B080BD80B584B000AF78600A00BB1CD7
:1087E0001A807B681B68FB607B6818000A4B9847FF
:1087F00003001A0001235340DBB2002B01D00523F4
:1088000006E0BB1C1B88DB05DA0DFB689A620023BF
:108810001800BD4604B080BD8587000080B584B0D7
:1088200000AF786039607B681B68BB607B681800AC
:108830001D4B984703001A0001235340DBB2002B65
:1088400001D010232CE00F23FB1800221A70BB6804
:108850005B8B9BB21A00042313400BD00F23FB1831
:108860001E221A70BB685B8B9BB2042213439AB220
:10887000BB685A837B689B79012B08D1BB689B6AD4
:108880009BB2DB05DB0D9AB23B681A8005E0BB6842
:108890009B6ADBB29AB23B681A800F23FB181B78E5
:1088A0001800BD4604B080BDAD87000080B586B01D
:1088B00000AFF860B960BB1D1A801323FB180022BB
:1088C0001A701723FB1800221A701623FB180022B7
:1088D0001A701423FB1800221A801023FB180022A0
:1088E0001A80FB68002B07D11323FB18FB601723AA
:1088F000FB1801221A700DE0BB68002B07D113236F
:10890000FB18BB601623FB1801221A7002E0062335
:108910005B426AE03749384B01221800374B9847D1
:108920004CE0FB681A781423FB181A80C046324BBF
:108930001800334B984703001A0001235340DBB261
:10894000002BF4D1C0461423FB181A882A4B1100BF
:1089500018002C4B9847031EF5D1C046264B180033
:10896000294B984703001A0001235340DBB2002B28
:10897000F4D1C0461023FA181F4B11001800234BE6
:108980009847031EF6D11023FB181B88DAB2BB6888
:108990001A70BB1D1A88BB1D013A1A801623FB18DA
:1089A0001B78002B02D1BB680133BB601723FB1877
:1089B0001B78002B02D1FB680133FB60BB1D1B88B9
:1089C000002BAED1C0460C4B1800114B984703004A
:1089D0001A0001235340DBB2002BF4D10549064BAA
:1089E00000221800054B984700231800BD4606B02A
:1089F00080BDC046C4300020C8300020414C01007A
:108A000085870000D5870000AD8700001D88000025
:108A10005D87000080B592B000AF78604723FB18F7
:108A200000221A700823FB181800264B98470823C9
:108A3000FB1805221A700823FA18234B110018009E
:108A4000224B98470C23FB181800214B98470C2306
:108A5000FB1880225202DA600C23FB181D4A9A622E
:108A60000C23FB1801225242DA620C23FB181A4A2B
:108A70001A630C23FB18194A5A630C23FB180022B3
:108A80001A750C23FB18164A9A610C23FA1815491B
:108A9000154B1800154B9847031E02D006235B4266
:108AA0000CE0114B1800124B9847124B98470120CD
:108AB000114B98474723FB181B785BB21800BD4643
:108AC00012B080BD35860000C430002059860000F9
:108AD000B185000003000400030006000300070046
:108AE00000127A0000080042C8300020CD48010082
:108AF000BD860000E98200002D83000090B585B09E
:108B000000AF02003960FB1D1A700F23FB18002212
:108B10001A70FB1D1B78032B0FD13B68BB60BB6831
:108B20001868BB685968BB681B890F22BC181A00FB
:108B3000084B98470300237004E00F23FB18FF2223
:108B40001A70C0460F23FB181B785BB21800BD4695
:108B500005B090BDAD88000080B582B000AFFB1DB0
:108B600000221A703B1D1800094B98473B1D00223C
:108B70001A703B1D00225A70064B1800064B98478E
:108B8000FB1D1B785BB21800BD4602B080BDC0461D
:108B9000BD840000C83000200D87000080B584B07F
:108BA00000AFF860B9607A607B68002B10D0BB68BA
:108BB0001A78FB681A70FB680133FB60BB680133ED
:108BC000BB607B68013B7B607B68002BEFD100E0E2
:108BD000C046BD4604B080BD80B584B000AFF8602B
:108BE0007A600B23FB180A1C1A707B68002B0ED0CE
:108BF000FB680B22BA1812781A70FB680133FB600D
:108C00007B68013B7B607B68002BF1D100E0C046B4
:108C1000BD4604B080BDC04680B500AF044B1B68A4
:108C2000044A11001800044B9847C046BD4680BD59
:108C30007C3700201C050020410C010090B583B05A
:108C400000AFFB1D00221A700120134B9847FC1D3A
:108C50003B00124A19001000114B98470300237083
:108C6000FB1D1B785BB2002B0DD13B680222134326
:108C70003B603B68FC1D094A19001000094B9847EE
:108C80000300237000E0C046FB1D1B785BB2180098
:108C9000BD4603B090BDC0460184000070100000C6
:108CA00051A2000075A2000080B582B000AF3A600A
:108CB000FB1D021C1A703B1D0A1C1A80C046BD46D3
:108CC00002B080BD90B583B000AFFB1D00221A70CA
:108CD0001C4B1B78DBB2002B21D11B4B1B78DBB26A
:108CE000032B04D0184B1B78DBB2042B17D1FC1DCF
:108CF000164B984703002370FB1D1B785BB2002BBB
:108D000015D1FC1D124A134B11001800124B984745
:108D100003002370FB1D1B785BB2002B09D1094BAC
:108D20001B78DBB20133DAB2064B1A7002E0C046A0
:108D300000E0C046FB1D1B785BB21800BD4603B0C7
:108D400090BDC0460105002000050020E99B000001
:108D5000785600007410000075A2000090B583B032
:108D600000AFFB1D00221A70294B1B78DBB2002BD1
:108D700006D0274B1B78DBB2013BDAB2244B1A70CA
:108D8000234B1B78DBB2002B3AD1224B1B78DBB292
:108D9000032B04D01F4B1B78DBB2042B30D10023F4
:108DA0003B60FC1D1C4A1D4B110018001C4B9847D2
:108DB00003002370FB1D1B785BB2002B1DD1FC1D33
:108DC0003B0019000120174B984703002370FB1D3F
:108DD0001B785BB2002B12D13B68022213400FD0EC
:108DE0003B68022293433B603B68FC1D1900012055
:108DF0000B4B98470300237002E0C04600E0C046DA
:108E0000FB1D1B785BB21800BD4603B090BDC04689
:108E1000010500200005002021430000741000001F
:108E200075A2000051A2000080B582B000AF78604A
:108E30000E4B00221A600E4B00221A600D4B0022CE
:108E40001A700D4B00221A700C4B00221A700C4B3A
:108E500018000C4B98470C4B190003200B4B9847FC
:108E600000231800BD4602B080BDC04604050020A6
:108E70000805002001050020000500200305002052
:108E8000198C000089830000A98C0000F99500006E
:108E900090B589B000AF040008003A601900FB1DCE
:108EA000221C1A70BB1D021C1A703B1D0A1C1A8062
:108EB0001F23FB18FF221A70BB1D1B787F22134053
:108EC000DAB21823FB185A701823FB18FA1D12780F
:108ED0001A701823FB1808225A803B6B002B11D004
:108EE0001823FB185B889AB23823F9183423FB182F
:108EF00009881B88CB189BB2D3189AB21823FB1889
:108F00005A800AE01823FB185B889AB23B1D1B8825
:108F1000D3189AB21823FB185A801F23FC18944BBD
:108F20009847030023701F23FB181B785BB2002BAC
:108F300000D00AE100233B610E23FB1800221A80B7
:108F400000237B61FB1D1A787B6913437B61BB1D8A
:108F50001B781A027B6913437B611823FB185B881B
:108F60009BB21A047B6913437B617B691F22BC1887
:108F7000804A19001000804B9847030023701F237C
:108F8000FB181B785BB2002B00D0E0E000237B6174
:108F90007B69022213437B617B691F22BC18774ADD
:108FA00019001000744B9847030023701F23FB180F
:108FB0001B785BB2002B00D0CBE000233B610E237B
:108FC000FB1800221A8031E01F23FC181423FB1821
:108FD0006A4A190010006A4B9847030023701F2348
:108FE000FB181B785BB2002B28D17B69022213404F
:108FF00013D11F23FC181023FB18624A190010001C
:109000005F4B9847030023701F23FB181B785BB24C
:10901000002B15D000233B6112E00E23FB181B88A8
:109020009BB201339AB20E23FB181A800E23FB1851
:109030001B889BB2544A9342C6D902E0C04600E066
:10904000C0463B69002B00D173E03B69BB6018232D
:10905000FB185B889AB21823FB185A80BB681F2242
:10906000BC181822B91808221800484B984703006A
:1090700023701F23FB181B785BB2002B00D06AE023
:10908000BB680833BB603B68002B15D0B8683B1D3C
:109090001A881F23FC183B6819003C4B98470300B3
:1090A00023701F23FB181B785BB2002B55D13B1D8F
:1090B0001A88BB68D318BB603B6B002B21D03823C8
:1090C000FB181A883B1D1B88D31A1A00BB68D318DB
:1090D000BB60B8683423FB181A881F23FC183B6B4D
:1090E00019002A4B9847030023701F23FB181B7895
:1090F0005BB2002B33D13423FB181A88BB68D3181A
:10910000BB603B699B007B617B69022213437B61EF
:109110007B691F22BC181E4A19001000164B984785
:10912000030023701F23FB181B785BB2002B05D0B4
:1091300016E01F23FB18FD221A7011E01F23FC18F4
:10914000144B9847030023700AE0C04608E0C0466D
:1091500006E0C04604E0C04602E0C04600E0C0466B
:109160001F23FB181B785BB21800BD4609B090BDE9
:10917000C58C00008C10000075A200007810000063
:1091800051A2000000041500E7030000BDA3000089
:109190006C1000005D8D000090B585B000AF0F230E
:1091A000FB18FA221A700F23FC18994B98470300FA
:1091B00023700F23FB181B785BB2002B00D019E142
:1091C0000F23FC180823FB18924A19001000924B39
:1091D0009847030023700F23FB181B785BB2002B0A
:1091E00000D009E1BB680122134000D1FBE0002060
:1091F0008A4B9847BB6801229343BB60BB680F2230
:10920000BC18844A19001000854B9847030023704E
:109210000F23FB181B785BB2002B00D0EEE0814BD4
:1092200000221A70BB689B089AB20C23FB18120527
:10923000120D1A800C23FB181B88002B00D1CDE0E7
:1092400000233B600F23FC183B00774A19001000F5
:10925000714B9847030023700F23FB181B785BB2F8
:10926000002B03D001206D4B9847C8E03B680F22CC
:10927000BC18391D042218006C4B9847030023705A
:109280003B1D5B889AB23B1D5A800F23FB181B784D
:109290005BB2002B03D00120604B9847AFE03B1D31
:1092A0005B889BB20C22BA1812889A4210D00C2309
:1092B000FB181B883A1D528892B29B1A042B07DDBB
:1092C0000120564B98470F23FB18FA221A7096E09C
:1092D0003B1D1B78DBB2012B12D1554B1B68002BB9
:1092E00000D16FE0524B1B683A1D5278D0B23A1D44
:1092F000528892B2083A91B23A680832984761E0CF
:109300003B1D1B78DBB2022B11D14A4B1B68002B93
:1093100058D0484B1B683A1D5278D0B23A1D52883B
:1093200092B2083A91B23A68083298474AE03B1D37
:109330001B78DBB2042B11D13F4B1B68002B41D0B3
:109340003D4B1B683A1D5278D0B23A1D528892B2FA
:10935000083A91B23A680832984733E03B1D1B78CF
:10936000DBB2062B11D1354B1B68002B2AD0334BB7
:109370001B683A1D5278D0B23A1D528892B2083A10
:1093800091B23A68083298471CE03B1D1B78DBB26B
:10939000072B11D12A4B1B68002B13D0284B1B68BD
:1093A0003A1D5278D0B23A1D528892B2083A91B220
:1093B0003A680832984705E00F23FB18FA221A7022
:1093C000C0461CE0174B1B78DBB2002B0BD10F23E0
:1093D000FC181C4B98470300237004E00F23FB1874
:1093E000FE221A700BE00F23FC18174B984703005E
:1093F000237004E0C04602E0C04600E0C0460F23F0
:10940000FB181B785BB21800BD4605B090BDC04686
:10941000C58C00007010000051A200000184000003
:1094200075A200000205002084100000C5A2000003
:1094300004050020080500200C0500201805002068
:10944000100500203D8C00005D8D000090B583B0BC
:1094500000AFFB1D00221A70FC1D094B984703004A
:109460002370FB1D1B785BB2002B00D0F4E7C046D5
:10947000FB1D1B785BB21800BD4603B090BDC04613
:109480009991000090B589B000AFF860B9601900FB
:10949000BB1D1A807B1D0A1C1A701F23FB1800229B
:1094A0001A70FB68002B06D0BB68002B03D0BB1DD5
:1094B0001B88002B12D17B1D1B78002B09D0484B39
:1094C00001221A701F23FC18464B98470300237093
:1094D0007DE01F23FB18F4221A7078E01F23FC188C
:1094E0001423FB18404A19001000404B9847030012
:1094F00023701F23FB181B785BB2002B62D17B69A2
:109500009B089AB21C23FB181205120D1A801F2308
:10951000FC181823FB18364A19001000334B9847E3
:10952000030023701F23FB181B785BB2002B4BD169
:10953000BA1D1C23FB1812881B889A4204D91F23CA
:10954000FB18F4221A7042E0BB69FA689A420AD307
:10955000BB1D1A88FB68D2181C23FB181988BB692D
:10956000CB189A4204D91F23FB18F4221A702EE05C
:10957000BB1D1A881F23FC18B968FB6818001D4B17
:109580009847030023701F23FB181B785BB2002B46
:109590001CD11C23FB181A88BB69D218BB1D198863
:1095A000FB68CB189A4203D07B1D1B78002B0ED092
:1095B0000B4B01221A701F23FC180A4B984703001B
:1095C000237004E0C04602E0C04600E0C0461F230E
:1095D000FB181B785BB21800BD4609B090BDC046B1
:1095E000020500203D8C00007010000051A2000018
:1095F00084100000C5A2000080B584B000AF020056
:109600003960FB1D1A700F23FB1800221A70FB1D16
:109610001B78072B1CD89A00144BD3181B689F4645
:10962000134B3A681A6018E0124B3A681A6014E05B
:10963000114B3A681A6010E0104B3A681A600CE05F
:109640000F4B3A681A6008E00E4B3A681A6004E063
:109650000F23FB18F4221A70C0460F23FB181B7847
:109660005BB21800BD4604B080BDC0466C0C020061
:1096700008050020040500200C050020140500202A
:10968000180500201005002090B5ABB000AF3A607F
:10969000FB1D021C1A703B1D0A1C1A80FB1D1B7847
:1096A0002C2B16D19C23F918386800230422B94CBE
:1096B000A047031E00D068E1B74B1B68002B00D108
:1096C00063E1B54B1B689C22BA1811002C20984707
:1096D0005BE1FB1D1B781B2B16D19423F91838680E
:1096E00000230822AB4CA047031E00D04DE1AA4B3B
:1096F0001B68002B00D148E1A74B1B689422BA18C5
:1097000011001B20984740E1FB1D1B78062B16D14A
:109710000C23F9183868012330229E4CA047031E01
:1097200000D032E19C4B1B68002B00D12DE19A4BFD
:109730001B680C22BA1811000620984725E1FB1D72
:109740001B780E2B00D120E1FB1D1B78322B16D18C
:109750008423F9183868002310228E4CA047031E7A
:1097600000D012E18C4B1B68002B00D10DE18A4B1D
:109770001B688422BA1811003220984705E1FB1DAE
:109780001B782F2B1DD10C23FB18642200211800FD
:10979000824B98470C23F9183868002364227D4CCB
:1097A000A047031E00D0F0E07B4B1B68002B00D1CC
:1097B000EBE0794B1B680C22BA1811002F20984758
:1097C000E3E0FB1D1B78342B14D18023F918386893
:1097D000002304226F4CA047031E00D0D5E06E4B3F
:1097E0001B68002B00D1D0E06B4B1B68002134209C
:1097F0009847CAE0FB1D1B78112B1ED1684B002235
:109800001A707C23F918386800230422614CA047A1
:10981000031E00D0B9E07C23FB181A78614B1A7044
:109820005D4B1B68002B00D1AFE05B4B1B687C22BB
:10983000BA18110011209847A7E0FB1D1B78132BC5
:1098400016D10C23F918386800232C22514CA0475C
:10985000031E00D099E0504B1B68002B00D194E010
:109860004D4B1B680C22BA181100132098478CE04E
:10987000FB1D1B78042B16D1A023F9183868002390
:109880000422444CA047031E00D07EE0424B1B68DC
:10989000002B00D179E0404B1B68A022BA181100C0
:1098A0000420984771E0FB1D1B78652B15D1A02380
:1098B000F918386800230422364CA047031E00D054
:1098C00063E0354B1B68002B5FD0334B1B68A02235
:1098D000BA1811006520984757E0FB1D1B78092B2B
:1098E00014D10C23F918386801236422294CA047AD
:1098F000031E4AD1284B1B68002B46D0264B1B6801
:109900000C22BA181100092098473EE0FB1D1B7875
:109910002A2B14D17823F9183868012304221D4C0E
:10992000A047031E31D11C4B1B68002B2DD01A4BB6
:109930001B687822BA1811002A20984725E0FB1DE1
:109940001B78202B21D17023F918386800230822B6
:10995000104CA047031E18D13B6808331800702331
:10996000FB1819687023FB189A880123094CA0473B
:10997000031E0AD1084B1B68002B06D0064B1B6840
:109980007022BA18110020209847C046BD462BB05F
:1099900090BDC0468594000024050020D98B0000AE
:1099A000210500202005002090B58DB000AF786023
:1099B0002F23FB1800221A700B23FB1801221A70A8
:1099C0007B68002B04D12F23FB18F4221A7037E098
:1099D0007B681A681E4B1A601E4B00221A702F23D8
:1099E000FC180B23FB1818001B4B9847030023702F
:1099F0002F23FB181B785BB2002B20D12F23FC18E0
:109A00000020164B9847030023702F23FB181B7868
:109A10005BB2002B0ED1124B19000120114B98475D
:109A20002F23FC180C23FB1818000F4B984703003A
:109A3000237005E0C04600200C4B984700E0C0466C
:109A40002F23FB181B785BB21800BD460DB090BDEC
:109A50002405002021050020F1A50000298E00002A
:109A600089960000F995000089A4000005A7000070
:109A700080B582B000AF7860034B984703001800B0
:109A8000BD4602B080BDC0464D94000080B500AF19
:109A900000231800BD4680BDB0B588B004AF0200F9
:109AA000FB1D1A700F23FB1800221A70FB1D1B7878
:109AB000002B07D0FB1D1B78052B03D0FB1D1B784B
:109AC0000A2B16D10823FB18FA1D12781A700F23DF
:109AD000FC180823FA1800230293002301930023A3
:109AE000009304235B210120084DA8470300237045
:109AF00003E00F23FB18F4221A700F23FB181B78C6
:109B00005BB21800BD4604B0B0BDC046918E0000E7
:109B100090B593B004AF78600A00FB1C1A70FB1C70
:109B20001B782F2B02D9FB1C30221A70FB1C1A78D1
:109B3000FB1C01321A70FB1C1A7879680823FB1889
:109B400018000A4B98470823FA18002302930023B1
:109B5000019300230093302307210120044CA047E8
:109B600003001800BD460FB090BDC0469D8B00009D
:109B7000918E000090B587B000AF78601723FB1876
:109B800000221A707B683B613A69A5235B011100D2
:109B90001800134B98473B69002B18D00023FB603B
:109BA0001723FC180C23FA18A5235B0111001800D9
:109BB0000C4B9847030023701723FB181B785BB2EC
:109BC000002BE1D1FA683B699A4202D0DCE7C0463B
:109BD00000E0C04600231800BD4607B090BDC04657
:109BE00075A2000051A2000090B585B000AF0F2310
:109BF000FB1800221A700023BB600120504B9847CD
:109C00000F23FC183B1D190001204E4B9847030001
:109C100023700F23FB181B785BB2002B00D084E06D
:109C20007B680222134319000120474B984701200B
:109C3000434B9847454B1B680F22BC183A00110054
:109C40001800404B9847030023700F23FB181B7824
:109C50005BB2002B08D10F23FB181B785BB2002BE3
:109C600044D13B68002B41D1384B0E221A600120B1
:109C7000334B9847354B1B680F22BC183A00110034
:109C80001800304B9847030023700F23FB181B78F4
:109C90005BB2002B08D10F23FB181B785BB2002BA3
:109CA00024D13B68002B21D1284B13221A600120BC
:109CB000234B9847254B1B680F22BC183A00110014
:109CC0001800204B9847030023700F23FB181B78C4
:109CD0005BB2002B2BD109E00220194B98471B4B9C
:109CE0001B683A0011001800164B98473B68042285
:109CF000134009D1BB680133BB60BA68144B032120
:109D0000100098470B1EE7D03B680422134006D191
:109D10007B6802221343190001200B4B98473B68D4
:109D20000422134000D17BE702E0C04600E0C046B9
:109D30000F23FB181B785BB21800BD4605B090BD21
:109D40002D83000051A2000075A200002000002019
:109D500091D5010090B583B000AFFC1D3B00294AAE
:109D600019001000284B984703002370FB1D1B7837
:109D70005BB2002B02D006235B423FE03B688022AF
:109D8000520013433B603B68FC1D1E4A1900100043
:109D90001E4B984703002370FB1D1B785BB2002B02
:109DA00002D006235B4229E0FC1D3A00D0235B0170
:109DB00011001800144B984703002370FB1D1B78FB
:109DC0005BB2002B02D006235B4217E03B68802287
:109DD000520213433B603A68FC1DD0235B01110023
:109DE00018000A4B984703002370FB1D1B785BB2D9
:109DF000002B02D006235B4200E000231800BD4682
:109E000003B090BD0814000051A2000075A200002C
:109E100080B582B000AF324B1B68002B59D1304A5D
:109E200080235B01110018002E4B9847031E04D0BD
:109E30002B4B00221A6000234DE03B1D2A4A1900DB
:109E40001000284B9847031E04D0254B00221A60AF
:109E5000002340E0224B1B68244A934206D17B68D2
:109E6000012B29D01E4B224A1A6025E01C4B1B688F
:109E7000204A93420DD17B68032B1DD07B68042BB5
:109E800003D1174B1C4A1A6016E0154B1B4A1A6087
:109E900012E0134B1B681A4A93420DD1104AEC236F
:109EA0009B03110018000F4B9847031E04D00C4B66
:109EB00000221A6000230EE0094B1B68114A1A4069
:109EC000074B1A60064B1B68A022D2021A43044BB0
:109ED0001A60034B1B681800BD4602B080BDC04627
:109EE0002805002051A20000F4130000A002100079
:109EF000A1021000B0021000B1021000B202100066
:109F0000F0001000FFFFF0FF80B586B000AF020048
:109F1000FB1D1A700B23FB1800221A7000237B61B3
:109F200000233B610023FB6000237B613B4B180057
:109F30003B4B984703007B617B69002B03DB0120CF
:109F4000384B9847F2E7C046374B1800344B9847D8
:109F500003007B617B69012213407B617B69002BDD
:109F600012D100237B610BE001202E4B98472F4B31
:109F700018002B4B984703007B613B6901333B6121
:109F80007B692B4A9342EFD1FB1D1B78022B0DD12D
:109F9000284A294B11001800284B984780235B035F
:109FA000274A19001000254B984715E0FB1D1B7828
:109FB000032B0BD11F4A204B110018001F4B984751
:109FC0001F4B002118001D4B984705E0FB1D1B7817
:109FD000042B01D18023FB601A4B984703001B051B
:109FE0001A0DE8239B009A4206D1FB680222134314
:109FF0001800154B984703E0FB681800124B984770
:10A00000124A0A4B110018000C4B98470B23FB18FF
:10A010001B785BB21800BD4606B080BD141000006E
:10A0200031A200002D830000BC0702000C000C00D0
:10A030009ED0AD107DD51C3CAC07020075A200007F
:10A040008C100000119E0000759B0000612F52EFE4
:10A0500080B588B000AF0200FB1D1A701F23FB18EB
:10A0600000221A700023BB6100237B6101235B4245
:10A070003B611D4BFB601D4BBB60FB1D1B78022B26
:10A0800003D0FB1D1B78032B19D1194BFB60194B17
:10A09000BB6014E00220184B9847FB681800174B70
:10A0A00098470300BB617B6901337B617A693B6937
:10A0B0009A4204D31F23FB18FB221A700CE0BA68E3
:10A0C000BB699A42E6D1BB68084A934204D1064B69
:10A0D000002118000A4B98471F23FB181B785BB21E
:10A0E0001800BD4608B080BD8C1000003626530213
:10A0F000AC070200C3C15DD72D83000031A2000070
:10A1000075A2000090B583B000AF00233B60BB1D7B
:10A110000A221A70FC1D3A00A0235B0111001800EE
:10A12000294B9847030023703B68284A13403B6043
:10A130003A68FC1DA0235B0111001800244B9847CE
:10A1400003002370FB1D1B785BB2002B03D0FB1DAB
:10A150001B785BB233E0FC1D3A00A0235B011100C9
:10A160001800194B984703002370FB1D1B785BB246
:10A17000002B03D0FB1D1B785BB220E03A688023E4
:10A18000DB00134017D03B68104A13403B603A682D
:10A19000FC1DA0235B01110018000D4B9847030024
:10A1A0002370BB1D1A78BB1D013A1A70BB1D1B78AA
:10A1B000002BD0D100E0C046FB1D1B785BB218001D
:10A1C000BD4603B090BDC04651A20000FFFBFFFF9B
:10A1D00075A2000090B585B000AF78600F23FB1822
:10A1E00000221A700F23FC187B681800054B984753
:10A1F000030023700F23FB181B785BB21800BD46C9
:10A2000005B090BD158A000090B583B000AFFB1D6E
:10A2100000221A70FC1D054B984703002370FB1D9C
:10A220001B785BB21800BD4603B090BD598B00008F
:10A2300080B582B000AF78607B681800034B984708
:10A2400003001800BD4602B080BDC046C1B3000087
:10A2500080B582B000AF786039603A687B681100E1
:10A260001800034B984703001800BD4602B080BD9C
:10A27000E5B3000080B582B000AF786039603A681D
:10A280007B6811001800034B984703001800BD4677
:10A2900002B080BD35B4000080B584B000AFF86076
:10A2A000B960BB1D1A80BB1D1A88B968FB6818000D
:10A2B000034B984703001800BD4604B080BDC0465C
:10A2C00085B4000080B586B000AFF860B9607A60F0
:10A2D0002D4B1A881023FB18083A1A8000237B6143
:10A2E0001323FB1800221A701023FB181A887B68AE
:10A2F0009A4213D3BA687B69D1187B689AB2FB681B
:10A300001800224B98470300DAB21323FB181B787E
:10A31000D318DAB21323FB181A702DE0BA687B69E0
:10A32000D1181023FB181A88FB681800174B9847A0
:10A330000300DAB21323FB181B78D318DAB2132305
:10A34000FB181A701323FB181B785BB2002B12D179
:10A350001023FB181B887A68D31A7B601023FB1824
:10A360001B887A69D3187B611023FB181B88FA6855
:10A37000D318FB60B8E7C0461323FB181B785BB209
:10A380001800BD4606B080BD1C00002099A2000048
:10A3900080B584B000AFF860B960BB1D1A80BB1DEA
:10A3A0001A88B968FB681800034B98470300180027
:10A3B000BD4604B080BDC046DDB4000080B586B0A7
:10A3C00000AFF860B9607A602D4B1A881023FB1833
:10A3D000083A1A8000237B611323FB1800221A70AD
:10A3E0001023FB181A887B689A4213D3BA687B69DA
:10A3F000D1187B689AB2FB681800224B984703007B
:10A40000DAB21323FB181B78D318DAB21323FB1824
:10A410001A702DE0BA687B69D1181023FB181A88CE
:10A42000FB681800174B98470300DAB21323FB1898
:10A430001B78D318DAB21323FB181A701323FB18F6
:10A440001B785BB2002B12D11023FB181B887A6893
:10A45000D31A7B601023FB181B887A69D3187B61A1
:10A460001023FB181B88FA68D318FB60B8E7C046B6
:10A470001323FB181B785BB21800BD4606B080BDE5
:10A480001C00002091A3000090B587B000AF786059
:10A490000023FB601723FB1800221A701723FC18F7
:10A4A0000C23FB184C4A190010004C4B9847030032
:10A4B0002370FB684A4A93420AD11723FC180C23E5
:10A4C000FB18484A19001000444B984703002370BA
:10A4D000FB681B0C1B12DAB27B68DA71FB681B0C81
:10A4E0001B11DBB20F221340DAB27B681A72FB68D1
:10A4F0001B0CDBB20F221340DAB27B685A72FB6886
:10A500001B12DAB27B681A71FB681B11DBB20F22D7
:10A510001340DAB27B685A71FB68DBB20F2213403A
:10A52000DAB27B689A71304B984702007B681A60F8
:10A530007B681B791B021AB27B685B791B011BB21B
:10A54000FF210B401BB213431AB27B689B791BB2ED
:10A550000F210B401BB213431AB21423FB181A80AD
:10A560001223FB18214A1A807B68DB791B021AB27E
:10A570007B681B7A1B011BB2FF210B401BB21343EC
:10A580001AB27B685B7A1BB20F210B401BB21343DC
:10A590001AB21023FB181A801223FA181023FB1882
:10A5A00012881B889A4203D21723FB18F3221A70D1
:10A5B0001223FA181423FB1812881B889A4203D915
:10A5C0001723FB18F3221A701723FB181B785BB2B2
:10A5D0001800BD4607B090BDAC07020051A20000B4
:10A5E000C3C15DD748100000119E00003013000069
:10A5F00090B585B000AF78600F23FB1800221A7069
:10A600007B68002B13D00E23FB187A6812781A701F
:10A610000E23FB181B78002B04D00E23FB181B788D
:10A62000042B08D90E23FB1801221A7003E00E2315
:10A63000FB1801221A700F23FC1800202B4B98479F
:10A64000030023700F23FB181B785BB2002B44D14F
:10A65000274B98470F23FC180E23FB181B78180074
:10A66000244B9847030023700F23FB181B785BB221
:10A67000002B2AD10F23FC180E23FB181B7818007F
:10A680001D4B9847030023700F23FB181B785BB208
:10A69000002B1CD10E23FB181B78022B1ED00E237F
:10A6A000FB181B78032B19D00F23FC18134B98476A
:10A6B000030023700F23FB181B785BB2002B08D11B
:10A6C0000F23FB181B785BB20CE0C04602E0C046CB
:10A6D00000E0C0460A4B984700E0C0460F23FB1835
:10A6E0001B785BB21800BD4605B090BDD5A1000037
:10A6F000F9B20000099F000051A00000559D000024
:10A7000009A2000090B585B000AF78600F23FC1857
:10A71000194B9847030023700F23FB181B785BB27B
:10A72000002B1BD10F23FC180020144B984703006B
:10A7300023700F23FB181B785BB2002B10D10F2363
:10A74000FC180F4B9847030023700F23FB181B784E
:10A750005BB2002B06D10B4B984704E0C04602E0E9
:10A76000C04600E0C0460F23FB181B785BB2180000
:10A77000BD4605B090BDC04605A1000061BB00000C
:10A7800009A20000A9B3000080B586B000AF7860D0
:10A790000A00BB1C1A800C23FB1800221A600C2331
:10A7A000FB187A685A600C23FB18BA1C12881A81AD
:10A7B0000C23FB1819000320034B984703001800D3
:10A7C000BD4606B080BDC046FD8A000080B586B09B
:10A7D00000AF78600A00BB1C1A800C23FB187A6853
:10A7E0001A600C23FB1800225A600C23FB18BA1CB9
:10A7F00012881A810C23FB1819000320034B984779
:10A8000003001800BD4606B080BDC046FD8A0000AA
:10A8100080B582B000AF0200FB1D1A70BB1D0A1C80
:10A820001A70FB1D1B785A00BB1D1B785340034A4E
:10A83000D35C1800BD4602B080BDC0468C0C02003F
:10A8400090B585B000AFB9607A600F23FB18021C89
:10A850001A700EE0BB685A1CBA601A780F23FC18F5
:10A860000F23FB181B7811001800084B98470300B2
:10A8700023707B685A1E7A60002BEBD10F23FB18E4
:10A880001B781800BD4605B090BDC04611A8000059
:10A8900090B589B000AFB9607A603B600F23FB18B8
:10A8A000021C1A701F23FB1805221A701E23FB18A6
:10A8B00001221A701423FB180F22BA1812781A708A
:10A8C0000F23FB181B78C13B0E2B00D91BE19A000C
:10A8D000AF4BD3181B689F46BB681B0CDAB214231E
:10A8E000FB185A70BB681B0ADAB21423FB189A7063
:10A8F000BB68DAB21423FB18DA701F23FB18052299
:10A900001A7005E1BB681B0ADAB21423FB185A70EF
:10A910003023FB181B78002B09D01423FB185B781D
:10A92000802252421343DAB21423FB185A70BB68D8
:10A93000DAB21423FB189A701423FB180022DA7081
:10A940001F23FB1805221A70E2E01423FB180022D3
:10A950005A701423FB1800229A701423FB1800224B
:10A96000DA701F23FB1805221A70D1E01423FB189C
:10A9700000225A701423FB1800229A701423FB182B
:10A980000022DA701F23FB1805221A70C0E014237E
:10A99000FB18FF225A701423FB18FF229A7014230D
:10A9A000FB18FF22DA701F23FB1805221A70AFE094
:10A9B000BB681B0CDAB21423FB185A70BB681B0A65
:10A9C000DAB21423FB189A70BB68DAB21423FB18AE
:10A9D000DA703B681B0ADAB21423FB181A713B6861
:10A9E000DAB21423FB185A711F23FB1807221A70BE
:10A9F0008EE0BB681B0CDAB21423FB185A70BB68DC
:10AA00001B0ADAB21423FB189A70BB68DAB214235B
:10AA1000FB18DA703B681B0CDAB21423FB181A71AE
:10AA20003B681B0ADAB21423FB185A713B68DAB28E
:10AA30001423FB189A711F23FB1808221A7067E071
:10AA4000BB681B0ADAB21423FB185A703023FB18B8
:10AA50001B78002B09D01423FB185B78802252420C
:10AA60001343DAB21423FB185A70BB68DAB214230A
:10AA7000FB189A707B681B0EDAB21423FB18DA708D
:10AA80007B681B0CDAB21423FB181A717B681B0A53
:10AA9000DAB21423FB185A717B68DAB21423FB185C
:10AAA0009A711F23FB1808221A7031E0BB681B0C37
:10AAB000DAB21423FB185A70BB681B0ADAB21423EB
:10AAC000FB189A70BB68DAB21423FB18DA707B6843
:10AAD0001B0EDAB21423FB181A717B681B0CDAB256
:10AAE0001423FB185A717B681B0ADAB21423FB1873
:10AAF0009A717B68DAB21423FB18DA711F23FB18F2
:10AB000009221A7004E01E23FB1800221A70C046A6
:10AB10001E23FB181B785BB2002B30D01D4B1B781B
:10AB2000002B15D11F23FB181B785C1E1F23FB185D
:10AB30001B78013B1A001423FB1819007F20164BC9
:10AB400098470300DB18DAB21423FB181A5506E005
:10AB50001F23FB181F22BA181278013A1A701F23FC
:10AB6000FB181B789AB21423FB18110018000B4B2A
:10AB70009847031E03D01E23FB1800221A701E23C1
:10AB8000FB181B785BB21800BD4609B090BDC046EB
:10AB90008C0D02002C05002041A80000CDA700006C
:10ABA00080B584B000AF0200FB1D1A700F23FB18A4
:10ABB00001221A70FB1D1B78CF2B07D0FB1D1B78C1
:10ABC000C52B03D0FB1D1B78C62B0CD10D23FB1806
:10ABD000012118002B4B9847031E04D00F23FB18AC
:10ABE00000221A7045E00E23FB180A221A700D236A
:10ABF000FB1801211800234B9847031E04D00F2394
:10AC0000FB1800221A7034E00D23FB181B78FA1D84
:10AC100012789A420BD00E23FB181B785BB2DAB283
:10AC2000013AD1B20E22BA181170002BDFDC0E23CC
:10AC3000FB180A221A700D23FB1801211800114B72
:10AC40009847031E04D00F23FB1800221A7010E04F
:10AC50000D23FB181B78002B0BD00E23FB181B7841
:10AC60005BB2DAB2013AD1B20E22BA181170002BDF
:10AC7000E1DC0F23FB181B785BB21800BD4604B063
:10AC800080BDC04689A7000080B586B000AF78605F
:10AC900008001100BB1C021C1A807B1C0A1C1A70C5
:10ACA0001123FB1801221A701423FB1800221A80AA
:10ACB000BB1C1A8880239B019A4205D81223FB18DB
:10ACC000BA1C12881A8004E01223FB188022920119
:10ACD0001A801623FB180A221A800B23FB18012165
:10ACE00018003E4B9847031E04D01123FB18002286
:10ACF0001A7017E00B23FB181B781B09DBB21A0034
:10AD00000F2313400F2B0CD01623FB1800229B5E41
:10AD10009AB2013A91B21622BA181180002BDCD1F6
:10AD200000E0C0461123FB181B785BB2002B4CD00F
:10AD30001623FB1800229B5E002B04DC1123FB185A
:10AD400000221A7042E01423FB1800229B5E7A68EE
:10AD5000D2181223FB181B88190010001F4B9847AC
:10AD6000031E04D01123FB1800221A702EE07B1C56
:10AD70001B78002B10D11A4B1B78002B0CD10C2305
:10AD8000FB1802211800154B9847031E04D011230D
:10AD9000FB1800221A7019E01423FB181A881223DA
:10ADA000FB181B88D3189AB21423FB181A8012239D
:10ADB000FB181A88BB1CB91C09888A1A1A80BB1C8C
:10ADC0001B88002B00D073E700E0C0461123FB185E
:10ADD0001B785BB21800BD4606B080BD89A7000095
:10ADE0002C05002080B586B000AF78600A00BB1C3F
:10ADF0001A801323FB1801221A700C23FB1800225F
:10AE00001A801623FB1800221A80BB1C1A88802384
:10AE10009B019A4205D81423FB18BA1C12881A8089
:10AE200004E01423FB18802292011A801123FB18DE
:10AE3000F0221A701623FB1800229B5E002B0FD104
:10AE4000BB1C1A8880239B019A4204D81223FB184A
:10AE500003221A7013E01223FB1801221A700EE06D
:10AE6000BB1C1A8880239B019A4204D81223FB182A
:10AE700003221A7003E01223FB1802221A70112316
:10AE8000FB181A781223FB181B781343DAB211232C
:10AE9000FB181A701123FB1801211800264B984744
:10AEA000031E04D01323FB1800221A703CE0162363
:10AEB000FB1800229B5E7A68D2181423FB181B88AB
:10AEC000190010001C4B9847031E04D01323FB18D5
:10AED00000221A7028E0194B1B78002B0CD10C2390
:10AEE000FB1802211800144B9847031E04D01323AB
:10AEF000FB1800221A7017E01623FB181A88142377
:10AF0000FB181B88D3189AB21623FB181A80BB1C97
:10AF1000B91C1422BA18098812888A1A1A80BB1C14
:10AF20001B88002B00D070E71323FB181B785BB243
:10AF30001800BD4606B080BDCDA700002C0500203E
:10AF4000B0B586B002AF786039600D23FB180122DE
:10AF50001A700F23FB18C9221A700E23FB18002247
:10AF60001A707B68302B08D80F23FB18C3221A7085
:10AF70000E23FB1801221A7007E00F23FB18C922C9
:10AF80001A700E23FB1800221A700D23FC183A6861
:10AF900079680F23FB1818780E23FB181B78009391
:10AFA0000423154DA847030023700D23FB181B78BD
:10AFB0005BB2012B01D000231AE00D23FC180F23F4
:10AFC000FB181B7818000D4B9847030023700D23C6
:10AFD000FB181B785BB2012B09D0002300930023E0
:10AFE00000220021CF20044CA047002300E00123D1
:10AFF0001800BD4604B0B0BD91A80000A1AB000090
:10B00000B0B588B002AFF860B960BB1D1A801723D5
:10B01000FB18C7221A70BB1D1A881623FC18F96882
:10B020001723FB1818780023009313000022224DE9
:10B03000A847030023701623FB181B785BB2012B73
:10B0400001D0002333E01623FC181723FB181B78CC
:10B0500018001A4B9847030023701623FB181B781F
:10B060005BB2012B09D000230093002300220021B2
:10B07000CF20114CA047002319E01623FC18BB1D5C
:10B080001A88BB68110018000D4B98470300237005
:10B090001623FB181B785BB2012B07D0002300930B
:10B0A000002300220021CF20034CA04701231800D9
:10B0B000BD4606B0B0BDC04691A80000A1AB0000DF
:10B0C000E5AD0000B0B586B002AF786039600D2301
:10B0D000FB1801221A700F23FB18CA221A700E23C4
:10B0E000FB1800221A707B68FF2B08D80F23FB186F
:10B0F000C4221A700E23FB1801221A7007E00F23D6
:10B10000FB18CA221A700E23FB1800221A700D2396
:10B11000FC1879680F23FB1818780E23FB181B788E
:10B120000093042300222E4DA847030023700D2313
:10B13000FB181B785BB2012B01D000234CE00D23E0
:10B14000FC180F23FB181B781800264B98470300A8
:10B1500023700D23FB181B785BB2012B09D0002351
:10B160000093002300220021CF201D4CA047002384
:10B1700032E00D23FC180E23FB181A780823FB1865
:10B1800004211800184B9847030023700D23FB1867
:10B190001B785BB2012B09D000230093002300220F
:10B1A0000021CF200E4CA047002315E00823FB18F8
:10B1B0001B781A000823FB185B781B021A4308232C
:10B1C000FB189B781B041A430823FB18DB781B062B
:10B1D0001A433B681A6001231800BD4604B0B0BD95
:10B1E00091A80000A1AB000089AC0000B0B588B008
:10B1F00002AFF860B960BB1D1A801723FB18C82284
:10B200001A70BB1D1A881623FC18F9681723FB183F
:10B2100018780023009313000022234DA847030051
:10B2200023701623FB181B785BB2012B01D000237F
:10B2300035E01623FC181723FB181B7818001B4B4E
:10B240009847030023701623FB181B785BB2012B71
:10B2500009D000230093002300220021CF20124CAC
:10B26000A04700231BE01623FC18BB1D1988BB68F0
:10B27000002218000E4B9847030023701623FB187A
:10B280001B785BB2012B09D000230093002300221E
:10B290000021CF20044CA047002300E00123180028
:10B2A000BD4606B0B0BDC04691A80000A1AB0000ED
:10B2B00089AC000080B582B000AF0C4B18000C4B7D
:10B2C000984703007B607B68702293437B607B68B8
:10B2D000502213437B60C0467B68044A190010006B
:10B2E000044B9847C046BD4602B080BD24E800002C
:10B2F000C1B3000035B4000080B582B000AF0023B8
:10B300003B60244B00221A703B00234A19001000B6
:10B31000224B9847031E0CD11E4B01221A703B0092
:10B320001D4A190010001D4B9847031E01D1002330
:10B330002BE0184B1B78002B18D13B680C22934351
:10B340003B603B68702293433B603B685022134351
:10B350003B603B68104A19001000114B9847031ED0
:10B3600001D1002311E00B4B01221A703A1D8023FA
:10B370005B0111001800094B9847031E02D10623F8
:10B380005B4202E0074B984700231800BD4602B01D
:10B3900080BDC0462C05002024E80000C5B0000098
:10B3A00041AF0000B5B2000080B500AF034B0022F2
:10B3B0001A7000231800BD4680BDC0462C05002031
:10B3C00080B584B000AF78600C23FA187B68110058
:10B3D0001800034B9847FB681800BD4604B080BDB9
:10B3E000C5B0000090B585B000AF786039600F231C
:10B3F000FC183A687B68110018000D4B9847030051
:10B4000023700F23FB181B785BB2012B04D10F2391
:10B41000FB1800221A7003E00F23FB18FA221A709F
:10B420000F23FB181B785BB21800BD4605B090BD1A
:10B43000C5B0000090B585B000AF786039600F23CB
:10B44000FC183A687B68110018000D4B9847030000
:10B4500023700F23FB181B785BB2012B04D10F2341
:10B46000FB1800221A7003E00F23FB18FA221A704F
:10B470000F23FB181B785BB21800BD4605B090BDCA
:10B4800041AF000090B587B000AFF860B960BB1D58
:10B490001A801723FC18BB1D1A88B968FB681800AE
:10B4A0000D4B9847030023701723FB181B785BB2E2
:10B4B000012B04D11723FB1800221A7003E0172375
:10B4C000FB18FA221A701723FB181B785BB21800BE
:10B4D000BD4607B090BDC046EDB1000090B587B045
:10B4E00000AFF860B960BB1D1A801723FC18BB1DA4
:10B4F0001A88B968FB6818000D4B98470300237041
:10B500001723FB181B785BB2012B04D11723FB1800
:10B5100000221A7003E01723FB18FA221A7017236F
:10B52000FB181B785BB21800BD4607B090BDC04643
:10B5300001B0000090B58BB004AF0400080011000A
:10B54000BB1D221C1A807B1D021C1A703B1D0A1C8D
:10B550001A701723FB18FF221A701523FB180B22F1
:10B560001A70BB1D1B88022B00D07EE07B1D1B7850
:10B57000012B08D11523FB1807221A701623FB187C
:10B5800000221A7067E07B1D1B78022B08D115235F
:10B59000FB180B221A701623FB1807221A705AE0A8
:10B5A0001723FB181B785BB263E01623FB181B788C
:10B5B0001A01324BD3183B613B699B7ADBB2002BFB
:10B5C00042D13B691022002118002D4B98473B695E
:10B5D00001229A722B4B1B889BB201339AB2294BE2
:10B5E0001A80284B1B889BB2002B06D1254B1B8849
:10B5F0009BB201339AB2234B1A80224B1B889AB21A
:10B600003B69DA801723FB181622BA1812781A70D1
:10B610003B1D1B780122134026D00C23FB18172258
:10B62000BA1812781A703B692122DA720C23FA18C0
:10B63000002302930023019300230093042350214D
:10B640000220114CA0470FE01623FB181A7816238E
:10B65000FB1801321A701623FA181523FB181278FA
:10B660001B789A42A1D300E0C0461723FB181B7831
:10B670005BB21800BD4607B090BDC046383D002003
:10B68000D98B00002E050020918E0000B0B58AB045
:10B6900004AF39601100FB1D021C1A70BB1D0A1C8F
:10B6A0001A701723FB18FA221A703B68002B57D028
:10B6B000FB1D1B787F2B53D8FB1D1B785BB22C4ADC
:10B6C0001B01D3180A331B78DBB2012B48D1BB1DF9
:10B6D0001B78002B44D00823FB18FA1D12781A722D
:10B6E00039680823FB1808221800224B98470823C2
:10B6F000FB181A880823FB181A800823FB185A889D
:10B700000823FB185A800823FB185A680823FB18E3
:10B710005A60FB1D1B785BB2154A1B01D318063318
:10B720001B889AB20823FB185A811723FC18082398
:10B73000FA180023029300230193002300930C23A3
:10B74000412102200C4DA847030023701723FB184A
:10B750001B785BB2002B03D01723FB18F7221A705B
:10B760001723FB181B785BB21800BD4606B0B0BDAE
:10B77000383D00209D8B0000918E000090B58FB069
:10B7800004AF0400B960100019000F23FB18221C3D
:10B790001A700C23FB18021C1A80BB1D0A1C1A808D
:10B7A0002623FB18062252421A800F23FB181B780F
:10B7B0007F2B00D986E0BB68002B00D182E00C23F0
:10B7C000FB181B88434A934200D97BE00F23FB18E8
:10B7D0001B785BB2404A1B01D3180A331B78DBB2DB
:10B7E000012B6FD12323FB1845221A702423FB1849
:10B7F00050221A801023FB180F22BA1812781A70E0
:10B800001023FB180C22BA1812885A800F23FB1839
:10B810001B785BB2304A1B01D31806331B889AB2DF
:10B820001023FB189A810F23FB181B785BB2062BA1
:10B8300003DD2423FB1844221A800F23FB181B78F6
:10B840005BB2254A1B01D3180B331B78DBB21A00FD
:10B85000012313400FD02323FB184C221A700F230F
:10B86000FB1800229A562423FB181B4912018A1840
:10B87000083212881A802323FB181B788022524238
:10B880001343D9B21023FA182423FB181B88029300
:10B890000C23FB181B880193BB6800931023022024
:10B8A0000E4CA04703001A002623FB181A802623FB
:10B8B000FB1800229B5E002B04D02623FB180E22CF
:10B8C00052421A802623FB1800229B5E1800BD46B8
:10B8D0000BB090BDB4050000383D0020918E0000F3
:10B8E00090B58DB004AFB96011007B600F23FB18D9
:10B8F000021C1A700C23FB180A1C1A801E23FB184A
:10B90000062252421A800F23FB181B787F2B00D986
:10B9100099E0BB68002B00D195E00C23FB181B8835
:10B92000002B00D18FE00F23FB181B785BB24A4A33
:10B930001B01D3180A331B78DBB2012B00D082E045
:10B940001E23FB1800221A800F23FB1800229A5690
:10B95000414B1201B968D1500F23FB181B785BB221
:10B960003D4A1B01D31804330C22BA1812881A80DE
:10B970000F23FB181B785BB2374A1B01D3180C331B
:10B980001B78DBB2002B5ED11D23FB1846221A70F8
:10B990000F23FB181B785BB22F4A1B01D3180C3303
:10B9A00001221A700F23FB181B785BB22A4A1B0175
:10B9B000D3180B331B78DBB21A000123134003D0DA
:10B9C0001D23FB184D221A707B68002B05D1142310
:10B9D000FB18012252421A6003E01423FB187A6814
:10B9E0001A601423FB180F22BA1812781A710F2349
:10B9F000FB181B785BB2184A1B01D31806331B884F
:10BA00009AB21423FB18DA801423FA181D23FB18AA
:10BA10001978002302930023019300230093082345
:10BA200002200E4CA04703001A001E23FB181A80A8
:10BA30001E23FB1800229B5E002B04D01E23FB1844
:10BA40000E2252421A801E23FB1800229B5E180011
:10BA5000BD4609B090BDC046383D0020918E000023
:10BA600080B582B000AF3B007B607B68B9221A7062
:10BA7000134B00211800134B98477B681B781A0062
:10BA8000114B110018000F4B9847104B0121180063
:10BA90000C4B98470E4B002118000A4B98470D4B52
:10BAA00081211800074B9847C0460B4B18000B4BE1
:10BAB0009847031E012BF8D1C046BD4602B080BD99
:10BAC0000802010075A200000C020100140201002E
:10BAD0001C020100040201001802010031A2000052
:10BAE00080B582B000AF3B007B607B68AB221A70F0
:10BAF000134B00211800134B98477B681B781A00E2
:10BB0000114B110018000F4B9847104B01211800E2
:10BB10000C4B98470E4B002118000A4B98470D4BD1
:10BB200081211800074B9847C0460B4B18000B4B60
:10BB30009847031E012BF8D1C046BD4602B080BD18
:10BB40000802010075A200000C02010014020100AD
:10BB50001C020100040201001802010031A20000D1
:10BB600090B585B000AF0200FB1D1A700F23FB18C3
:10BB700000221A70244B984703001B051B0D234A13
:10BB8000934238D90F23FC180823FB18204A1900C8
:10BB90001000204B9847030023700F23FB181B78DD
:10BBA0005BB2002B26D1BB681B4A1340BB60BB684D
:10BBB0001A4A1343BB60BB68154A19001000184BA2
:10BBC0009847FB1D1B78002B02D0164B984701E0CD
:10BBD000154B9847BB68104A1340BB60BB68802276
:10BBE00052021343BB60BB68094A190010000C4B9A
:10BBF000984700E0C0460F23FB181B785BB2180083
:10BC0000BD4605B090BDC046119E00009F030000D8
:10BC10001014000051A20000FF8F88F800101101DD
:10BC200075A20000E1BA000061BA000080B584B0DE
:10BC300000AF0200FB1D1A700F23FB18FA1D1278CB
:10BC4000D2091A700E23FB18FA1D127852091A70C5
:10BC50000D4BBB600F23FB181B78002B0FD10F235C
:10BC6000FB181B789B0010229446BC446344083B9D
:10BC70001A680E23FB181B78DB01D31800E00023A1
:10BC80001800BD4604B080BD0044004180B582B0BC
:10BC900000AF0200FB1D1A70FB1D1B781800034B40
:10BCA000984703001800BD4602B080BD2DBC0000BF
:10BCB00080B582B000AF78607B6800221A707B6824
:10BCC00001225A707B6800229A70C046BD4602B0BD
:10BCD00080BDC04680B584B000AF0200FB1D1A7065
:10BCE000BB1D0A1C1A70FB1D1B7818000D4B9847D2
:10BCF0000300FB60FB1D1B781F22134001229A40AA
:10BD00001300BB60BB1D1B78002B03D0FB68BA6817
:10BD10009A6102E0FB68BA685A61C046BD4604B049
:10BD200080BDC0468DBC000080B582B000AF3B1D19
:10BD300018000B4B984762B63B1D01221A703B1D41
:10BD400001225A703B1D19003E20064B98470121E5
:10BD50003E20054B9847C046BD4602B080BDC04658
:10BD6000B1BC00005D350100D5BC000080B582B0DB
:10BD700000AFBB1D00221A8009E0BB1D1B88BA1D45
:10BD8000591C1180084A934201D1002308E0074A58
:10BD9000A023D2588023DB051340EED1BB1D1B88A6
:10BDA0001800BD4602B080BDFF0100000044004104
:10BDB00080B582B000AFBB1D00221A8009E0BB1D18
:10BDC0001B88BA1D591C1180084A934201D10023D7
:10BDD00008E0074AA023D2588023DB051340EED0A9
:10BDE000BB1D1B881800BD4602B080BDFF010000CE
:10BDF0000044004190B585B000AF3B1D18004E4B8C
:10BE000098474E4B0522002118004D4B98470021C2
:10BE10003E204C4B984702204B4B984772B601216D
:10BE20003E20484B98473B1D00221A703B1D0122C3
:10BE30005A703B1D19003E20444B9847444B98478D
:10BE4000031E03D1434B9847002370E0424B9847B1
:10BE5000031E03D13F4B9847002368E03C4B9847B3
:10BE6000031E03D13B4B9847002360E00E23FB18D1
:10BE700000221A803FE00C23FC18374B9847030040
:10BE800023800A23FC18324B9847030023800E239B
:10BE9000FB181B88DB089BB21A000E23FB181B88BB
:10BEA000DB089BB21900254B5B5CDB18D9B2234B36
:10BEB00099540A23FA180C23FB1812881B889A42FB
:10BEC00012D90E23FB181B88DB089BB219000E2326
:10BED000FB181B88DB089BB21A00184B9B5C0122E5
:10BEE0001343DAB2154B5A540E23FB181A880E234B
:10BEF000FB1801321A800E23FB181B88272BBAD996
:10BF0000144B98470D4B1B7919000C4B1B781A00EA
:10BF10000A4B5B78D318094A92789B18074AD27863
:10BF20009B18FF221340CB1A5A425341DBB2180030
:10BF3000BD4605B090BDC046B1BC0000F43D002038
:10BF4000ADEE0100D5BC0000FD0101005D35010032
:10BF50006DBD000029BD0000B1BD000080B582B0FC
:10BF600000AF3B1D18000A4B98473B1D01221A7079
:10BF70003B1D01225A703B1D19003E20054B98477E
:10BF800001213E20044B9847C046BD4602B080BD0B
:10BF9000B1BC00005D350100D5BC000090B585B096
:10BFA00000AF786039600023FB603D4B9847031E6B
:10BFB0006BD03C4B9B781A007F231A403A4B100001
:10BFC0009847031CFB60394B8721C905F8689847DF
:10BFD000031CFB60334BDB781A00334B100098478F
:10BFE000021C334B111CF8689847031CFB60314B53
:10BFF000F8689847304C314A314BA04703000C0099
:10C00000190022002F4B080011009847031CFB6009
:10C01000244B9B785BB2002B04DAFB68802212066B
:10C020005340FB607B68FA681A601E4B1A78264BF7
:10C0300010009847031CFB601C4B8721C905F8685A
:10C040009847031CFB60174B5B781A00164B1000D7
:10C050009847021C164B111CF8689847031CFB609C
:10C06000144BF8689847144C144A154BA04703002A
:10C070000C0019002200134B080011009847031C04
:10C08000FB603B68FA681A6005E07B6800221A6072
:10C090003B6800221A60C046BD4605B090BDC04650
:10C0A000F5BD0000F43D00201DE20100A5DC01000B
:10C0B000B9D901001DE8010029E301009A99999975
:10C0C0009999B93FC5E80100ADE2010080B584B09F
:10C0D00000AF0200FB1D1A700F23FB18FA1D127827
:10C0E000D2091A700E23FB18FA1D127852091A7021
:10C0F0000D4BBB600F23FB181B78002B0FD10F23B8
:10C10000FB181B789B0010229446BC446344083BF8
:10C110001A680E23FB181B78DB01D31800E00023FC
:10C120001800BD4604B080BD0044004180B582B017
:10C1300000AF0200FB1D1A70FB1D1B781800034B9B
:10C14000984703001800BD4602B080BDCDC0000076
:10C1500080B582B000AF78607B6800221A707B687F
:10C1600001225A707B6800229A70C046BD4602B018
:10C1700080BDC04680B584B000AF0200FB1D1A70C0
:10C18000BB1D0A1C1A70FB1D1B7818000D4B98472D
:10C190000300FB60FB1D1B781F22134001229A4005
:10C1A0001300BB60BB1D1B78002B03D0FB68BA6873
:10C1B0009A6102E0FB68BA685A61C046BD4604B0A5
:10C1C00080BDC0462DC1000080B582B000AF020026
:10C1D000FB1D1A70064BFA1D127811001F220A402F
:10C1E000012191400A001A60C046BD4602B080BDE0
:10C1F00000E100E080B584B000AF78607B681B6828
:10C20000FB60FB68DB695A1E9341DBB21800BD4638
:10C2100004B080BD80B582B000AF78607B68012239
:10C220001A707B6800225A607B6800229A607B68E3
:10C23000C0229203DA607B6800221A747B680022B5
:10C240005A747B6801229A747B680122DA747B68D5
:10C2500000221A757B682422002199547B681833C8
:10C260000C22002118000A4B98477B68094A9A6102
:10C270007B6800229A627B680022DA627B68002277
:10C280001A637B6800225A63C046BD4602B080BD77
:10C29000ADEE0100A086010080B584B000AF7860EB
:10C2A0007B681B68FB607B681B6818000B4B98471A
:10C2B000030018000A4B9847C0467B681800094BDA
:10C2C0009847031EF9D1FB681B6802221A43FB68DA
:10C2D0001A60C046BD4604B080BDC0461941010089
:10C2E000C9C10000F5C1000080B584B000AF78601E
:10C2F0007B681B68FB60FB68DB695A1E9341DBB2FD
:10C300001800BD4604B080BD80B582B000AF786033
:10C31000C0467B681800044B9847031EF9D1C046FD
:10C32000BD4602B080BDC046E9C2000080B582B003
:10C3300000AF78607B688022D2051A607B6800229B
:10C340005A607B68FF221A817B6800229A727B68A0
:10C350000022DA727B68962292011A627B6824229C
:10C36000012199547B682522012199547B6826225A
:10C37000002199547B682722002199547B68002270
:10C380009A627B6888225203DA607B682C22002143
:10C3900099547B682D22002199547B6800221A63EE
:10C3A0007B6800225A637B6800229A637B680022C4
:10C3B000DA637B6800225A617B6800221A827B68FC
:10C3C0000022DA767B6800221A767B6800221A77D0
:10C3D0007B6800225A767B6813229A767B6800225B
:10C3E0005A77C046BD4602B080BDC04680B584B015
:10C3F00000AF78607B681B68FB607B681B68180077
:10C40000094B984703001800084B98477B681800B1
:10C41000074B9847FB681B6802221A43FB681A60A7
:10C42000C046BD4604B080BD19410100C9C100002D
:10C4300009C3000080B582B000AF78600A00FB1C21
:10C440001A707B6831229B5C5AB2FB1C1B7801215D
:10C4500099400B005BB213435BB2D9B27B683122C7
:10C460009954C046BD4602B080BDC04680B582B07A
:10C4700000AF78600A00FB1C1A707B6831229B5C5D
:10C480005BB2FA1C1278012191400A0052B2D243E9
:10C4900052B213405BB2D9B27B6831229954C04684
:10C4A000BD4602B080BDC04680B584B000AF7860A4
:10C4B0000F23FB1800221A707B681B78392B06D8D3
:10C4C0007B681A780F23FB18303A1A7005E07B68F6
:10C4D0001A780F23FB18373A1A707B6801331B78E0
:10C4E000392B0FD87B6801331B78303B1B015AB2C4
:10C4F0000F23FB181B785BB213435AB20F23FB18B0
:10C500001A700EE07B6801331B78373B1B015AB26F
:10C510000F23FB181B785BB213435AB20F23FB188F
:10C520001A700F23FB181B781800BD4604B080BD9D
:10C5300090B585B000AF78603F4B1B780122534027
:10C54000DBB2002B0AD03D4B1B88022B6AD13A4B41
:10C5500001221A703A4B00221A7063E0374B1B8895
:10C56000032B4FD1344B00221A700F23FB180022EB
:10C570001A700E23FB1800221A7025E00E23FB18F8
:10C580001B785A002F4BD3180D22BC1818002E4BC5
:10C590009847030023700F23FB180F22B9180D22B0
:10C5A000BA18097812784A401A700E23FB181B78C3
:10C5B000244A0D2179180978D1540E23FB181A78D2
:10C5C0000E23FB1801321A700E23FB181B78042B64
:10C5D000D4D91E4B18001C4B984703001A000F2398
:10C5E000FB181B7893421DD1194B01221A70194B6D
:10C5F00001211800184B9847184B1B681800184B5E
:10C6000098470FE00E4B1B78132B0BD80C4B1B7865
:10C610005A1CD1B20A4A11701A00084B1B88D9B2B1
:10C62000084B9954054A7B68110018000D4B984738
:10C63000C046BD4605B090BDE4460020E449002058
:10C6400099440020FC3D0020A9C40000063E0020C3
:10C65000644A0020143E00206DC40000344A0020CB
:10C66000A1060100CD59010080B590B000AF3B009C
:10C6700018001F4B98473B00962292011A623B001C
:10C680008022D2051A603B00FF221A813B00002263
:10C690009A723B00C0229203DA603B0001225242B0
:10C6A0001A633B00012252425A633B00012252426C
:10C6B0009A633B000F4ADA63C0463A000E490F4BBB
:10C6C00018000F4B9847031EF7D10C4B18000D4B69
:10C6D00098470D49094B012218000C4B9847074B0E
:10C6E000012118000A4B9847C046BD4610B080BDD6
:10C6F0002DC3000003002B0000180042143E002050
:10C700002D560100EDC3000031C500008559010020
:10C710006DC4000090B583B002AF07490748084BCD
:10C720000193012300930023C822064CA047C04672
:10C73000BD4601B090BDC046C80D020049C700000B
:10C74000344A002091FF000080B584B000AF7860CB
:10C750000020284B9847284B00221A70274B0022B4
:10C760001A70274B00221A70264B01211800264B05
:10C770009847264A234B11001800254B9847FA2367
:10C780009B001800234B98471D4B1B78002B2CD087
:10C79000214B00221A700F23FB1800221A7019E097
:10C7A0000F23FB181A781300DB009B181B4A9B18F9
:10C7B0001B49052218001B4B9847031E03D1164B3B
:10C7C00001221A700BE00F23FB181A780F23FB18B5
:10C7D00001321A700F23FB181B78132BE0D9FA23B0
:10C7E0009B0018000B4B9847B5E70B4B00221A70C3
:10C7F000B1E7C0461D030100E44600209944002033
:10C80000644A0020143E002035C40000E4490020A2
:10C81000CD590100FD010100244A002028490020D3
:10C82000FC3D00207DEE010080B590B000AF3B1DC7
:10C8300018002C4B98473B1D01221A703B1D190014
:10C840003120294B984701213120284B98473B1D27
:10C8500019000820244B984701210820234B9847B2
:10C860003B1D19002A20204B984701212A201F4BED
:10C8700098470823FB1818001D4B98470823FB18FE
:10C8800080225202DA600823FB181A4A9A620823AF
:10C89000FB1801225242DA620823FB18164A1A6377
:10C8A0000823FB18154A5A630823FB1800229A60D4
:10C8B0000823FB182422002199540823FA18104950
:10C8C000104B1800104B9847104A0E4B11001800DF
:10C8D0000F4B98470B4B18000E4B9847C046BD4670
:10C8E00010B080BD51C100005D35010075C1000070
:10C8F00015C20000020030000300360003003700BC
:10C90000001C0042E8490020CD48010040420F00D1
:10C91000F545010099C2000080B584B000AF020067
:10C92000FB1D1A70BB1D0A1C1A70002131200F4B11
:10C930009847FB1D1B789BB27E22134099B20E23B1
:10C94000FA180B4B18000B4B9847BB1D1B7899B27C
:10C950000E23FA18064B1800064B98470121312088
:10C96000024B9847C046BD4604B080BD75C100006B
:10C97000E8490020914B010080B584B000AF02006F
:10C98000FB1D1A700E23FB1800221A800021312093
:10C99000124B9847FB1D1B781BB27E2213401BB223
:10C9A000802213431BB299B20E23FA180C4B1800C5
:10C9B0000C4B98470E23FA18094B00211800094B1D
:10C9C000984701213120054B98470E23FB181B88FF
:10C9D000DBB21800BD4604B080BDC04675C1000082
:10C9E000E8490020914B010090B583B000AFFC1DD9
:10C9F00028200B4B984703002370FB1D1B78032254
:10CA00001340032B08D0FB1D1B7803221343DBB21A
:10CA100019002820034B9847C046BD4603B090BD7F
:10CA200079C9000019C90000F8B500AF002108203D
:10CA3000234B98470020234B984703001D000023F9
:10CA40001E00214C3222002328003100A0470300A1
:10CA50000C00190022001D4B0024C9186241080077
:10CA600011001B4C1B4A0023A04703000C001800B8
:10CA7000194B984701210820114B984780215420D9
:10CA8000164B9847A9215620144B9847032158204C
:10CA9000124B9847E8215A20104B984740212A20F2
:10CAA0000E4B98473D2122200C4B984770214C207B
:10CAB0000A4B98470A4B9847C046BD46F8BDC0464A
:10CAC00075C1000009690100B1D70100571B0000C2
:10CAD00071D70100581B00000100002019C9000097
:10CAE000E9C9000080B584B000AF0200FB1D1A70D8
:10CAF0000F23FB18FA1D1278D2091A700E23FB18A7
:10CB0000FA1D127852091A700D4BBB600F23FB18E7
:10CB10001B78002B0FD10F23FB181B789B001022D2
:10CB20009446BC446344083B1A680E23FB181B78E8
:10CB3000DB01D31800E000231800BD4604B080BD1F
:10CB40000044004180B582B000AF0200FB1D1A70A6
:10CB5000FB1D1B781800034B984703001800BD46C7
:10CB600002B080BDE5CA000080B582B000AF786039
:10CB70007B6800221A707B6801225A707B68002251
:10CB80009A70C046BD4602B080BDC04680B584B034
:10CB900000AF0200FB1D1A70FB1D1B7818000B4B29
:10CBA00098470300FB60FB1D1B781F2213400122E6
:10CBB0009A401300BB60FB681B6ABA6813405A1E98
:10CBC0009341DBB21800BD4604B080BD45CB0000E8
:10CBD00080B584B000AF0200FB1D1A70BB1D0A1C9B
:10CBE0001A70FB1D1B7818000D4B98470300FB6063
:10CBF000FB1D1B781F22134001229A401300BB60CB
:10CC0000BB1D1B78002B03D0FB68BA689A6102E059
:10CC1000FB68BA685A61C046BD4604B080BDC046D4
:10CC200045CB0000F0B589B000AF1823FB18180001
:10CC3000624B98471823FB1800221A701823FB1820
:10CC400001225A701823FB1819000C205C4B9847DE
:10CC50001823FB1819000D20594B98471823FB186F
:10CC600019000F20564B98471823FB18190009206C
:10CC7000534B984701211B20524B98470020524BA1
:10CC8000984703003B6100237B61504B00243869C7
:10CC90007969C01861414E4C4E4A0023A0470300F9
:10CCA0000C0018004C4B984701210220454B984737
:10CCB0000020454B98470300BB600023FB60434BBB
:10CCC0000024B868F968C0186141414C414A00230A
:10CCD000A04703000C0018003F4B98471F23FC1887
:10CCE0003E4B98470300237000210220354B9847A4
:10CCF0000020354B984703003B6000237B60334B9B
:10CD0000002438687968C0186141314C314A0023E9
:10CD1000A04703000C0018002F4B98470121022068
:10CD2000284B98470020284B984703001D000023FC
:10CD30001E00264B002428003100C0186141244CFD
:10CD4000244A0023A04703000C001800224B9847F8
:10CD50001E23FC18214B984703002370002102205A
:10CD6000184B98471823FB1801221A701823FB1838
:10CD700019000C20124B98471823FB1819000D209E
:10CD80000F4B98471823FB1819000F200C4B98479E
:10CD90001823FB1819000920094B98471F23FB187B
:10CDA0001B781B015AB21E23FB181B785BB213437E
:10CDB0005BB2DBB21800BD4609B0F0BD69CB000024
:10CDC0005D350100D1CB000009690100BFCF6A00C9
:10CDD00071D70100C0CF6A0001000020E1CD000042
:10CDE00080B582B000AFFB1D00221A700C201B4BD7
:10CDF000984703001900FB1DFA1D12780A431A70A8
:10CE00000D20164B984703005B005AB2FB1D1B78A0
:10CE10005BB213435AB2FB1D1A700F200F4B984799
:10CE200003009B005AB2FB1D1B785BB213435AB23E
:10CE3000FB1D1A700920094B98470300DB005AB20A
:10CE4000FB1D1B785BB213435AB2FB1D1A70FB1D0E
:10CE50001B781800BD4602B080BDC0468DCB0000D7
:10CE6000F0B585B000AF02000F23FB181A700F2336
:10CE7000FB181B78012213405A1E9341DBB21900A4
:10CE80000C20334B98470F23FB181B7802221340CA
:10CE90005A1E9341DBB219000D202D4B98470F23EA
:10CEA000FB181B78042213405A1E9341DBB2190071
:10CEB0000F20274B98470F23FB181B78082213409D
:10CEC0005A1E9341DBB219000920214B98470020DC
:10CED000204B984703003B6000237B601E4A0023E1
:10CEE00038687968801859411C4E1D4A0023B047A4
:10CEF00002000B00130018001A4B98470121022072
:10CF0000134B98470020134B984703001C00002345
:10CF10001D0022002B0012196B411C001300190088
:10CF200022000D4B0024C9186241080011000B4C6F
:10CF30000B4A0023A04703000C001800094B984738
:10CF400000210220024B9847C046BD4605B0F0BD07
:10CF5000D1CB000009690100BFCF6A0071D7010081
:10CF6000C0CF6A0001000020F0B585B000AF02001C
:10CF70000F23FB181A700E23FB180A1C1A700021CD
:10CF800003202E4B9847C0462D4B984703005BB2B9
:10CF9000002BF9DB0F23FB181B785A1E9341DBB2E1
:10CFA00019000320254B98470020264B9847030083
:10CFB0003B6000237B60244B002438687968C018EC
:10CFC0006141224C224A0023A04703000C001800B4
:10CFD000204B984700211B20184B98470020194BE5
:10CFE000984703001D0000231E00174B0024280053
:10CFF0003100C0186141154C154A0023A0470300B9
:10D000000C001800134B9847002102200B4B984747
:10D010000E23FB181B781B09DBB218000E4B984738
:10D020000E23FB181B780F221340DBB218000A4BAB
:10D030009847C046BD4605B0F0BDC046D1CB000004
:10D0400025CC000009690100BFCF6A0071D701003B
:10D05000C0CF6A000100002061CE0000F0B58DB0A5
:10D0600000AF2C23FB181800844B98472C23FA1888
:10D07000012313702C23FB1819000320804B9847C1
:10D080002C23FB1819001B207D4B98472C23FB18E1
:10D09000190002207A4B98472C23FB1819000C200A
:10D0A000774B98472C23FB1819000D20744B984799
:10D0B0002C23FB1819000F20714B98472C23FB18C9
:10D0C000190009206E4B9847002103206D4B9847AB
:10D0D00000211B206B4B984700210220694B984789
:10D0E0000020694B984703003B6100237B6138694E
:10D0F000796903000C001A0F260116431D012B004D
:10D1000034000A0001005B1A9441604900225B1858
:10D110005441180021005E4C5E4A0023A0470300E2
:10D120000C0018005C4B98472F23FB1801221A7043
:10D1300031E00320594B98470020534B9847030098
:10D14000BB600023FB60B868F96803000C009A0F0D
:10D15000A5007D627D6A15437D629B003B623B6A50
:10D160007C6A0A0001005B185441484900225B18A0
:10D17000544118002100464C464A0023A0470300B2
:10D180000C001800444B98472F23FB182F22BA1885
:10D19000127801321A702F23FB181B78032BC8D981
:10D1A00002203E4B98470020374B984703003B60D6
:10D1B00000237B603868796803000C009A0FA50093
:10D1C000FD61FD691543FD619B00BB61BB69FC69A5
:10D1D0000A0001005B1854412C4900225B1854419D
:10D1E000180021002A4C2B4A0023A04703000C0002
:10D1F0001800294B98472F23FB1800221A700FE0C4
:10D200002F23FB181B78264AD35C19000020254BDE
:10D2100098472F23FB182F22BA18127801321A7060
:10D220002F23FB181B78032BEAD91F4B1900002072
:10D230001E4B98471E4B190001201C4B98471D4B55
:10D2400019000220194B98471B4B19000320174B5C
:10D2500098471A4B19000420144B9847184B190093
:10D260000520124B9847174B222200211800164B1D
:10D270009847C046BD460DB0F0BDC04669CB000022
:10D280005D350100D1CB000009690100571B00008A
:10D2900071D70100581B00000100002061CE000082
:10D2A000000E020069CF0000D00D020059D300002B
:10D2B000D80D0200E00D0200E80D0200F00D0200A2
:10D2C000F80D0200AC4A0020ADEE010080B584B03C
:10D2D00000AF0200FB1D1A70BB1D0A1C1A70BB1D9B
:10D2E0001B78012B0DD002DC002B05D018E0022B9F
:10D2F0000CD0032B0FD013E00F23FB1800221A7061
:10D300000EE00F23FB1840221A7009E00F23FB18D0
:10D3100010221A7004E00F23FB1850221A70C04626
:10D32000FA1D0F23FB1812781B78D318DAB20F23DB
:10D33000FB18013A1A700F23FB181B788022524207
:10D340001343DBB219000020024B9847C046BD468C
:10D3500004B080BD69CF000080B584B000AF02008A
:10D360003960FB1D1A70FB1DFA1D1278D2001A706D
:10D37000FB1DFA1D127838210A401A70FB1D1B781C
:10D3800040221343DBB2190000200B4B98470023C7
:10D39000FB600AE03B685A1C3A601B7819000120C8
:10D3A000054B9847FB680133FB60FB68072BF1D9FD
:10D3B000C046BD4604B080BD69CF000080B582B0D4
:10D3C00000AF00210120264B9847FB1D00221A7058
:10D3D00017E0FB1D1B78234AD35C002B04D1FB1DF7
:10D3E0001B78204A2021D154FB1D1B781D4AD35C99
:10D3F000190001201C4B9847FB1D1A78FB1D0132B8
:10D400001A70FB1D1B780F2BE3D901210120144B4F
:10D410009847BB1D00221A701AE0BB1D1B78114AE9
:10D42000D3185B7C002B05D1BB1D1B780D4AD3188C
:10D4300020225A74BB1D1B780A4AD3185B7C190042
:10D440000120094B9847BB1D1A78BB1D01321A7089
:10D45000BB1D1B780F2BE0D9C046BD4602B080BD76
:10D46000CDD20000AC4A002069CF000080B584B066
:10D4700000AF0200FB1D1A700F23FB18FA1D127873
:10D48000D2091A700E23FB18FA1D127852091A706D
:10D490000D4BBB600F23FB181B78002B0FD10F2304
:10D4A000FB181B789B0010229446BC446344083B45
:10D4B0001A680E23FB181B78DB01D31800E0002349
:10D4C0001800BD4604B080BD0044004180B582B064
:10D4D00000AF0200FB1D1A70FB1D1B781800034BE8
:10D4E000984703001800BD4602B080BD6DD400000F
:10D4F00080B584B000AF0200FB1D1A70BB1D0A1C72
:10D500001A70FB1D1B7818000D4B98470300FB6039
:10D51000FB1D1B781F22134001229A401300BB60A1
:10D52000BB1D1B78002B03D0FB68BA689A6102E030
:10D53000FB68BA685A61C046BD4604B080BDC046AB
:10D54000CDD4000080B582B000AF78607B68002247
:10D550001A707B6800225A707B6800229A707B6880
:10D560000022DA707B6801221A717B6801225A71ED
:10D570007B68FA22D200DA80C046BD4602B080BD88
:10D5800080B584B000AF0200FB1D1A70BB1D0A1CE1
:10D590001A7000212A20114B98470E23FA18104BBD
:10D5A000122118000F4B9847FB1D1B7899B20E23D0
:10D5B000FA180B4B18000B4B9847BB1D1B7899B200
:10D5C0000E23FA18064B1800064B984701212A2013
:10D5D000024B9847C046BD4604B080BDF1D4000060
:10D5E000E8490020914B010080B584B000AF78601D
:10D5F00000212A200E4B98470E23FA180D4B1221BA
:10D6000018000D4B98470E23FA180A4B01211800F9
:10D61000094B98477968074B07221800074B984732
:10D6200001212A20024B9847C046BD4604B080BD68
:10D63000F1D40000E8490020914B0100314D010078
:10D6400090B585B000AF786000212A205B4B9847E9
:10D650000E23FA185A4B132118005A4B98470E23E1
:10D66000FA18574B01211800564B984779685448CF
:10D6700000230722544CA04701212A204F4B9847F2
:10D680007B681B787F229343DBB2002B00D088E0BD
:10D690007B681A780F218A431A707B681A78702188
:10D6A0008A431A707B681A787F210A401A707B6857
:10D6B0005A780F218A435A707B685A7870218A43BE
:10D6C0005A707B689A780F218A439A707B689A789F
:10D6D00030218A439A707B689A7840218A439A70F5
:10D6E0007B689A787F210A409A707B68DA780721F4
:10D6F0008A43111C01220A43DA707B68DA78082118
:10D700000A43DA707B68DA7810218A43DA707B6822
:10D71000DA7820218A43DA707B681A790F218A43EC
:10D72000111C01220A431A717B681A7930218A433D
:10D730001A717B685A790F218A43111C01220A430E
:10D740005A717B685A7910218A435A717B685A79D9
:10D7500020218A435A717B689A790F218A439A71F2
:10D760007B689A790F210A409A717B681800174BE1
:10D77000984700210020164B98477B681B785B0672
:10D780005B0FDBB21B01DBB27A6812781207120F53
:10D79000D2B29B18DBB2803BDBB2190001200C4BEC
:10D7A0009847002108200A4B984700210920084B80
:10D7B0009847C046BD4605B090BDC046F1D40000B4
:10D7C000E8490020914B01005D4A0100E9D50000C5
:10D7D00081D5000080B582B000AF3B0018005A4BE5
:10D7E00098475A4B18005A4B98473B009B791B07A8
:10D7F0001B0FDBB29AB23B009B791B061B0FDBB2FF
:10D800009BB2191C8900CB18DB189BB2D3189BB2B2
:10D81000FA22D200944663449AB24C4BDA803B0021
:10D820009B781B071B0FDBB21A003B009B789B0603
:10D830009B0FDBB2191C8900CB18DB18DBB2D318A5
:10D84000DAB2424B9A703B005B781B071B0FDBB2CE
:10D850001A003B005B785B065B0FDBB2191C89008A
:10D86000CB18DB18DBB2D318DAB2384B5A703B0056
:10D870001B781B071B0FDBB21A003B001B785B06F3
:10D880005B0FDBB2191C8900CB18DB18DBB2D31895
:10D89000DAB22E4B1A703B005B791B071B0FDBB211
:10D8A0001A003B005B79DB06DB0FDBB2191C890039
:10D8B000CB18DB18DBB2D318DAB2244B5A713B0019
:10D8C0001B791B071B0FDBB21A003B001B799B0661
:10D8D0009B0FDBB2191C8900CB18DB18DBB2D31805
:10D8E000DAB21A4B1A71194A1A4B110018001A4B66
:10D8F0009847164BDB88194A9A18194B5A61134BF3
:10D900005B795A1E164B1A61104B1B791A00144B87
:10D91000DA600E4B9B781A00114B9A600B4B5B78C8
:10D920001A000F4B5A60094B1B781A000C4B1A60F7
:10D930000B4B18000B4B984702000B4B1A60C0466C
:10D94000BD4602B080BDC04641D60000684A0020F6
:10D9500045D50000C84B00209139010094F8FFFF25
:10D96000C046002055F00100E049002090B583B08A
:10D9700000AF78600A00BB1C1A8072B60C4B002204
:10D980001A700C4B00201856BB1C1A8879680023AB
:10D99000094CA047031E04D1084B1800084B9847B8
:10D9A00003E062B60A20064B9847BD4603B090BD1F
:10D9B00031050020250000207DB700001027000061
:10D9C000FD01010080B584B000AF02003960FB1D8D
:10D9D0001A70FB1D1B782C2B02D0322B09D00CE0C7
:10D9E0003B68FB60FB681B78012B05D1054B984712
:10D9F00002E03B68BB6000E0C046C046BD4604B0E4
:10DA000080BDC0468D9A000090B583B002AFC82398
:10DA10005A000C490C480D4B01930123009300233D
:10DA20000B4CA047C8235A000A490B480B4B0193E3
:10DA3000012300930023064CA047C046BD4601B019
:10DA400090BDC046100E020061DA00007C37002055
:10DA500091FF0000180E020069DC0000C0310020B8
:10DA600090B58BB000AF7860002201210720624B97
:10DA700098470200614B1A600823FB181822002106
:10DA800018005F4B98470823FB185E4A1A6023234F
:10DA9000FC180823FB1818005B4B98470300237001
:10DAA0002323FB181B785BB2002B05D0FA239B00C5
:10DAB0001800564B9847F9E7554BA0220021180053
:10DAC0004F4B9847524B534A03CA03C312881A80DC
:10DAD000514A524B1000190010231A00504B98471E
