:020000020000FC
:1000000030290020612800005D2800005D280000E4
:1000100000000000000000000000000000000000E0
:100020000000000000000000000000005D2800004B
:1000300000000000000000005D2800005D280000B6
:100040005D2800005D2800005D2800005D2800009C
:100050005D2800005D280000150100005D280000FB
:100060005D280000711A0000811A0000911A00003A
:10007000A11A0000B11A0000C11A00005D2800009A
:100080005D2800005D2800005D2800005D2800005C
:100090005D2800005D2800005D2800005D2800004C
:1000A0005D2800005D2800005D2800005D2800003C
:1000B0000000000010B5064C2378002B07D1054B3B
:1000C000002B02D0044800E000BF0123237010BDC4
:1000D000A0000020000000003C630000084B10B5A9
:1000E000002B03D00749084800E000BF0748036819
:1000F000002B00D110BD064B002BFBD09847F9E731
:1001000000000000A40000203C6300003C630000ED
:100110000000000070B5204B98470F221F4B20496C
:100120001B8C204C13409B0058581F4D03781F49CF
:100130001A401F4B1A7003780A781B01E418EB1859
:1001400064885B88D2B2E31A4361140001231C4027
:1001500007D010220B704274027C1A4218D04368F8
:1001600013E002231A4206D00B70027C44741A4238
:100170000ED0836809E004231A4209D006220B70CE
:100180004274027C1A4203D0C368002B00D0984707
:10019000084B984770BDC0467115000000480041EB
:1001A0001001002000040020C00000204E48004143
:1001B0003F480041A5150000024B187D012318405F
:1001C0007047C04600400041042170B51F4A204CD2
:1001D000D36905000B43D3612022238BFF321343E5
:1001E00023831C4B984703000520002B2DD0C022F1
:1001F0002B7892001B0213401E221800AB7880213E
:100200005B00134003436A78E878D201800413430B
:100210000200C9020A40C021134318002B79890249
:100220001B040B401A000300082113436360A368FA
:10023000094A5B035B0F99401180A36853806B7878
:100240001371208BC005C00F000170BD0004004079
:1002500000400041B901000024010020F7B5274A01
:10026000009153881188009A4B430400934207D2AF
:100270008022009B224918205B18920193423CD8AF
:10028000802320221F4DDB026F68FF323B436B60EF
:100290002B8B2E0013432B831B4B98471A4B019338
:1002A000002802D16F60053027E0062C06D8052C07
:1002B0000BD2022C0FD0042C12D10CE0402C0FD307
:1002C000412C08D9452C0ED90AE02B8BDB0502D531
:1002D0006F60102011E0009B9B085B00F36102E05F
:1002E0007760172009E0A5231B021C433480019B83
:1002F00098470028FBD000207760FEBD2401002035
:1003000000C07FFF00400041B9010000F7B51600B2
:10031000224A0F0013885188050059430092182281
:10032000814238D3591E084235D1013AB34232D303
:100330001B4CA0470194052200282CD0194C1A4BC5
:100340002380019B98470028FBD02022238BFF327B
:1003500013432383002368084000741E9AB2964218
:100360000DD99AB2B95CA24201DB8AB203E0BA1895
:10037000527812020A43C1180A800233EEE70022C3
:10038000009B1B79934206D13F2E04D829000420FC
:10039000064B984702001000FEBDC0462401002015
:1003A000B90100000040004144A5FFFF5D020000CC
:1003B000F8B5194B0D0019885B8814004B430700F2
:1003C0001822834225D34B1E03401E1E21D1013A21
:1003D000A1421ED3114B98470522002819D0202195
:1003E0000F4AFF31138B78080B431383400033000F
:1003F000661E9AB294420BD9C218128899B292B270
:100400006A54B14202DA6918120A4A700233F0E7FC
:1004100000221000F8BDC04624010020B9010000F0
:100420000040004170B5114A040013885188182219
:100430005943814217D39B00013B184213D10C4D05
:10044000A847052200280ED020210A4BFF311A8B25
:10045000A4080A431A83084A6400DC611A80A8478A
:100460000028FCD00022100070BDC04624010020EE
:10047000B90100000040004102A5FFFF70B507254B
:10048000891A0731CC172C406118C9104118481E31
:1004900000782A401041D6180400082E0DDD881E71
:1004A00000780135AD1AA8400443102E05DD102058
:1004B00003390978821A91400C4301209840013891
:1004C000204070BD10B5074B074819680078CB1C59
:1004D000DB7F064C5A1E93414A7CDBB20968A04779
:1004E00010BDC0463001002036010020411100003F
:1004F00070B5FF26094D002109480A4B9847041E94
:1005000001D1002407E0084B9847304203D0013D59
:10051000002DF0D1F5E7200070BDC046410D03006D
:100520000D1B0000591300006D13000010B5034BA4
:100530001878002801D1024B984710BD36010020E1
:1005400095110000F8B505000420002D6ED1384942
:100550000B7A0C005A09DF0966D13648D20112180D
:10056000156A01261F22134032009A408B7B1540EA
:100570000AD0B34205D1304B1B78002B01D02F4B52
:100580001F600423A37313E0042B27D12B4C8E731D
:100590002068294A2A4B00280CD116709847FA2166
:1005A000284B49019847FA239B0058436060266016
:1005B00002203BE0280015709847FA2200239200A1
:1005C0002900214CA0470023204A214C8018594182
:1005D000204A0023A047204B9847E9E7012B12D17E
:1005E000154B1B78002B05D0144B02201A68D20340
:1005F0001CD51D600223A373184B00222360012326
:100600006374E31CDA770320A37B83420ED00022BD
:10061000134B1A70134B1C60134B9847A07B023886
:1006200042424241D0B201E02B6AFFDEF8BDC04633
:100630000C000020004400412C01002010E000E0EC
:1006400015260000214A00004D4D0000571B0000F8
:100650000D4D0000581B000001000020801A06000C
:100660003601002030010020C504000073B50124CC
:100670000B4D10222B680B4899890B4E09040094EE
:100680002300B047002801D1002008E0286821009D
:100690001230064B98470028F6D0054B984776BD98
:1006A0003001002009110800F1110000ED130000D5
:1006B00055140000042210B5034B9A73034BFB3210
:1006C0001A70034B984710BD0C0000203601002023
:1006D00009100000F0B5C74B89B09847061E012EDF
:1006E00000D026E10025C44C2368D8731D749D8179
:1006F000C24B9847882029004001C14DA8470028D7
:1007000000D113E1D5277F003900BE48A847002853
:1007100009D0BD4B9847431C05D00005000DB842D9
:1007200000D003E100E000262368DB7BDB0700D577
:10073000A6E02368DB7BDB0707D42368DA7B092389
:100740001340012B00D08AE082E0B04B984700288C
:1007500000D1EBE0266808233500123560228021A5
:100760002800AB4FB8470723AA4A03409B009B5879
:10077000FA22400692005343000FA74A8000825895
:1007800080215343280033607E220223B84700288B
:1007900008D01623302280212800B84701304002BB
:1007A000706018E00C233E2280212800B847032304
:1007B00003902F2280212800B847039B0230013389
:1007C000834050220393802104232800B847039FCD
:1007D0008740BF0A7760B18990480904884B9847E1
:1007E000002800D1A2E00125082200952B0000215D
:1007F0008B488C4EB047002800D197E0290006A80E
:10080000894B9847002800D190E0884B9847061EF6
:1008100000D18BE004233822402106A87C4FB84742
:100820001A23A8420ED000280BD0022809D12B0091
:100830002F22402106A8B8473023012802D02023C8
:1008400000E0102322681374002E00D075E76DE0DD
:100850008021774889006A4B9847002866D0236832
:10086000DB7BDB0703D5734B984700285ED0724BC8
:100870009847002223689A73704B9847012027E11C
:10088000701E8641B3076E4E039300216348A8474C
:1008900000281BD003996B48A847002816D05A4F50
:1008A000B84701230100194003D0013E002EECD1CE
:1008B0000CE06548A847002808D0B84743002FD56A
:1008C00008212268D37B0B43D37329E002238820BD
:1008D00022680021D3734001A847002826D0584E33
:1008E00000215A48A847002820D0474FB847012187
:1008F000014003D0013E002EF2D117E05248A84734
:10090000002813D0B847C023DB0518408023DB053F
:10091000984212D108212268D37B0B43D3730CE099
:1009200000214B48A847002800D002E7032623688F
:100930009E73424B98473000CAE000214448A847C4
:100940000028F3D0314B98470028EFD025680423C6
:100950002E0012367A22802130002D4FB847013800
:10096000122303280AD804F051F8020406081423BD
:1009700004E0222302E0302300E040232B746022B5
:1009800008238021224F3000B84707234206184031
:10099000204B8000C158FA239B004B43120F2D4976
:1009A000920052583000534380212B603E220C238A
:1009B000B847294B0390984211D003232F2280215E
:1009C0003000B847039F02300137874004233000CE
:1009D000502280210E4EB0478740BF0A6F602B7CAB
:1009E0003F2B3BD8802112488900054B98470028AF
:1009F0009CD038E74505000030010020BD11000003
:100A000059130000085500006D1300006D0600002A
:100A10007D0400004C5800000C5800003711000005
:100A200033110800F1110000ED130000551400000F
:100A300010110000F1040000C50400002D050000A5
:100A4000EF1B0000291100003A0500000111000011
:100A50003B11000068580000FF0F000000218022B9
:100A60001C4D0091012392001B48A8473225002805
:100A700000D15BE705A8194EB047002800D155E723
:100A8000013DADB2002DF5D120680C23144D12307C
:100A90003E228021A847134B322598420ED12E3D8D
:100AA00006A8B047002800D140E7013DADB2002DB7
:100AB000F6D1069B22685B085360363506A8B0471E
:100AC000002800D132E70135ADB2802DF6D189E79B
:100AD00009B0F0BDF1110000081108007913000001
:100AE0007D040000FF0F0000064B10B5984700235F
:100AF000984204D1044B9847044B1B68DB7B1800D9
:100B000010BDC046450500002D0500003001002045
:100B1000064B10B598470023984204D1044B9847E0
:100B2000044B1B685B68180010BDC04645050000FB
:100B30002D050000300100200020704737B5144B10
:100B40000D0014009847002821D1124B9847002827
:100B500003D1114B9847052019E0012C01D80F480B
:100B600000E00F480F4B1B68DB7B1B0700D46D02B6
:100B70000123802200932900230092000A4DA847F8
:100B80000028E6D00020094B1C80094B1C803EBD8C
:100B900045050000F10400002D05000011110800BA
:100BA0001211100030010020F1110000340100206A
:100BB0002A01002010B5074B0C009847064B00286F
:100BC00002D11880053003E000201988091B198024
:100BD00010BDC046ED1300003401002010B5114BCC
:100BE00004009847052300281AD00F4B002C02D090
:100BF00000221A8003E01A882300002A10D10B4B30
:100C00001B88012B03D10A4B9847002308E00021E1
:100C10000848094CA047011EF5D10648A047F2E755
:100C2000180010BD55140000340100202A010020D6
:100C30002D0500000C3100005913000037B5124B90
:100C40000D001400984700281DD1012C01D80F4831
:100C500000E00F480F4B1B68DB7B1B0700D46D02C5
:100C60000123802200932900230092000A4DA84707
:100C7000002803D1094B9847052004E00020084BC9
:100C80001C80084B1C803EBD4505000018910800E3
:100C90001991100030010020F11100002D05000015
:100CA000340100202A01002010B5074B0C009847A2
:100CB000064B002802D11880053003E00020198877
:100CC000091B198010BDC0465914000034010020D2
:100CD00010B50A4B04009847052300280CD0084B98
:100CE000002C02D000221A8003E01A882300002A78
:100CF00002D1044B98470023180010BDCD1400000A
:100D0000340100202D05000070B50E4B05009847FA
:100D10000323012814D0002807D0023B02280FD15A
:100D20000022094B5A5503000AE0074B5C5D002C7A
:100D300005D1064B280098472300820700D10223E3
:100D4000180070BDD506000037010020E90A000038
:100D500010B50020014B984710BDC046090D00009A
:100D600070B5054B0D00040098474000013828601D
:100D7000024B2000984770BD110B0000090D0000C8
:100D800010B50100014B0020984710BD610D000017
:100D900010B50020014B984710BDC046390B00002C
:100DA00010B50C4B140001229847002804D00238DB
:100DB0004342434101330BE0074B01212000984798
:100DC0000123002804D1054B9847431E9841C3B224
:100DD000180010BD3D0B0000B50B0000DD0B00003E
:100DE00010B50A00024B01000020984710BDC04614
:100DF000A10D000010B50C4B1400012298470028EB
:100E000004D002384342434101330BE0074B012138
:100E1000200098470123002804D1054B9847431E22
:100E20009841C3B2180010BD3D0C0000A90C000091
:100E3000D10C000010B50A00024B010000209847B9
:100E400010BDC046F50D000037B56B46991DFF2358
:100E5000094C01222000094D0B70A8476A46084B37
:100E600020001B88D11D012B01D1FD3300E0FC23A4
:100E700001220B70A84737BD3C010020E11E000095
:100E80003A010020F7B56B46FF240F4EDD1D01220D
:100E9000230029000D4F30002C70B8472300012299
:100EA00029003000B8470A4CFF23012229003000F6
:100EB000064F013CB847002C04D02B78FF2BF3D110
:100EC000012000E02000FEBD3C010020D11D0000FB
:100ED000410D0300F7B56B46DD1D00230F26114CB5
:100EE0002B70013C002C04D104220F4B20001A70FF
:100EF00016E0FF23012229000C480D4FB8472B783C
:100F00001800B04309D10721074A0B4001D01170E6
:100F100006E00B211800117002E0FE2BE1D1012048
:100F2000FEBDC04621A107007E0100203C0100203B
:100F3000D11D000037B56B46991D0123124D5B4250
:100F40000B8002222800114B98476B465C1D012242
:100F50002800FF2321000E4DA847112022781040C1
:100F6000012803D001220B4B1A700AE01E23134004
:100F7000042B07D0074A0A2B01D1023B00E00A23C9
:100F8000137000203EBDC0463C010020E11E000061
:100F9000D11D00007E010020F7B5134B1D882C1ECB
:100FA000012C1FD0114B01241988114B1868114BCB
:100FB0009847854216D86B46DD1DFF230E4F220051
:100FC00029000E4E38002B70B047FD232200290067
:100FD00038002B70B0470A4B9847041E02D10522F7
:100FE000084B1A702000FEBD3A0100207C01002051
:100FF00078010020214A00003C010020E11E000091
:10100000850E00007E010020F0B5002501263B4B37
:1010100093B01D7002AB1D705E709D7019002F2083
:10102000374B98470D2302AA9B1804ACDD770C229E
:101030002900344B0AA826706560A5602574657484
:10104000A674E6742575984780235B02E3602E4BF7
:101050002E4DA36201235B42E3622D4B2F68236375
:101060002C4B380063632C4BA3612C4B98471F23F8
:10107000184086402A4BDE67214B2A680093274B95
:101080000193D369002BFCD102263B682200B343B5
:101090003B602449244B280098472C68019B200082
:1010A00098471F2318401E3B8340204A13602B683B
:1010B000DD69002DFCD123681D4A1E4326600124F2
:1010C0001C4B1D4E107803A95D709D701870307018
:1010D000009B7570B5704C708D700C7098473178AE
:1010E0004B09CA0908D11F320A409440134ADB0158
:1010F0009B189C6113B0F0BDAD61FFDE7E01002046
:101100003D160000D74F0000030010003C010020F6
:101110000300120003001300801A0600491A0000A1
:1011200004E100E000140042051C000000E100E0C2
:10113000300000207F010020820100200044004197
:1011400000220E4B70B51A700D4B06000C1E9C420F
:1011500000D91C000B4D210028000B4B9847172885
:1011600002D1E308E41AF5E70321714308000749B7
:1011700001220918064B2800984770BD7E01002007
:1011800000127A003C010020791B0000820100203F
:10119000651E00000022054B10B51A70032358434A
:1011A0000349044B09180448984710BD7E010020EC
:1011B00082010020651E00003C01002037B56B460F
:1011C000DD1DFF2300220A242B70064B1A70013C00
:1011D000012229000448054BE4B29847002CF6D1BF
:1011E00037BDC0467E0100203C010020E11E00000A
:1011F000F0B589B00192FF22029304AB9A710022EC
:101200004C4B00901A703F23009C06A823404024BA
:10121000234303700B0E43700B0C83700B0AC370D7
:101220000925130001710821845C5B00DBB21E00FC
:101230006640360600D56B4001396400C9B2E4B29D
:101240000029F2D10132052AEDD101255B003A4C8B
:101250002B4306AF7B7104AB991D2A00374E20004B
:10126000B047390006222000B04704ABD91DFF2348
:101270002A002000324D0B70A8470725039404ABC9
:101280002D4FDC1D0122FF23210038002C4EB047DA
:10129000227853B2002B05DA013DEDB2002DEED1DC
:1012A000022205E00820274C1040226004D00622CC
:1012B000204B1A7000203AE004200300134001D0B4
:1012C0000922F5E701218A4302D01A4A1170F1E799
:1012D000009B9B0407D51C4B9847002803D1032291
:1012E000144B1A7023E0009B9B0507D500232100B7
:1012F00023600122FF333800114CA047009B5B059F
:1013000009D5104CFF230422210003980C4DA84757
:1013100023681BBA23606A460C4B928801201A800E
:101320006A460B4B12891A8000220A4B1A6009B0D8
:10133000F0BDC0467E0100203C010020E11E0000FF
:10134000D11D000088010020850E00007C010020D6
:101350003A01002078010020002213B5130000920A
:10136000014CA04716BDC046F1110000014B1868A2
:101370007047C046880100200022F0B5144B154E7E
:10138000154C85B001901A703188144D2068A8471B
:101390000096002914D0124FFF2301A9042238001F
:1013A000104EB0472368181D009B20601988A8477D
:1013B00000290AD1FF23022203A93800B04704E024
:1013C000094B98470028E6D100E0012005B0F0BDA8
:1013D0007E0100207C010020780100202D4B0000C0
:1013E0003C010020D11D0000D50E0000F0B5002505
:1013F0000C00124B85B001901D70002C1AD0104BC0
:101400009847013CA4B2002815D00E4F019B3A88A2
:1014100059190D4EFF230D48B0470D4A3B881168FE
:10142000ED18CB18136003A9FF230222064E0748CC
:10143000B047E2E7012005B0F0BDC0467E010020C4
:10144000D50E00007C010020D11D00003C010020D1
:101450007801002001207047F7B500240700134BE6
:101460001C7001934D1EADB200291DD0104B984742
:10147000104E39193288104B10489847104A33885B
:101480001168E418CB1813600E4B984700280CD055
:10149000002D07D00C4B9847002803D10523019A53
:1014A000137002E02900DDE70120FEBD7E0100206F
:1014B000490E00007C010020E11E00003C010020DC
:1014C00078010020350F0000850E000010B5054B97
:1014D0009847002803D10522034B1A7001E0034B03
:1014E000984710BD850E00007E010020990F000076
:1014F000030010B50120002B01D1014B984710BD0E
:10150000510D000010B50123002803D1024B080043
:1015100098470300180010BD810D00004342584158
:10152000C0B27047030010B50120002B01D1014B60
:10153000984710BD910D000010B50123040008006C
:10154000002C03D1024B110098470300180010BD76
:10155000E10D000010B5012304000800002C03D1A8
:10156000024B110098470300180010BD350E000013
:10157000094B196800290BD1EFF31080074A0028A6
:1015800005D172B6BFF35F8F054908700121117054
:101590001A6801321A6070478C0100209001002007
:1015A00031000020084B1A68013A1A601B68002BB2
:1015B00009D1064B1B78002B05D00122044B1A7071
:1015C000BFF35F8F62B670478C010020900100204E
:1015D00031000020F7B50023012501AC154F210093
:1015E00002206570A3702570B8470423124E2100B5
:1015F0007361002303206570A3702570B84708232A
:101600002100736103202570B84708232100B361CE
:1016100004202570B84710232100B36102202570F3
:10162000B84704232100B36105202570B847202363
:101630007361F7BD3D1600000044004107B58022EC
:1016400001AB1A700A785A704A789A708A78190031
:10165000DA70014B984707BDF927000003689A7AB2
:1016600052B2002AFBDB02211A880A431A80704713
:1016700003689A7A52B2002AFBDB02211A888A4355
:101680001A80704770B50500064B046898472A68B1
:10169000937A5BB2002BFBDB012223881343238068
:1016A00070BDC0467116000010B5CB88C4881B1BE6
:1016B0009C064B799A050B795B0413438A781203D5
:1016C000134302792343002A05D1CA78002A02D0A5
:1016D00080225202134348780A788001104318434D
:1016E00010BD30B5C3888C0EE318D3800F238C0D4A
:1016F0001C4054711F244D0C254015710579080BB1
:10170000002D02D00440947004E003409370CB039A
:10171000DB0FD3703F2388091840194050701170B7
:1017200030BD0000437970B50A000468002B03D077
:101730002169054B984770BD044B63800568AB7AFF
:101740005BB2002BF4DAFAE7E31600000080FFFF3B
:1017500070B517230D00141E012C0CD8074B06681A
:101760009847B37A5BB2002BFBDBE4003419A0612D
:101770002B7A23770023180070BDC046A9160000FD
:1017800037B50160202114001B4A0500936904202D
:101790000B439361022301A90B70184B9847042057
:1017A000174B9847174B2800984723792B71E378FC
:1017B0006B71E388EB80144B1D6021792A682388C4
:1017C000002901D0082100E048210B43A17800291D
:1017D00001D080210B431380E378002B04D08021BB
:1017E0005388C9010B43538021002800083100228F
:1017F000064B984737BDC04600040040252700002F
:101800009D2600008516000050040020511700009E
:1018100010B54908040000234020A1420BD3581CF6
:10182000091B80B28C4201D80300F8E74020FF2B4F
:1018300001D80020138010BD37B50D4B04001A7875
:101840001D00002A01D000290CD001A91320094B4A
:101850000C7098471320084B984701236C702B702D
:10186000002004E05B780800A34200D01D203EBDAC
:1018700091010020252700009D2600003A4A030020
:1018800000B5080093422BD006D8384A93420DD0B9
:10189000374A934217D057E0364A93423AD0364AF5
:1018A000934244D0354A93424ED126E00023032987
:1018B00057D803F0ABF84B020406314B51E0314BE3
:1018C0004FE0314B4DE0002303294AD803F09EF846
:1018D000400204062D4B44E02D4B42E02D4B40E0EE
:1018E000002303293DD803F091F8350204062A4B62
:1018F00037E02A4B35E02A4B33E00023032930D868
:1019000003F084F82A020406264B2AE0264B28E03E
:10191000264B26E00023032923D803F077F81F0283
:101920000406234B1DE0234B1BE0234B19E000234F
:10193000032916D803F06AF8140204061F4B10E0BE
:101940001F4B0EE01F4B0CE000230AE01E4B08E08B
:10195000032306E01D4B04E01D4B02E01D4B00E09D
:101960001D4B180000BDC046001000420008004298
:10197000000C004200180042001C0042001400420B
:101980000300050003000600030007000300010038
:1019900003001E0003001F000300090003000A00EB
:1019A00003000B00030011000300120003001300EA
:1019B00003000D0003000E0003000F0003001700DA
:1019C00003001800030019000300040003000800CE
:1019D0000300100003000C000300160070B586B071
:1019E0006946094B6A4670CB70C170CB70C1002349
:1019F00099005158814201D1D8B203E00133062B3E
:101A0000F6D1002006B070BDA85800007047000055
:101A1000F0B5094A094C1378002B09D11E00084F74
:101A2000084DE750EE500433182BFAD1173B1370D2
:101A300080002150F0BDC046930100209401002099
:101A40000D1A00005404002013B5040006220549B5
:101A50006846054B98472000044B98476B4618563C
:101A600016BDC046C0580000C54F0000DD1900007B
:101A700010B5024B00201B68984710BD9401002050
:101A800010B5024B01205B68984710BD94010020FF
:101A900010B5024B02209B68984710BD94010020AE
:101AA00010B5024B0320DB68984710BD940100205D
:101AB00010B5024B04201B69984710BD940100200B
:101AC00010B5024B05205B69984710BD94010020BA
:101AD000002210B54309C409944202D1DA01064B31
:101AE000D2181F2318401E3B8340002901D0936168
:101AF00000E0536110BDC0460044004170B5046869
:101B00000500094B200098471F2318401E3B8340C7
:101B1000064AD3672A68D369002BFCD102222368C6
:101B20009343236070BDC046491A000004E100E001
:101B3000036805201A7ED20703D50020C905C90D08
:101B40009962704730B50424036805001A7E10209E
:101B5000224210D05A8B0020224203D05A8B1E30D2
:101B600022435A83AA799B6A012A02D1DB05DB0D45
:101B700000E0DBB20B8030BDF7B56B469D1D002346
:101B800004002B80194B06680F0098472068C36932
:101B9000002BFCD1164B98471430164BC0B2984717
:101BA000154B01002A003800984703001720002B2E
:101BB0001AD12B7833732568EB69002BFCD10F4BBE
:101BC000280098471F2318401E3B83400C4A13608F
:101BD0002268D369002BFCD102222B6813432B60AF
:101BE0002368D8690028FCD1FEBDC046FD1A00005C
:101BF000DD1900004127000011180000491A0000FB
:101C000000E100E0F0B50500296014000A6889B021
:101C10000F001C23920700D5BDE001260B6833405E
:101C20000193019A0523002A00D0B4E008005B4B21
:101C30009847811C8E405A4A1430136A1E4316621C
:101C4000631DDB7F02AAC6B2137011003000554B32
:101C500098473000544B9847631DD87F0199534BE8
:101C600098474E4A23780192012B03D10C223B68FE
:101C700013433B602B002A0000210C33283202C39F
:101C800000269A42FBD12B003633AE86EE622E86BA
:101C9000AE621E705E709E70032328686B72019B9B
:101CA0002E7198470700424B42499847424BBF006C
:101CB000FD50802302AA13710123937123782F68AA
:101CC0005671D671B34200D193710026A36A049372
:101CD000E36A0593236B0693636B0793B30004AA2F
:101CE0009858F1B2002802D13800344B9847431C71
:101CF00006D002AB1871000CC0B203A9304B984754
:101D00000136042EEAD123786B71237CAB71A37C5E
:101D1000EB71237D2B7202AB9E1C00233380237852
:101D2000012B10D1019B286898471430254BC0B275
:101D30009847254B01003200A069984717230028D7
:101D400029D133783B73A3686268617C1A43E368E6
:101D50001A43237C002903D11C498978890701D5BE
:101D600080210A43A17C002902D0802189020B43F3
:101D7000E17C002902D0802189000B43217D0029CC
:101D800002D0802189010B4339680A433A607A689E
:101D900013437B600023180009B0F0BDDD1900007B
:101DA00000040040252700009D260000391800008F
:101DB000111A0000691F0000540400207D18000063
:101DC000F927000041270000111800000020004101
:101DD000F0B585B001930300009138331B780500FE
:101DE000D8B2052837D01720002A34D0EB79053037
:101DF000002B30D0002614006B79012B08D12A6803
:101E00000121137E0B42FBD001992800134B984708
:101E10002A680421137E0B42FBD002AB9F1D0023D6
:101E200039003B8028000E4B9847002813D10099B9
:101E30003A88731C8A55A9799BB2012904D100996B
:101E40000236120ACA54B3B2013CA4B2002C01D02B
:101E50001E00D1E7200005B0F0BDC046311B0000D8
:101E6000451B000073B50E004179050014001520D4
:101E700001292DD12A7A002A01D0002028E03078CB
:101E8000144B002C22D07478002C1CD02C68247E9B
:101E90000C4202D1984705201AE0110098470E4BDA
:101EA000B17828009847EB79002BE6D129680433F4
:101EB0000A7E1A42FCD06B460024991D2800074B6D
:101EC0000C809847D9E721009847D6E7984720002B
:101ED00076BDC046D11A0000311B0000451B000032
:101EE0000300F7B538331B780500D8B20F0005287A
:101EF00035D01720002A32D0002614002B6801218B
:101F00001A7E0A42FBD07218A97992B2BB5D0129F0
:101F100002D099B2160004E0B95C02360902B6B2EA
:101F200019430F4B28009847EB79002B09D02A68FA
:101F30000421137E0B42FBD06B462800991D094BF0
:101F40009847013CA4B2002CD8D16B792000012B1A
:101F500005D1296801330A7E1A42FCD00020FEBD5B
:101F6000311B0000451B0000F8B5684B8000C458C9
:101F7000230022003733363225681B7816781E403E
:101F80002B7EAF7D1F40FB073AD56279012A37D1FE
:101F9000637A002B0DD15E4B1B88AB62638E013BD5
:101FA0009BB26386638E002B00D12A756379012B67
:101FB00026D1637A002B23D0E06A21680378DAB255
:101FC000431CE362A379012B01D093B204E0437870
:101FD00002301B021343E062DB05DB0D8B62A38E34
:101FE000013B9BB2A386A38E002B09D101332B7535
:101FF000637A012B04D1E379002B01D10233AB7555
:1020000004210F425ED06B8B0B4215D0637A012BFB
:102010000CD023001E2238331A700323637202335C
:102020002B75330702D52000A36998470422AB6AB9
:102030006B8B13436B8345E0627A2368D2B29B6A51
:10204000012A12D1638E013B9BB26386638E9BB2E1
:10205000002B37D12975210038310B70033363729F
:1020600016422FD02000E3682BE0DB05A16ADB0DD0
:10207000DAB20A70A26A511CA162A179012904D1C5
:102080001B0A5370A36A0133A362238E013B9BB2E8
:102090002386238E9BB2002B14D12200383213707A
:1020A00004332B75627A022A04D11E420AD0200022
:1020B000636906E0637A002B04D1B30702D52000E0
:1020C0002369984702210F4214D06379012B11D163
:1020D000637ADBB2012B0DD1E279002A0AD129758E
:1020E00001316172210038310A701E4202D0200095
:1020F000E3689847FF0907D080232B752B7673067A
:1021000002D5636A20009847F8BDC04654040020F9
:102110006C04002010230249CA681A42FCD07047A0
:10212000000800400222F8B50026094D094C2B6832
:10213000094F13432B60A284B847AB68E3626B6816
:10214000A362A684B8472B6830009BB2A384F8BD75
:10215000AC010020000800401521000010B508283F
:1021600006D802F053FC0705052D2D110A14250091
:10217000002029E0154B186926E0154B15481B6A0D
:102180009B059B0FD8401FE0104B58691CE00223B1
:102190000E4C2068184017D00F4B984723685B07F8
:1021A00011D50E4B00209847A3689BB258430BE013
:1021B0000B4B00201B785B0706D5044BD86803E067
:1021C0008020000200E0074810BDC046AC0100209E
:1021D0000008004000127A0015210000412700008D
:1021E00050080040006CDC0270B50121867805784B
:1021F00042784020094C0A40236A920183431343EA
:1022000080223140C90193430B437D3A0449154074
:102210002D020B402B43236270BDC04600080040D6
:10222000FFFCFFFFF0B5224F4278067885B0BB8AED
:10223000039272425641427B8178C47805790192BB
:10224000027B0292827B806894461A4A5061B000F9
:1022500004260122B343184308231440B440154018
:102260009843ED000543DB189D432C431140103388
:1022700049019C430C434021029B8C4313409B012A
:102280001C43019B49181340DB018C431C4307236B
:1022900003990B4008491B020C401C4363461A403B
:1022A0001303064A22401A43BA8205B0F0BDC04665
:1022B00000080040AC010020FFF8FFFFFFEFFFFF28
:1022C000027A438992069B059B0D120C1A43194B07
:1022D00030B55A60C27984798188144342880A43B0
:1022E00041782243C90104780A431A60042C0ED1B4
:1022F000027B018A92060A431500C2890E49120424
:102300000A402A439A601A6814431C6010E0202C8B
:102310000ED1027B018A92060A431400C289064943
:1023200012040A4022439A601A6804490A431A6058
:1023300030BDC046AC0100200000FF0324040000B3
:1023400010B5082806D802F061FB130505270D1902
:10235000071F2200172020E00221104A136A0B43B6
:10236000136219E002210D4A93690B43936113E054
:1023700002210A4A138A0B4313820DE00221074A05
:10238000938A0B43938207E0054B984705E00221AF
:10239000044A13780B431370002010BD000800405E
:1023A0002521000044080040C2231E22F0B500246D
:1023B000444EDB004449B3604B6891B093431C3AF0
:1023C00013430BAD4B602A70404FE0B2290001343B
:1023D000B8470197252CF7D1802207A812020023C5
:1023E0008260012203708370C37002710373837370
:1023F00002324373364B427098470520354CA04754
:102400000223F1682F4A1942FBD08021938A0B43A3
:10241000938200233F226B80AB80AB71EB716A81AA
:102420006B703B3A2C4B2A701B689B0E3F2B00D1E4
:10243000203B2B72294B01272B8207232B73383328
:10244000EB8128000025264B984703A8254B877071
:102450004570057098470620A047234B98470523F1
:1024600004AC210038002370204B67606570257232
:102470006572984738001E4B984721002800019B41
:102480002770984728001B4B98471B4B9847D02133
:10249000164A174FF3680B40D02BFBD10025174B82
:1024A00021001D725D729D72DD7201232800636040
:1024B0000633237065702572657290472800B8470F
:1024C00011B0F0BD00080040004000412527000089
:1024D000252200004123000024608000B90500008F
:1024E000C1220000E92100000D2500002D2500007B
:1024F000D52500009D260000252100000004004095
:10250000014B5878C0097047000C00400821054A6B
:1025100093690B4393610123034A137011781942A5
:10252000FCD1704700040040000C0040F8B50C7866
:102530004B782402060005000443002B02D08023C0
:10254000DB021C434B7A002B02D080231B031C436D
:102550004B68012B13D95D1E1D400222002D09D1AD
:102560009A4202D201355200FAE780232D02354308
:102570005B0303E01D02802335439B021C430B7A5F
:10258000002B02D080239B031C430D4FB84700282B
:10259000FBD10C4B98470C4B1E70B8470028FCD160
:1025A0000A4B9D601D00B8470028FCD180236A6853
:1025B0005B0213401C436C60054B9847F8BDC04656
:1025C0000125000071150000080C0040000C0040BF
:1025D000A515000070B50500094CA0470028FBD1E7
:1025E000084B9847084B1D70A0470028FCD180215C
:1025F000064A490253680B435360054B984770BD28
:102600000125000071150000040C0040000C004082
:10261000A5150000F7B50700184EB0470028FBD1FC
:10262000174B9847174B1F700193B0470028FCD1F8
:10263000154D164B6868C004C00E98470400019BF6
:102640001F706B68DB02DB0F0193114B1F70B047EB
:102650000028FCD1AD680F4B9847019B2D022D0C33
:10266000002B07D1012D07D9200029000A4B9847DC
:10267000040001E00135EC402000FEBD0125000012
:1026800071150000040C0040000C00405D210000AA
:10269000080C0040A5150000214A000010B50400F8
:1026A000064B98478021064B064A1C705388C90187
:1026B0000B435380044B984710BDC0467115000072
:1026C000020C0040000C0040A515000070B504008D
:1026D0000E4B98470E4B0F4A1C700F4B5988588869
:1026E0000905104058805C880C48090F2040802460
:1026F0005880E4015D8808482542FBD144880B02DC
:1027000022401A434280064B984770BD7115000065
:10271000020C0040FFF0FFFF000C0040FFBFFFFF76
:10272000A515000010B50C78034B2402044398470C
:10273000024BA4B25C8010BDCD260000000C00400E
:1027400010B50400064B9847064B1C70064B5C887E
:10275000064B2405240F98472000054B984710BDD1
:1027600071150000020C0040000C0040A51500008F
:1027700015260000D37830B5002B1BD11478802C9F
:1027800003D0802324065B02234302255478AC4304
:1027900009D19478002C02D18024A40201E0C02445
:1027A000E402234341605478013C012C04D8114CCD
:1027B000234001E000234160A0258CB2ED052C43AD
:1027C000D0251C4384622D060C0C2C431C438462D0
:1027D000D478002C0CD15B0305D59378012B01D163
:1027E000816100E041615378013B012B00D8816099
:1027F00030BDC046FFFFFBFF10B50A0004004309CF
:10280000C1090020814202D1D801054BC0181F2305
:102810001C401E3BA3401900024B984710BDC04608
:102820000044004175270000012307B5002201A9DB
:102830004B700B700220054B8A7098470422044BA2
:102840005A61044B9847044B984707BD3D1600005A
:1028500000440041A9230000D5150000FEE7000058
:102860002148224970B5884202D00023204C03E061
:10287000204B214A002106E0CA18A242F8D2C558CE
:1028800004331560F8E7934201D202C3FBE7FF214E
:1028900002240325194B1A4A8B430C269360082205
:1028A000184B19495C62CB78AB432343CB70CB7890
:1028B000B3431343CB703021144B987B88431039BA
:1028C00008439873997BB1431143997380219A7B94
:1028D000AA4322439A730E4A53680B4353600D4B2D
:1028E00098470D4B9847FEE73C630000000000202E
:1028F00098000020A0000020300900200000000007
:1029000000ED00E0FC700041005000410048004133
:1029100000400041794F00003D470000054B020098
:102920001968002901D104491960186882181A60D1
:102930007047C046C401002030290020A02330B5D4
:1029400087B001AA1B0113800023FA219370D37072
:1029500053729372D372164BC9000400D1800420C5
:102960000121D3810623134D11711072117351731C
:1029700013742800104B114998472800104B9847B2
:10298000012C01D9012010E020000E4DA84703289A
:1029900003D12000A8470328F4D00028F2D10A4B25
:1029A00020009847431E9841800007B030BDC046C4
:1029B000DE070000700400208117000000140040B2
:1029C0005D160000F114000025150000054B10B540
:1029D0009847031E03D00323022800D0023B1800AF
:1029E00010BDC046F1140000F0B587B00293174B3C
:1029F00007000D0014009847061E01D1012022E0B7
:102A0000134B05A938009847029A059B724301337E
:102A10007343121904209A4215D8730203930023BA
:102A20000193019B029A93420CD02A002100094B8A
:102A300038009847039BA419ED180028DED1019BAC
:102A40000133EDE7002007B0F0BDC0461D150000C2
:102A50000515000039150000F0B587B00293174B3B
:102A600007000D0014009847061E01D1012022E046
:102A7000134B05A938009847029A059B724301330E
:102A80007343121904209A4215D87302039300234A
:102A90000193019B029A93420CD02A002100094B1A
:102AA00038009847039BA419ED180028DED1019B3C
:102AB0000133EDE7002007B0F0BDC0461D15000052
:102AC000051500005515000037B504230500140056
:102AD000032924D8080001F099FF1C040D020123EA
:102AE00005E0104B01A928009847019B01332360A2
:102AF000002314E00C4B28009847431EDBB2012B47
:102B000004D9FB2204380123104208D1002323708A
:102B100005E0064B28009847031E00D00323180049
:102B20003EBDC046051500001D150000F114000053
:102B300007B50E4B0E48694698476B4658791B7986
:102B400040051B0418436B461B780A4A18436B4622
:102B50009B78DB0218436B465B785B0118436B463E
:102B6000DB889B185B0618430EBDC0462517000086
:102B70007004002044F8FFFF002310B59A4203D0F0
:102B8000CC5CC4540133F9E710BD010000230B31C4
:102B90005A08DB011343027801309B18DBB28842EC
:102BA000F6D118007047036801001A1E14D010787F
:102BB0001F2803D93A2803D00132F8E700200DE09E
:102BC000581C824208D11B78303BD8B2072803D862
:102BD000013218000A6001E0012040427047000005
:102BE00010B5002810D00368002B0DD01A78002AE9
:102BF0000AD0D9888288914206D15878034B9847E9
:102C000001230340181E00D0092010BDCD2900006B
:102C1000CB7E0200887E1B021843032A05D14B7D20
:102C20000A7D1B0213431B0418437047F7B50700C6
:102C3000C56A3037012304002A00407839000F4E5E
:102C4000B0470123002817D1236AA2692071EB1A2B
:102C5000934201D300230FE0E3780193019B012B02
:102C6000F8D9A3696078ED182A0001233900034ED2
:102C7000B047019B013BF0E71800FEBD592A000058
:102C8000002310B502799A4202D0024B9847030004
:102C9000180010BD2D2C0000F8B5C36A04000E000A
:102CA00000258B4210D0094B9847051E0CD12100FE
:102CB0006078012332003031054FB847002802D038
:102CC000012601357642E6622800F8BD812C00001D
:102CD000E9290000002310B50371013BC362164BC4
:102CE0000400984701000320002924D1134B144A03
:102CF000E35CA25C1B021343124A1BB201389342ED
:102D000019D1230066331A885B8808001B0413431B
:102D10000D4A1B021B0A93420DD0230084348233D8
:102D200020881B88000418430002084B000AC018C2
:102D3000431E9841C0B210BD992C00002F02000024
:102D40002E02000055AAFFFF46415400BABEABFF59
:102D50000023F0B5036089B09B4B07000800160004
:102D600098470B23051E00DA2BE1984B8200D458BC
:102D70000C23002C00D124E13C602378002B0DD0E3
:102D8000934B607898470123034007D1002E00D170
:102D900017E1420700D414E10A2312E10023E8B24C
:102DA000237060708B4B98470323C20700D508E15E
:102DB000002E01D04307EFD400212000864EB047FB
:102DC000012828D125000027F735FF352B1F1A7859
:102DD00000239A420AD06A782878AB78120202431C
:102DE0001B0413431A00EB781B06134304AABB50C1
:102DF00004371035102FE9D1002704ABDD5902202C
:102E0000002D04D029002000B04700280CD0043742
:102E1000102FF2D1D1E00123032800D1D1E0002806
:102E200001D00D23CDE00500230022003C331B78A8
:102E30003B3212781B02134380221BB29200934252
:102E4000EFD12300220047331B78463212781B0251
:102E5000134300D1636D0293029BA36123004033AF
:102E60001B785A1EE370012ADBD822003D3211780C
:102E7000A1700029D5D04A1E1142D2D122002000D3
:102E80004232127841300078120210436A460190B3
:102E90009288228102001207C3D1220044321078A6
:102EA000013A12780002104300D1206D22003F3217
:102EB0001678013A127836021643B2D0029A5A4373
:102EC000019B03921F09BF19BF18B842A9D3C01BA9
:102ED000424B98470028A4D04149831C76197A199F
:102EE00088420ED93F4988425ED9A262019A636145
:102EF000E5612662002A94D1E26D9B00626203279D
:102F00000DE00127A262019A6361E5612662002A51
:102F100087D0039A96196662022F47D15B00324A26
:102F20009B18029A5B0A9A4200D27AE701235B421D
:102F30002361E36081336371032F2CD123002200CE
:102F400061331B78603212781B021343012B22D1AC
:102F5000691C2000254B984700281CD1244B607128
:102F6000244AE35CA25C1B021343234A1BB2934234
:102F700011D1224B226B9A420DD185239B00E2583E
:102F80001F4B9A4207D186239B00E3582361872376
:102F90009B00E358E3601B4A2770138801339BB200
:102FA0001380E38000230CE00227ABE70322012714
:102FB0005A433B405208D318B1E70123032800D0FD
:102FC0002FE7180009B0F0BDA72B0000CC030020AC
:102FD000CD2900003D290000D52C0000214A000029
:102FE000F50F0000F5FF0000FF010000992C000024
:102FF0002F0200002E02000055AAFFFF525261412D
:1030000072724161C803002070B52E4B04009847CE
:10301000002856D12378032B4BD16379012B48D15B
:1030200021008C2230310B009200A2189A4202D06B
:1030300018700133FAE75522234B4120E254234B09
:103040009218E2542200DE3BFF3B31320B701370CA
:1030500023006122323385251A7058707223AD0027
:1030600063551B4D63551B4B1B4DE0541B4BE254EA
:103070002369B832FF32A354194A1812A054194ACE
:10308000180CA054184A1B0EA354E3680132A35431
:10309000164A1812A054164A180CA054154A1B0EB2
:1030A000A354E36960785A1CE2620123A847002315
:1030B00063710022104B607811009847431E9841BD
:1030C000C0B270BD812C00002E0200002F02000053
:1030D0001502000016020000592A00001702000025
:1030E000190200001A0200001B0200001D0200006D
:1030F0001E0200001F020000C92A000042690239B6
:10310000023A03000020914203D298784143986A22
:1031100008187047F7B5012405000E1EA64264D9B1
:103120004369994261D20378022B2DD0032B40D002
:10313000A3425AD14F08036A7F18790AC9182C4B49
:103140009847002802D0012464424EE07B1CFF0512
:10315000590A0193FF0D2B6AEF193037C91828005F
:10316000234B3F7898470028EDD1019BDB05DB0D11
:10317000ED1830352B781B021F43264201D03C0945
:1031800033E03F053C0D30E0036A090AC918184BCB
:1031900098470028D7D1FF2376005B001E403300FC
:1031A0003033EB18AE195C783036337824021C4388
:1031B0001BE0036AC909C9180D4B98470028C2D102
:1031C000FE23B6005B001E4032003032AA18D478CD
:1031D000937824061B041C435378AE191B02303627
:1031E0001C4333781C43240124092000FEBDC04643
:1031F000992C0000F8B50500E98084680E00012CC8
:1032000001D1022036E003685A699442F9D2002CB9
:103210000BD11A78032A02D15A6A002A04D11A89DA
:103220009642EED2586A15E014009F783F012100C3
:103230002868BE420CD3104B98470400431C18D09A
:103240000128DED92B685B699842DAD2F61BEEE7DB
:103250000A4B9847EC600028D3D00F213309181887
:103260002B683140303349015918286169610020C9
:1032700000E00120F8BDC04615310000FD3000001F
:10328000F7B504000E0015000220012979D9636901
:10329000994276D223780093834240D0032B52D0B8
:1032A000012B6ED14B085B180193590A236A354FE5
:1032B000C9182000B8473A00002862D1019B009944
:1032C0005F1CDB05DB0D0E40E318E9B2002E07D0D2
:1032D0001900303108780F21014028010143C9B29B
:1032E0003033197001232371236A790AC918200029
:1032F0009047002845D1FF05FF0DE719002E02D0A9
:103300002D09EDB208E03B0030331A780F232D0A67
:103310009A432B401A43150030373D702FE0236A43
:10332000090AC9182000174B9847002829D1FF2304
:1033300076005B001E40A319303330361D70A6198D
:103340002D1275701BE0236AC909C91820000D4BA6
:103350009847002815D1FE23B6005B001E403300BD
:103360003033E318DA78A6191209120715432A1226
:10337000303635705A702A0C2D0E9A70DD7001238C
:103380002371FEBD992C0000F8B505000E1E06D174
:10339000C768002F11D043699F420FD30DE0234B24
:1033A0009847012840D9431C02D1012040423CE00B
:1033B0006B693700984201D237E001273C006B6906
:1033C00001349C4204D3012F01D800202DE00224B7
:1033D00021002800154B9847002806D0431CE4D054
:1033E000012821D0BC42EAD1EFE7114A2100280090
:1033F000104FB847002815D1002E0AD12B69EC6078
:103400005A1C0DD00122013B2B616B7913436B7168
:1034100006E0220031002800B8470028EED001E085
:10342000200002E00128C0D00120F8BD15310000C5
:10343000FFFFFF0F81320000F7B5C6880400013698
:10344000B3B20F00002B01D104206BE00369002B05
:10345000FAD00F22324000925CD1C168013303617F
:103460000068002903D103899E42EDD252E083789F
:103470003209013B1A424DD12B4B9847051E012DB5
:1034800001D802204EE0431C01D101204AE020680F
:1034900043699D4238D3002FD6D0E168234B98472B
:1034A00005000720002D3DD0012DEAD06B1CECD08B
:1034B0001F4F2068B84701970028E6D123688C2168
:1034C0001A00890030325B189A4202D01070013223
:1034D000FAE7276829003800164B9847F86200275A
:1034E00023689A7897420CD201221A712068019BB6
:1034F00098470028C9D122680137D36A0133D362C3
:10350000EEE7DA6AD71BDF62E56029002068094B25
:103510009847206100202268009B30325B01D3185D
:10352000E6806361FEBDC0461531000089330000AE
:10353000812C0000FD300000FF220123F0B50600C1
:10354000140089B05B4203840192059331693068AD
:103550004B4B9847002800D08FE075692B78002BE3
:1035600000D185E0E52B75D03F22E97A0A400907B2
:1035700002D50F2A6ED101E00F2A54D1F2690392CD
:10358000002A6DD040210B4205D08B431C00F388EC
:103590006A7B338402E0A34261D1019A6B7B019381
:1035A00093425BD1EB7EAA7E1B0213431BB2002B1E
:1035B00055D13F222F7802931740013F323A5743AB
:1035C0000C3A304B0299C95C6B185B78695C1B0242
:1035D00019430491002A12D0FE2F40D808002A4B2C
:1035E00098477B1C0693039B7F000790F85A264B55
:1035F0009847079B834232D1049A069F03E0234BEE
:10360000049999422BD1029B013302930D2BD8D1FF
:103610002B785B062ED5002A2CD0039B7F00FB5A0B
:10362000002B27D01BE0002C05D1194B2800984710
:10363000019B98420CD00123B269D17A0B4009D189
:10364000581CE95CD35C994204D1031E0B2BF7D1C3
:10365000002012E06B469B8A338400E00192FF2435
:10366000002130000B4B9847002800D16EE704E0A2
:10367000042002E0013CE4B2F2E709B0F0BDC0462C
:10368000992C0000565900009D410000FFFF0000EA
:103690008B2B000039340000F0B50B7887B00700A1
:1036A00001912F2B01D05C2B02D1019B013301939F
:1036B0000024019BBC601B781F2B08D82100380018
:1036C000964B98477C6126E1019B01330193019B56
:1036D0001B782F2BF8D05C2BF6D00025FB690593C7
:1036E000019B6C1C585D1F281CD92F281AD05C2800
:1036F00018D0FF2D00D107E10121894B9847002800
:1037000000D101E17F2808D800238649CA5C002A3D
:1037100003D001339042F9D1F6E0059B6D00585378
:103720002500DDE7019B1B19019300241F23834221
:103730006441A400002D00D1E6E0059A6B00D31887
:103740009A1E1288202A01D02E2A01D1013DF1E7CC
:1037500000221A80BB691A000B32934203D0202149
:1037600019700133F9E7002305995A008A5A202A73
:1037700001D10133F8E72E2AFBD0002B06D003221B
:103780001443E4B202E0013D002D05D06A00059922
:10379000023A8A5A2E2AF6D10822029200221600F4
:1037A00004925A1C0392059A5B00985A00285CD038
:1037B000202804D02E2807D1039BAB420CD0032332
:1037C0001C43E4B2039BECE7049B029A934208D2A9
:1037D000039BAB421ED199E0049B029A934200D214
:1037E00094E0029B0B2B05D103231C430833E4B266
:1037F00002933AE0039BAB4205D003231C43039B97
:10380000E4B2AB4231D80B23B6000293F6B2039573
:10381000033B28E07F280DD90021414B9847002821
:1038200003D0414B18188038007802231C43E4B2BF
:10383000002807D000233D49CA5C002A07D0013385
:103840009042F9D103231C43E4B25F2006E0030059
:10385000413B9BB2192B4DD802231E43BB69049AEE
:103860009854130001330493ACE7BB691A78E52A36
:1038700001D1E03A1A70029B082B01D1B600F6B2D2
:103880000C2333400C2B02D0F243920702D10222C8
:103890001443E4B2A2070BD403221640012E02D136
:1038A0000D321443E4B2042B02D104331C43E4B2BE
:1038B000BB690021DC723800184B9847002802D100
:1038C00038001B4B9847BB69DB7A002804D00428DA
:1038D00021D103420CD01EE05B071CD47969CB7A5E
:1038E000DB0605D53B681878124B9847B860EEE6C2
:1038F000052010E00300613B9BB2192BAED80123D9
:1039000020381E4380B2A9E7062004E0029B0B2B5F
:1039100000D078E768E707B0F0BDC046F531000099
:1039200061410000C6580000D6580000CF58000082
:1039300039350000112C0000F0B5C36989B08669E3
:1039400005AD00930400884B28000C2231009847F5
:10395000EB7A01252B425BD00023F372E361824BAB
:103960000B2205A9300098472B1E052B15D900996D
:103970000A88002A11D01020023101271740BC46C6
:1039800080275B0063447F0252083B4201D0774F9F
:103990007B4001380028F0D1EAE70F2107228C464E
:1039A00003A967461F4038003030392800D9073056
:1039B000013A8F1878701B09F3D17E2088549A42FF
:1039C00008D0F05C202805D00133F8E7F05401332B
:1039D000072B05D82020072AF8D8885C0132F5E7A4
:1039E00000212000624B9847002809D12000614B3C
:1039F0009847002804D10135642DB0D10730B0E0DC
:103A0000042800D0ADE005ABDB7AF372009BE361E4
:103A100005ABDB7A012500209B070BD5009A4300FC
:103A2000D35A002B01D00130F8E719300D21524B49
:103A300098470500002120004D4EB047002800D0D7
:103A40008CE00700216920684C4B9847002800D083
:103A500084E063691B78E52B01D0002B06D1013788
:103A6000BD4204D1013D002D5AD007E007000121DD
:103A70002000434B98470028E4D06FE0E188200005
:103A8000491BB04700286CD1A0693E4B9847019074
:103A900021692068394B9847011E62D1EAB2009231
:103AA0006A46E36912799C4663695A730F22DA7297
:103AB000FF2218739876D8760D202A40013A4243A7
:103AC0000800314EB04203D066465000805B0132A0
:103AD0002E4E8E5D98559E193700060A7E7000287E
:103AE00000D1294801310D29EBD12749884204D062
:103AF00061465200525A002A03D1402200991143D4
:103B000000916A46127800211A7001232268200071
:103B100013711B4B9847002823D1013D002DB7D1CD
:103B200021692068154B984700281AD163691A004B
:103B300020329A4202D018700133FAE70B226069F2
:103B4000094BA1699847A3690020DA7A182313402A
:103B500062691373012223681A7102E0042800D1FC
:103B6000033009B0F0BDC046792B000021100100E0
:103B7000F531000039350000214A0000992C000081
:103B8000393400008B2B0000FFFF00005659000065
:103B9000F8B504000D1E012D01D8022024E0436970
:103BA00001279942F9D263699D4205D2290020007C
:103BB0000E4B9847061E01D1002015E00128ECD0DD
:103BC000431C10D0002229002000094B98470028F0
:103BD0000AD123695A1C04D00133236163793B4322
:103BE00063713500DFE70120F8BDC04615310000E4
:103BF000813200001FB5124B019003A81400009100
:103C0000039198470B22002817DB0E4B8000C25807
:103C1000002A01D000211170019A002A01D0002150
:103C20001170019919500A1E07D00022012C04D1ED
:103C3000694601A8044B98470200100004B010BD6B
:103C4000A72B0000CC030020512D0000F0B591B04F
:103C50000500039117000920002D00D198E00023F2
:103C60001E222B603A4003A907A84A4B9847002818
:103C700000D08DE004AB0D93474B03990E9307A83A
:103C8000464B98470C9C002802D1002C00D10630EE
:103C90001F261C233E401F424CD000280AD0042877
:103CA00076D107A83E4B9847002871D108230C9C79
:103CB0001E4306E01123E27A1A4268D108207B07EE
:103CC00066D4330744D5374B98470027030CDBB243
:103CD0000212C1B2D2B22374000E2376079BA173E5
:103CE000E273A175E27560746076E7722777677793
:103CF000A777E7771878019321002B4B984701238A
:103D0000019AA776E7762775677502901371B84216
:103D10001CD00100254B1000D76A9847002837D1E6
:103D2000029B0798013BC3603900214B984700284C
:103D30000AD02DE000282BD1E37A0420DA0627D41C
:103D4000BA0701D5DB0722D4330701D520231E4350
:103D5000079F2100FB6AAE710026EB612C62EE71B9
:103D60003878114B98472861627F207FA37F120229
:103D700002431B0413431A00E37FAE601B06134388
:103D8000EB60AE612F60FB883000AB8000E0072065
:103D900011B0F0BD512D0000C8010020993600007F
:103DA00039390000312B0000112C0000913B00003C
:103DB000992C0000F0B585B0039300231500039AF9
:103DC00004001360534B01919847002800D09EE0F7
:103DD000E079002800D09AE0A3790730DB0700D40F
:103DE00095E0E368A2689F1AAF4239D92F0037E007
:103DF000A368DA0579D120685A0A8678013E164010
:103E0000F6B2002E2FD02368616902931800424B4E
:103E10009847002830D0831900937D0A44D0029B34
:103E200072199B789A4200D99D1B029B009A587880
:103E300001992B00394EB047002821D14022A379A7
:103E4000134222D16D02019B039A5B190193A3686F
:103E50007F1B5B19A360039B1B6800935B191360B6
:103E6000002FC5D152E0002B01D1206902E0616929
:103E70002B4B9847012801D8022002E0431C02D1B5
:103E80000120E07143E06061BDE7A369009A981AE0
:103E90008542D7D921008022019B40021818920048
:103EA0002431204B9847CDE7A269009B93421AD05A
:103EB0004021A3790B420CD02100029B2431587879
:103EC000194D0123A8470028DAD14022A379934352
:103ED000A37121002368009A5878243101230F4DE3
:103EE000A8470028CCD1009BA361A3683D00D90559
:103EF0008023C90D9B005B1A9F4200D91D006118E9
:103F000024312A000198074B98479CE7380005B0F8
:103F1000F0BDC046E12B0000FD300000E9290000A3
:103F200015310000792B0000592A0000F8B5274B05
:103F300004009847061E46D1A3799A0643D540252A
:103F40002B420DD021002368214E5878A26901230D
:103F50002431B0470126002835D1A379AB43A371A2
:103F6000E16920681B4B9847061E2CD12027256A43
:103F7000EB7A3B43EB72237B2B77E3681B126B7767
:103F8000E3681B0CAB77E3681B0EEB7723691A120F
:103F9000AB761B0C2B751B12EA766B750E4B984794
:103FA0000312A875EB75030C000EAE74EE742B763D
:103FB0006876A3792268BB43A3710123137120683B
:103FC000064B984706003000F8BDC046E12B0000C4
:103FD000592A0000992C0000312B00000930000004
:103FE00010B5064B04009847002805D12000044B6B
:103FF0009847002800D1206010BDC0462D3F00002A
:10400000E12B0000F7B54F4B04000D009847002846
:1040100000D095E0E079002800D091E0E368AB4261
:1040200003D2A279920700D41D000022A368A260E7
:1040300095427BD02768BE787602002B14D0013BD6
:1040400000933100404B681E98473F4B0190310070
:1040500000989847019B834206D3009A73421A4006
:10406000A260AD1A616911E0216900290DD1380003
:10407000364B9847011E012901D1022002E0431C62
:1040800002D10120E0715BE020616161022700291B
:1040900016D1002528E0A37920683B4213D02B4B92
:1040A0009847011E13D04B1CEBD00129E5D923689A
:1040B0005B699942E1D2A36861619B19A360AD1B62
:1040C000B542E8D804E0224B98470100EBE7350001
:1040D000A3685B19A360EB05DBD020681D4B9847F4
:1040E0000028CAD06D0A2D18A368DB051ED0A2696E
:1040F00095421BD026004021A37924360B420BD0D9
:10410000236831005878144F0123B8470028B8D1EC
:104110004022A3799343A3712368310058782A0081
:1041200001230E4EB0470028ABD1A561A368E26819
:104130000020934204D92022E360A3791343A371A2
:10414000FEBDC046E12B0000214A0000893300007B
:1041500015310000FD300000592A0000E929000057
:1041600010B57F2816D9002906D0FF2811D880382D
:10417000094B4000C05A0DE0074A4C00A45A8BB2CC
:10418000844203D001318029F7D10B008033D8B2AB
:1041900000E0002010BDC046405D0000F0B57F2863
:1041A00006D80300613B192B18D8203880B215E0DF
:1041B000F7250C2200210A4E6D006B1A5B08CB1804
:1041C0005C00A75BB84207D001D81D0000E01900D1
:1041D000013A002AF1D101E0024BE05AF0BDC0469D
:1041E000405E000064590000F8B580231F4C5B015D
:1041F000C20701D5A36100E0636180239B018207B0
:1042000001D5A36100E0636180231B02420701D551
:10421000A36100E0636180239B00020701D5A361D5
:1042200000E06361124B0020984700270600002140
:104230001048114A801979410023104DA8470425E0
:104240000F4EB047A5613800094B98473B0002006C
:10425000002192185B410748084F80185941064ACF
:104260000023B847B0476561F8BDC046004400412F
:1042700015260000BFCF6A00C0CF6A000D4D0000B8
:104280000100002010B50B4B186A1A6A196A1C6AE3
:104290000123520B1A409A40C90B19408900640A45
:1042A000000B18400A4323400243DB001A4310006E
:1042B00010BDC04600440041F0B50123002585B083
:1042C00003AC3B4E21000C2063702570A570B047F5
:1042D00021000D20B04721000F20B0472100092008
:1042E000B0478023334A1B0593612800324B98471F
:1042F0002B00020000213148314F80185941314ACA
:104300000023B847304B984704232A4A280093617A
:10431000294B98472B00020000212848284F80187D
:104320005941284A0023B847274B9847274B9847BD
:104330000423204A0190536128001F4B98472B000B
:10434000020000211D481E4F801859411D4A0023BC
:10435000B8471D4B98470423164A28009361164B13
:1043600098472B00020000211448154D8018594130
:10437000144A0023A847144B9847144B984704232A
:104380000C4A210053610500033B0C202370B04709
:1043900021000D20B04721000F20B0472100092047
:1043A000B047019B18010543E8B205B0F0BDC04617
:1043B0003D1600000044004115260000BFCF6A00F2
:1043C0000D4D0000C0CF6A000100002085420000B2
:1043D0000823F7B506001C4C019163611B4B9847FD
:1043E0000306FBD40823002E01D0A36100E0636123
:1043F000174B002098470027060000211548164A51
:10440000801979410023154DA847154EB0478023E8
:104410001B05636138000E4B98473B0002000021EA
:104420000C480E4D801859410B4A0023A847B0474D
:1044300004236361019B0B4C1809A0470F20019BCB
:104440001840A047F7BDC04600440041B9420000F3
:1044500015260000BFCF6A00C0CF6A000D4D0000D6
:1044600001000020E94100000139CBB210B5002164
:10447000022B01D8054AD15C013808188021494235
:104480000143C9B20020024B984710BD1C620000D6
:10449000D1430000382370B50C004021C000184003
:1044A0000143064D00202600A84708362178012048
:1044B0000134A847B442F9D170BDC046D1430000D1
:1044C000F0B50123002685B003AC474D2100032041
:1044D00063702370A670A84721001B20A847210005
:1044E0000220A84721000C20A84721000D20A84742
:1044F00021000F20A84721000920A84708223B4B94
:1045000030005A61802212055A6104225A61384BE8
:104510009847384C0F2200233100A0470027364E21
:10452000364C374A002380197941A0470324354B84
:104530009847009601970320334FB8472C4B002033
:1045400098472C4D052200230021A847009A019B83
:104550002A4E80185941013C294A0023B047E4B251
:10456000284DA847002CE6D10220B8472000204B58
:104570009847204F052200232100B84700231E4AF8
:10458000801859411E4A0023B047A8471F4D2000FC
:104590002821A84720000C21A84720000121A84776
:1045A00020000621A8471A4D1A4E29002000B047C6
:1045B000290001200831B047290002201031B047FE
:1045C000290003201831B047290004202031B047CA
:1045D000290005202831B047202221000E4B0F482A
:1045E000984705B0F0BDC0463D16000000440041AC
:1045F000152600004D4D0000571B00000D4D00001A
:10460000581B000001000020E9410000D1430000D8
:104610001F62000095440000D74F0000780400207E
:10462000F8B500210120114EB04700242027104B7F
:10463000E2181178002900D11770195D01200D4D85
:104640000134A847102CF2D1012120270800B047DF
:10465000094C0A4E2378002B00D1277021780120C5
:104660000134A847B442F5D1F8BDC0466944000002
:1046700078040020D1430000880400209804002022
:10468000802310B51B021A6882F30888024A9360DF
:10469000024B1B68984710BD00ED00E0048000004D
:1046A000F8B532230E00DF2158431A4B1A4DC018BB
:1046B0008902A84701368019C4B25020174B6421E3
:1046C00060439847C7B2052106003800A847052176
:1046D000C5B2134B38009847CFB2002E04D1102238
:1046E00031001048104B9847002305260F49DAB2D5
:1046F0000800954203D9CA1816740133F7E7002F52
:1047000001D04D192F74220009490A4B98470A4BD2
:104710009847F8BD0000E7FF214A0000354B000034
:104720002D4B000088040020D74F000078040020A3
:104730004F620000E94F000021460000F0B58F4BAA
:1047400089B09847002206A88D4B02705B68C27042
:10475000DB061B0F83708B4B0271427098478A4AAD
:10476000137801925BB2002B04DB1378022293438F
:10477000019A13700023854DAB602B7BDB0709D4B6
:1047800004222B88134205D180235B006B802B8889
:1047900013432B808026FF273602BF027C4C402229
:1047A000210030007B4B98470528F7D00023774A3B
:1047B0006988890701D1E15C0EE051888907890F7A
:1047C000012902D15900615A06E051888907890FF1
:1047D000022902D1990061585160C046C046C046C6
:1047E000C0460133402BE3D14036BE42D6D16B8860
:1047F0009B049B0EDAB2012A01D1644A137304218F
:10480000AB682A889BB28A432A8000226A80624D64
:10481000934200D1A847A847604B9847604B984700
:10482000604B614961489847614B98470020614B54
:104830009847011E19D00128F8D100205E4B9847F7
:104840000228F3D05D4B002098470A2200235C4DDC
:104850000021A84700235B4A5B4D801859415B4A01
:104860000023A8475A4B9847E7E78C22594D9200FE
:10487000594B28009847012258492800584B98471F
:104880000B2834D0574D012257492800574B9847E1
:1048900002950028CAD1059072B6BFF35F8F8025BC
:1048A000FF26534B2D021870B6022800514B984733
:1048B0000528FAD02800013500214F4BFF359847D5
:1048C000B542F2D18021029809024C4B984700254D
:1048D00080239B00EE18EBB20393402205AB21002E
:1048E0004048474FB847059BB601402B17D00020E2
:1048F000314B9847022899D0304B002098470A2224
:1049000000232F4D0021A84700232E4A2E4D80184A
:1049100059412E4A0023A8472D4B9847E7E74022EC
:1049200021003000374B98470528F8D01022039B10
:10493000134203D1322130002F4B9847DF2301353A
:104940001B019D42C4D1304B029898471B4B00205D
:104950009847FA221A4C520000230021A047002356
:10496000184A194C80185941184A0023A047184B7F
:1049700098470223019A1370FEE7C04629280000D9
:1049800000400041C9010000001000400048004103
:10499000EC080020B103000081460000C144000083
:1049A000B5060000E94F00005D62000078040020B9
:1049B00021460000090D0000D50600001526000064
:1049C0004D4D0000571B00000D4D0000581B00000E
:1049D0000100002098040020D74F00006A62000008
:1049E000F53B0000C80600206D6200004D3C000051
:1049F0003100002025040000A14600000540000011
:104A0000B53D00000D030000E13F000002B4714617
:104A100049084900095C49008E4402BC7047C04601
:104A2000002243088B4274D303098B425FD3030AED
:104A30008B4244D3030B8B4228D3030C8B420DD300
:104A4000FF22090212BA030C8B4202D3121209028E
:104A500065D0030B8B4219D300E0090AC30B8B42CC
:104A600001D3CB03C01A5241830B8B4201D38B037A
:104A7000C01A5241430B8B4201D34B03C01A52411F
:104A8000030B8B4201D30B03C01A5241C30A8B4262
:104A900001D3CB02C01A5241830A8B4201D38B024D
:104AA000C01A5241430A8B4201D34B02C01A5241F1
:104AB000030A8B4201D30B02C01A5241CDD2C30963
:104AC0008B4201D3CB01C01A524183098B4201D3DF
:104AD0008B01C01A524143098B4201D34B01C01ACA
:104AE000524103098B4201D30B01C01A5241C30842
:104AF0008B4201D3CB00C01A524183088B4201D3B1
:104B00008B00C01A524143088B4201D34B00C01A9C
:104B10005241411A00D20146524110467047FFE708
:104B200001B5002000F0F0F802BDC0460029F7D022
:104B300076E7704703460B437FD4002243088B423D
:104B400074D303098B425FD3030A8B4244D3030B14
:104B50008B4228D3030C8B420DD3FF22090212BAD9
:104B6000030C8B4202D31212090265D0030B8B4255
:104B700019D300E0090AC30B8B4201D3CB03C01A3F
:104B80005241830B8B4201D38B03C01A5241430B1A
:104B90008B4201D34B03C01A5241030B8B4201D30A
:104BA0000B03C01A5241C30A8B4201D3CB02C01A75
:104BB0005241830A8B4201D38B02C01A5241430AED
:104BC0008B4201D34B02C01A5241030A8B4201D3DC
:104BD0000B02C01A5241CDD2C3098B4201D3CB0183
:104BE000C01A524183098B4201D38B01C01A524132
:104BF00043098B4201D34B01C01A524103098B4236
:104C000001D30B01C01A5241C3088B4201D3CB0020
:104C1000C01A524183088B4201D38B00C01A524103
:104C200043088B4201D34B00C01A5241411A00D2B3
:104C300001465241104670475DE0CA0F00D049421C
:104C4000031000D34042534000229C4603098B428C
:104C50002DD3030A8B4212D3FC22890112BA030A14
:104C60008B420CD3890192118B4208D38901921196
:104C70008B4204D389013AD0921100E08909C3091B
:104C80008B4201D3CB01C01A524183098B4201D31D
:104C90008B01C01A524143098B4201D34B01C01A08
:104CA000524103098B4201D30B01C01A5241C30880
:104CB0008B4201D3CB00C01A524183088B4201D3EF
:104CC0008B00C01A5241D9D243088B4201D34B000A
:104CD000C01A5241411A00D20146634652415B104C
:104CE000104601D34042002B00D54942704763462D
:104CF0005B1000D3404201B5002000F005F802BD72
:104D00000029F8D016E770477047C046002B11D134
:104D1000002A0FD1002900D1002802D00021C94368
:104D2000081C07B4024802A14018029003BDC04607
:104D3000D9FFFFFF03B4684601B5029800F032F8CE
:104D4000019B9E4602B00CBC7047C046F0B54F4672
:104D50004646C0B41604360C9946330005042C0CA4
:104D6000070C150C63437E436F4365431C0CAD1960
:104D700064199C46A64203D980235B0298464744A7
:104D80006346250CEF191D044B464A4343432D0C43
:104D9000240464199918C91920000CBC904699463E
:104DA000F0BDC046F0B54D46564644465F46F0B4A9
:104DB000924683B004000D0099468B422FD82CD028
:104DC0004946504600F0AEF829000600200000F0E9
:104DD000A9F8331A9846203B9B4600D574E0534609
:104DE0005A4693401F005346424693401E00AF422E
:104DF00029D826D05B46A41BBD41002B00DA79E000
:104E0000002200230092019301235A46934001930C
:104E1000012342469340009319E08242D0D90022F8
:104E20000023009201930C9B002B01D01C605D605D
:104E30000098019903B03CBC90469946A246AB4607
:104E4000F0BDA342D6D9002200230092019343462D
:104E5000002BE8D0FB0772081A4346467B080EE099
:104E6000AB4201D1A2420CD8A41A9D4101202419C1
:104E70006D410021013E24184D41002E06D0AB4269
:104E8000EED9013E24196D41002EF8D15B46009801
:104E9000019900196941002B22DB2B005A46D340AF
:104EA0002A004446E2401C005B461500002B2CDB28
:104EB00026009E40330026004746BE403200801A3E
:104EC000994100900191AEE7424620239B1A524639
:104ED000DA40414613004A468A4017001F4382E7E2
:104EE000424620239B1A2A0046469A402300F3405C
:104EF0001343D5E74246202300219B1A002200914C
:104F000001920122DA40019282E7424620232600E4
:104F10009B1ADE402F00B446974066463B00334361
:104F2000C9E7C04610B5002903D100F007F82030CA
:104F300002E0081C00F002F810BDC0461C2101234D
:104F40001B04984201D3000C10391B0A984201D36C
:104F5000000A08391B09984201D30009043902A24A
:104F6000105C40187047C0460403020201010101B1
:104F700000000000000000000E4B70B500251E0070
:104F80000D4CE41AA410A54204D0AB00F358984786
:104F90000135F8E701F0BEF9084B00251E00084C6A
:104FA000E41AA410A54204D0AB00F3589847013589
:104FB000F8E770BD2063000020630000206300005C
:104FC00024630000002310B59A4203D0CC5CC45483
:104FD0000133F9E710BD03008218934202D0197023
:104FE0000133FAE7704700000EB410B59DB002A976
:104FF000029008610B488224886048610120404289
:105000001FABC881084804CBA400006801938C81C1
:1050100000F0C4F80023029A13701DB010BC08BC45
:1050200003B01847FFFFFF7F94000020032370B5F3
:10503000CD1C9D43083506000C2D01D20C2505E042
:10504000002D03DA0C230020336040E0A942F9D898
:105050001F4B1C681A002100002913D00B685B1B32
:105060000DD40B2B02D90B60CC181EE08C4202D160
:10507000636813601AE04B6863600C0016E00C0074
:105080004968E9E7134C2368002B03D1300000F096
:1050900013FB20602900300000F00EFB431CD1D030
:1050A0000323C41C9C43A0420AD125602000072290
:1050B0000B30231D9043C31A09D05A42E25006E038
:1050C000211A300000F0F8FA431CEED1BAE770BDA7
:1050D000F0030020EC030020F0B58E6885B00700D7
:1050E0000C00039201939E4243D890238A89DB00EF
:1050F0001A423ED003250969236801985B1A02937E
:1051000063695D43EB0F5D19029B6D1001331B1842
:10511000AB4200D91D00530510D529003800FFF718
:1051200085FF061E14D0029A2169FFF74BFFA28962
:10513000194B134080221343A38112E02A00380048
:1051400000F032FB061E0CD12169380000F0E6FAAF
:105150000C23402201203B60A38940421343A381DA
:1051600017E0029B2661F61826606561019EED1A24
:10517000A560019BB34200D21E0032000399206853
:1051800000F0B7FA0020A3689B1BA36023689E1958
:10519000266005B0F0BDC0467FFBFFFFF0B59FB0B5
:1051A000029005938B890F0016001B0610D50B6922
:1051B000002B0DD14021FFF739FF386038610028FE
:1051C00004D10C23029A01381360D8E040237B619C
:1051D000002306AD6B6120336B761033AB76340061
:1051E0002378002B03D1A31B049312D003E0252BBB
:1051F000F9D00134F4E7A31B320039000298FFF71D
:105200006BFF431C00D1B4E06A69049B944663447D
:105210006B612378002B00D1ABE0012200235242C6
:105220006A6002A95432521801342B60EB60AB6003
:105230001370AB65534E21780522300000F04EFA12
:10524000002807D00123801B83402A6801341343C0
:105250002B60EFE72B68DA0604D55322202102A841
:10526000121811701A0704D553222B2102A8121804
:10527000117022782A2A03D0099B00200A210EE00F
:10528000059A111D12680591002A01DB099204E0BC
:105290005242EA60022213432B6001340BE0227871
:1052A000303A092A04D84B4301349B180120F6E711
:1052B000002800D0099323782E2B1ED163782A2B47
:1052C0000AD1059B02341A1D1B680592002B01DAD6
:1052D00001235B42079310E000230A201A000134E7
:1052E0006B6021783039092904D8424301345218BF
:1052F0000123F6E7002B00D00792234E21780322EA
:10530000300000F0EBF9002806D04023801B8340DA
:105310002A68013413432B60217806221B48661C3F
:10532000297600F0DBF9002812D0194B002B06D1AA
:105330000722059B073393430833059314E005AB1D
:1053400000933A00134B2900029800E000BF07E0E9
:1053500005AB00933A000F4B2900029800F08AF841
:105360000390039B013304D06B69039A9B186B6114
:1053700035E7BB890B985B0601D5012040421FB081
:10538000F0BDC046E0620000E6620000EA62000094
:1053900000000000D9500000F7B5170001938A689B
:1053A0000B6900900C00934200DA130022003B606E
:1053B00043321278002A01D001333B6023689B06F8
:1053C00002D53B6802333B60062523681D401ED092
:1053D000230043331B785A1E9341226892061CD542
:1053E0003020E1184331087021005A1C45310978FA
:1053F000A2184332023311700FE022000123193248
:1054000001990098089EB047431C0ED00135E3680F
:105410003A689B1A9D42F0DBDAE722000199433299
:105420000098089DA847431C02D10120404220E07B
:1054300006232068E1683A6803400025042B03D165
:105440008D1AEB43DB171D40A3682269934201DDEF
:105450009B1AED180027BD420AD0220001231A3200
:1054600001990098089EB047431CDED00137F2E74F
:105470000020FEBDF0B58BB006920A0043320793C0
:10548000059004920A7E0C00109B6E2A00D1ABE0BE
:1054900011D8632A22D009D8002A00D1B5E0582AB1
:1054A00000D0C5E045310A70814A4FE0642A1DD022
:1054B000692A1BD0BCE0732A00D1AAE009D86F2A60
:1054C00029D0702A00D0B3E0202209680A43226064
:1054D00037E0752A1FD0782A33D0A9E00E001A6869
:1054E0004236111D196013683370A4E021681A68F0
:1054F000080606D4490604D5111D19600023D55E9F
:1055000002E0111D19601568002D3BDA2D23049A65
:105510006D42137036E021681A68080606D4490601
:1055200004D51568111D1960ADB202E0111D196096
:1055300015685F4B227E039308276F2A1DD00A2728
:105540001BE022007821453211705A4A19680392F3
:10555000081D226818600D68100602D4500600D598
:10556000ADB2D30702D520231A4322601027002DA5
:1055700003D1202322689A43226023000022433370
:105580001A7002E00A274A4B03936368A360002B5A
:1055900009DB0422216891432160002D05D1049E7E
:1055A000002B11D07BE0002D79D0049E280039001B
:1055B000FFF7BCFA039B013E5B5C280033703900A7
:1055C000FFF72EFA051EF1D1082F09D12368DB075A
:1055D00006D563682269934202DC3023013E3370B2
:1055E000049B9B1B23612BE009681A68080607D4FB
:1055F000490605D5111D19601368A28A1A8004E0B6
:10560000111D1960136862691A600023049E2361EA
:1056100016E01A68111D19601668002162683000D2
:1056200000F05CF8002801D0801B6060636803E034
:10563000260042363270012323610023049A13703E
:10564000079B09AA00932100069B0598FFF7A4FE7B
:10565000431C02D10120404227E023693200069911
:105660000598079DA847431CF4D0236800259B0795
:105670000FD4099BE068984217DA180015E0220061
:105680000123193206990598079EB047431CE1D0C3
:105690000135E368099A9B1A9D42F0DBE9E7260091
:1056A000039B42361B7833708EE70BB0F0BDC046CB
:1056B000F162000002630000002370B5064C050093
:1056C00008002360FDF72AF9431C03D12368002B4F
:1056D00000D02B6070BDC0462C090020C9B28218D2
:1056E000904204D003788B4202D00130F8E70020CA
:1056F000704710B5884202D98B18984201D3002315
:1057000005E09B1A013A08D3995C8154FAE7934269
:1057100003D0CC5CC4540133F9E710BD30B5002987
:105720003ED004390B68002B00DAC9181D4A1368F3
:105730001400002B02D14B60116031E08B420DD977
:105740000A688818834203D118685B6882180A6067
:105750004B60216024E08A4203D813005A68002A73
:10576000F9D11D685C198C420BD109686918581869
:105770001960824214D110685268411819605A6049
:105780000EE08C4202D90C23036009E008680C1873
:10579000A24203D114685268201808604A60596018
:1057A00030BDC046F0030020F8B506000C0015001F
:1057B000002904D11100FFF739FC040018E0002A89
:1057C00003D1FFF7ABFF2C0012E000F013F8854285
:1057D0000ED929003000FFF729FC071E07D0210051
:1057E0002A00FFF7EFFB21003000FFF797FF3C0096
:1057F0002000F8BD0B1F1A68101F002A04DA891850
:1058000004390B68D018043870470000000000000D
:105810000A0000000C0000000D0000000F00000056
:1058200014000000190000001E000000230000000A
:10583000280000002D0000003200000037000000AA
:105840003C00000046000000500000000A0000007C
:1058500064000000E80300001027000000000000C2
:105860000000000000000000000000000A0000002E
:105870000C0000000D0000000F00000014000000EC
:105880001A0000001E000000230000002800000095
:105890002D00000034000000370000003C00000034
:1058A000460000005000000000080042000C0042CA
:1058B000001000420014004200180042001C004288
:1058C000090A0B0C0D0E222A3A3C3E3F7C7F002B2E
:1058D0002C3B3D5B5D0043554541414141434545BE
:1058E0004549494941414592924F4F4F5555594F6E
:1058F000554F9C4F9E9F41494F55A5A5A6A7A8A9C6
:10590000AAABACADAEAFB0B1B2B3B4414141B8B9DE
:10591000BABBBCBDBEBFC0C1C2C3C4C54141C8C97A
:10592000CACBCCCDCECFD1D145454549494949D93E
:10593000DADBDCDD49DF4FE14F4F4F4FE6E8E8555A
:1059400055555959EEEFF0F1F2F3F4F5F6F7F8F991
:10595000FAFBFCFDFEFF01030507090E10121416E9
:10596000181C1E00C000C100C200C300C400C50056
:10597000C600C700C800C900CA00CB00CC00CD00DB
:10598000CE00CF00D000D100D200D300D400D5008B
:10599000D600D800D900DA00DB00DC00DD00DE0034
:1059A0007801000102010401060108010A010C014D
:1059B0000E01100112011401160118011A011C0137
:1059C0001E01200122012401260128012A012C01A7
:1059D0002E01300132013401360139013B013D0114
:1059E0003F0141014301450147014A014C014E017C
:1059F000500152015401560158015A015C015E01E7
:105A0000600162016401660168016A016C016E0156
:105A1000700172017401760179017B017D018201BF
:105A2000840187018B0191019801A001A201A701C6
:105A3000AC01AF01B301B501B801BC01C401C7019C
:105A4000CA01CD01CF01D101D301D501D701D901BF
:105A5000DB018E01DE01E001E201E401E601E80183
:105A6000EA01EC01EE01F101F401FA01FC01FE0191
:105A7000000202020402060208020A020C020E02DE
:105A8000100212021402160291039203930394036C
:105A9000950396039703980399039A039B039C032A
:105AA0009D039E039F03A003A103A303A403A503D7
:105AB000A603A703A803A903AA03AB038C038E03C1
:105AC0008F03E203E403E603E803EA03100411048E
:105AD00012041304140415041604170418041904FA
