:10000000F81D00203D290000392900003929000091
:1000100000000000000000000000000000000000E0
:10002000000000000000000000000000392900006E
:1000300000000000000000003929000039290000FC
:100040003929000039290000392900003929000028
:100050003929000039290000150100003929000064
:10006000392900005D1B00006D1B00007D1B000096
:100070008D1B000000000000000000003929000076
:1000800039290000392900003929000039290000E8
:10009000392900000000000000000000392900009C
:1000A00039290000392900003929000039290000C8
:1000B0000000000010B5064C2378002B07D1054B3B
:1000C000002B02D0044800E000BF0123237010BDC4
:1000D000B000002000000000106D000008B5084BC3
:1000E000002B03D00748084900E000BF0748036819
:1000F000002B00D108BD064B002BFBD09847F9E739
:1001000000000000106D0000B4000020106D000021
:100110000000000038B5204B98470F221F4B2049A4
:100120001B8C204C13409B0058581F4D03781F49CF
:100130001A401F4B1A7003780A781B01E418EB1859
:1001400064885B88D2B2E31A4361141C01231C400B
:1001500007D010220B704274027C1A4218D04368F8
:1001600013E002231A4206D00B70027C44741A4238
:100170000ED0836809E004231A4209D006220B70CE
:100180004274027C1A4203D0C368002B00D0984707
:10019000084B984738BDC046CD16000000480041C6
:1001A0002001002000040020D00000204E48004123
:1001B0003F4800410117000037B56B461025D91D97
:1001C0000823054C08700122656104486361044BF3
:1001D0009847A56137BDC04600440041D0080020C3
:1001E000D11F0000F0B504270024364D8FB06F6199
:1001F000354B00209847354E211C0A220023B0477A
:100200000023334A334E80185941334A0023B04704
:10021000324EB047AF61201C2B4B98472B4F211C0F
:100220000A220023B8470023294A2A4F801859413F
:10023000294A0023B847B0476A46012313709374D4
:10024000D3746B460533147454741475DC77211C15
:1002500006A80C22224B01949847224B224E06936B
:10026000224B6A460A93224B301C0B9301235B42BC
:100270000C930D93C0239B0502931E491E4B0394C0
:1002800098471E49301C1E4B98471023AB61083B12
:100290006B61A0201B4DA847A720A847C820A847EE
:1002A000A220A8472F20A847F820A847201CA8472D
:1002B0002720A8478120A8470D20A847AF20A8479E
:1002C0000FB0F0BD00440041F5260000814C000055
:1002D000BFCF6A00414C0000C0CF6A00010000207F
:1002E0003B510000A0860100D00800200200080059
:1002F0000200090000080042A51C000000127A005C
:10030000191C0000B9010000024B187D01231840A0
:100310007047C04600400041042138B51E4A1F4CBA
:10032000D369051C0B43D3612022238BFF32134377
:1003300023831B4B9847031C0520002B2BD0C02187
:10034000E8786B788004DB0118432B7889001B0266
:100350000B401A1C031CA878134340001E21021CEA
:100360000A40C0211343181C2B7989021B040B403F
:100370001A1C031C082113436360A368094A5B032A
:100380005B0F99401180A36853806B781371208BA9
:10039000C005C00F000138BD00040040004000410E
:1003A0000903000034010020F7B5274A5488138858
:1003B0006343994206D98022244B9201CC1818231A
:1003C00094423ED880232022214D00916F68DB02A9
:1003D0003B436B602B8BFF3213432B831D4B041C61
:1003E00098471C4B2E1C0193002802D16F600523F7
:1003F00027E0062C06D8052C0BD2022C0FD0042C9B
:1004000012D10CE0402C0FD3412C08D9452C0ED929
:100410000AE02B8BDB0502D56F60102311E0009BF7
:1004200099084900F16102E07760172309E0A520EF
:10043000000204433480019B98470028FBD000232E
:100440007760181CFEBDC0463401002000C07FFF4D
:100450000040004109030000F7B5234B5E881C886B
:10046000009366431823B0423CD8651E054239D13B
:10047000013BA24236D81D4E151C0F1C041CB04770
:100480000196052300282DD0194E1A4B3380019B6D
:1004900098470028FBD02022338BFF32134333834D
:1004A0000023600840009AB2AA420ED29AB26E1E91
:1004B000B95CB24201DB8AB203E0BA185278120288
:1004C0000A4319180A800233EDE7009B1A790023CA
:1004D0009A4207D13F2D05D81A1C0420064B211C37
:1004E0009847031C181CFEBD3401002009030000BE
:1004F0000040004144A5FFFFA9030000F8B5184BD8
:100500001D885C8818236C43A04226D86C1E0440CA
:1005100023D1013BAA4220D8124B161C0F1C051CEC
:1005200098470523002818D020210F4AFF31138B4C
:100530006D080B4313836D00A3B2B3420CD2631951
:100540001B88A2B29BB2711EBB548A4202DABA184F
:100550001B0A53700234EFE70023181CF8BDC04695
:1005600034010020090300000040004138B5114A61
:100570001388518818225943884218D89B00013BA0
:10058000184214D10C4D041CA847052200280ED097
:1005900020210A4BFF311A8BA4080A431A83084A08
:1005A0006400DC611A80A8470028FCD00022101CDF
:1005B00038BDC0463401002009030000004000415E
:1005C00002A5FFFF891A073170B5CC17640F6118B7
:1005D0000724C9104118481E22400078D61810413F
:1005E000082E0DDD8C1E25780824A41AA54028436A
:1005F000102E05DD102403390978A21A9140084312
:1006000001229A40131C013B184070BD10B5074BE6
:100610001968074B4A7C1878CB1CDB7F09685C1E85
:10062000A341044CDBB2A04710BDC04640010020EE
:1006300046010020A512000038B50A4D0A480021E5
:100640000A4B9847041E01D1002408E0084B984744
:10065000C0B2002803D0013D002DEFD1F4E7201CEB
:1006600038BDC046410D03000D1B0000BD14000045
:10067000D114000008B5034B1878002801D1024BB3
:10068000984708BD46010020F912000070B5061C0D
:100690000420002E6ED1384A147A151C6309E10932
:1006A00066D13648DB011B18186A1F230136234028
:1006B000341C9C40937B04400AD0B34205D1304B9C
:1006C0001B78002B01D02F4B19600423AB7313E070
:1006D000042B27D12B4D96732868294A2A4B0028D2
:1006E0000CD116709847FA21284B49019847FA23F4
:1006F0009B00584368602E6002203BE0201C147071
:100700009847FA22211C92000023214CA047002385
:10071000204A214C80185941204A0023A047204BF1
:100720009847E9E7012B12D1154B1B78002B05D018
:10073000144B02201A68D2031CD51C600223AB7331
:10074000184B00222B6001236B74EB1CDA7703201B
:10075000AB7B83420ED00022134B1A70134B1D60EB
:10076000134B9847A87B023842424241D0B201E085
:10077000336AFFDE70BDC0460C000020004400411B
:100780003C01002010E000E0F52600001D4B0000B9
:10079000814C0000571B0000414C0000581B00001A
:1007A00001000020801A06004601002040010020C0
:1007B0000D06000073B501240B4D0C482B68102268
:1007C00099890B4E09040094231CB047002801D1DD
:1007D000002008E02868211C1230064B98470028AA
:1007E000F6D0054B984776BD40010020091108005E
:1007F0005513000051150000B9150000042208B57A
:10080000034B9A73034BFB321A70034B984708BD96
:100810000C0000204601002069110000F0B5CA4B11
:1008200089B09847061E012E00D0FAE10025C74C7A
:100830002368D8731D749D81C54B98478820291C57
:100840004001C44DA847002800D1E7E1D5277F002B
:10085000C148391CA84700280AD0C04B9847431C00
:1008600006D00005000DB84200D0D7E1029601E0A5
:10087000002302932368DB7BDB072CD5B84EB948F5
:100880000021A847002800D1CEE00299B6484B1EAF
:1008900099418907A847002800D1C5E0AF4FB84764
:1008A0000123011C194003D0013E002EE7D1BBE01B
:1008B000AE48A847002800D1B6E0B847430004D5A9
:1008C00008212268D37B0B43D373A9480021A84792
:1008D000002800D1A2E12368DB7BDB0707D4236873
:1008E000DA7B09231340012B00D08BE082E0A14B7F
:1008F0009847002800D191E126688021351C1235E7
:1009000060220823281C9C4FB84707239B4A0340BA
:100910009B009B58FA22400692005343000F984ACE
:100920008000825880215343281C33607E2202239A
:10093000B847002808D0281C802130221623B84749
:1009400001304002706018E080213E220C23281CF8
:10095000B847802102902F220323281CB847029B0E
:1009600002300133834080210293281C502204234B
:10097000B847029F8740BF0A7760B1897948090468
:10098000744B9847002800D148E101257D48009527
:10099000002108222B1C7C4EB047002800D13DE1ED
:1009A00006A8291C794B9847002800D136E1784BDE
:1009B0009847061E00D131E1042306A840213822C1
:1009C0006D4FB8471A23A8420ED000280BD002283A
:1009D00009D12B1C06A840212F22B847302301281B
:1009E00002D0202300E0102322681374002E00D0D0
:1009F00075E713E1802167488900564B9847002826
:100A000000D10BE12368DB7BDB0704D5624B984701
:100A1000002800D102E1614B9847002223689A73B5
:100A20005F4B98470120FFE00223882022684001A5
:100A3000D3730021A847002800D1EFE0484E594861
:100A40000021A847002800D1E8E0444FB84701231F
:100A5000011C194003D0013E002EF0D1DEE04348D6
:100A6000A847002800D1D9E0B847C023DB051840CB
:100A70008023DB05984204D108212268D37B0B43F5
:100A8000D3733B480021A847002800D1C6E0394B6A
:100A90009847002800D1C1E026680423371C12378C
:100AA000354D381C80217A22A8470138029512233F
:100AB00003280AD804F028F802040608142304E0E6
:100AC000222302E0302300E040233374802160229F
:100AD0000823029D381CA8470723284A03409B008F
:100AE0009B58FA22400692005343000F2E4A800082
:100AF000825880215343381C33603E220C23029DD0
:100B0000A8472A4B0390984212D0381C80212F22EC
:100B10000323029DA847039D0230013585408021B3
:100B2000381C50220423029FB8478540AD0A7560E7
:100B3000337C3F2B3CD8802116488900054B9847D1
:100B400000286BD062E7C0468D06000040010020FF
:100B500021130000BD14000008550000D11400004E
:100B6000EF1B000037110000291100003A050000BA
:100B70003B110000B5070000C5050000A0590000AA
:100B80006059000033110800551300005115000092
:100B9000B915000010110000390600000D06000014
:100BA0007506000001110000BC590000FF0F000095
:100BB000002180221D4D00911D4892000123A8476D
:100BC000322500282AD005A81A4EB047002825D083
:100BD000013DADB2002DF6D120680C23164D123028
:100BE00080213E22A847154B322598420DD12E3D3B
:100BF00006A8B047002811D0013DADB2002DF7D1B5
:100C0000069B22685B085360363506A8B04700286B
:100C100004D00135ADB2802DF7D18CE703262368CF
:100C20009E73074B9847301C09B0F0BD5513000068
:100C300008110800DD140000C5050000FF0F0000CA
:100C40007506000008B5064B98470023984204D16A
:100C5000044B9847044B1B68DB7B181C08BDC0463F
:100C60008D060000750600004001002008B5064B07
:100C700098470023984204D1044B9847044B1B68C3
:100C80005B68181C08BDC0468D0600007506000094
:100C9000400100200020704737B5144B0D1C141C78
:100CA0009847002821D1124B9847002803D1114BB7
:100CB0009847052019E0012C01D80F4800E00F48A3
:100CC0000F4B1B68DB7B1B0700D46D0201238022C6
:100CD0000093291C9200231C0A4DA8470028E6D047
:100CE0000020094B1C80094B1C803EBD8D06000076
:100CF00039060000750600001111080012111000DD
:100D00004001002055130000440100203A0100205A
:100D100010B5074B0C1C9847064B002802D11880D1
:100D2000053003E000201988091B198010BDC0465A
:100D3000511500004401002010B5114B041C9847C8
:100D4000052300281AD00F4B002C02D000221A8055
:100D500003E01A88231C002A10D10B4B1B88012B9F
:100D600003D10A4B9847002308E000210848094CAA
:100D7000A047011EF5D10648A047F2E7181C10BD98
:100D8000B9150000440100203A010020750600005A
:100D90000C310000BD14000037B5124B0D1C141CA3
:100DA000984700281DD1012C01D80F4800E00F48BA
:100DB0000F4B1B68DB7B1B0700D46D0201238022D5
:100DC0000093291C9200231C0A4DA847002803D138
:100DD000094B9847052004E00020084B1C80084B75
:100DE0001C803EBD8D06000018910800199110006E
:100DF000400100205513000075060000440100204A
:100E00003A01002010B5074B0C1C9847064B0028F0
:100E100002D11880053003E000201988091B1980D1
:100E200010BDC046BD1500004401002010B50A4B9E
:100E3000041C9847052300280CD0084B002C02D036
:100E400000221A8003E01A88231C002A02D1044BD6
:100E500098470023181C10BD3116000044010020E3
:100E60007506000010B50F4B041C9847031C0320A7
:100E7000012B16D0002B07D00238022B11D10021F4
:100E8000094A181C11550CE0074B02201B5D002B72
:100E900007D1064B201C9847032318404342584172
:100EA000400010BD1D08000047010020450C000057
:100EB00008B50020014B984708BDC046650E0000EC
:100EC00038B5054B0D1C041C9847400001382860BC
:100ED000024B201C984738BD6D0C0000650E0000C9
:100EE00008B5011C014B0020984708BDC10E000049
:100EF00008B50020014B984708BDC046950C00007E
:100F000010B50C4B141C01229847002804D0831EF6
:100F10005842434101330BE0074B201C0121984705
:100F20000123002804D1054B9847431E9841C3B2C2
:100F3000181C10BD990C0000110D0000390D0000A7
:100F400008B5031C0A1C0020191C014B984708BD5A
:100F5000010F000010B50C4B141C0122984700280B
:100F600004D0831E5842434101330BE0074B201C41
:100F7000012198470123002804D1054B9847431EBF
:100F80009841C3B2181C10BD990D0000050E000059
:100F90002D0E000008B5031C0A1C0020191C014B73
:100FA000984708BD550F000037B56B46991DFF23C4
:100FB000094D0122281C094C0B70A0476A46084BBA
:100FC000281C1B88D11D012B01D1FD3300E0FC231F
:100FD00001220B70A04737BD4C010020D11F00003B
:100FE0004A010020F7B56B46FF240F4EDD1D291C7A
:100FF000231C01220D4F301C2C70B847231C301CC1
:10100000291C0122B8470A4C301C291C0122FF234D
:10101000064F013CB847002C04D02B78FF2BF3D1AE
:10102000012000E0201CFEBD4C010020711E0000CC
:10103000410D030073B56B46DD1D0023114C2B7071
:10104000013C002C04D104220F4B201C1A7017E025
:101050000122FF230D48291C0D4EB0472B780F228B
:10106000181C904309D10721074A0B4001D0117089
:1010700006E00B21181C117002E0FE2BE0D10120CC
:1010800076BDC04621A107008E0100204C01002042
:10109000711E000037B56B46991D0123124D5B424E
:1010A0000B80281C0222114B98476B465C1D281CA4
:1010B0000122211CFF230E4DA84711202278104049
:1010C000012803D001220B4B1A700AE01E231340A3
:1010D000042B07D0074A0A2B01D1023B00E00A2368
:1010E000137000203EBDC0464C010020D11F0000FF
:1010F000711E00008E010020F7B5134B1D882C1EB9
:10110000012C1FD0114B01241988114B1868114B69
:101110009847854216D86B46DD1DFF230E4F221CD3
:10112000291C0E4E381C2B70B047FD23221C291C95
:10113000381C2B70B0470A4B9847041E02D1052279
:10114000084B1A70201CFEBD4A0100208C010020B3
:10115000880100201D4B00004C010020D11F000021
:10116000E50F00008E010020F0B5002501263C4B64
:1011700093B01D7002AB1D705E709D70191C17201E
:10118000384B98470D2302AA9B1804ACDD77291C25
:101190000C22354B0AA826706560A560257465741D
:1011A000A674E6742575984780239B03E3602F4B54
:1011B0002F4DA3622F4B2F68E3622F4B381C236304
:1011C00001235B4263632D4BA3612D4B98471F2383
:1011D000184086402B4BDE67224B2A680093284B31
:1011E0000193D369002BFCD102263B68221CB34338
:1011F0003B602549254B281C98472C68019B201CE7
:1012000098471F2318401E3B8340181C204B186032
:101210002B68DD69002DFCD123681E4A1E43266021
:1012200001241D4B1D4E107803A95D709D70187030
:101230003070009B7570B5704C708D700C70984755
:1012400031784B09CA0908D11F320A409440144A28
:10125000DB019B189C6113B0F0BDAD61FFDEC046A1
:101260008E010020991700003B5100000300100080
:101270004C0100200300110003001200801A060038
:10128000351B000004E100E000140042A51C000032
:1012900000E100E0300000208F01002092010020DA
:1012A0000044004100220E4B70B51A700D4B061C15
:1012B0000C1E9C4200D91C1C0B4D211C281C0B4BE6
:1012C0009847172802D1E308E41AF5E70321714390
:1012D000081C074901220918064B281C984770BDB5
:1012E0008E01002000127A004C010020191C000021
:1012F00092010020051F0000002208B5044B05499B
:101300001A7003235843044B09180448984708BD32
:101310008E01002092010020051F00004C010020DA
:1013200037B56B46DD1DFF2300220A242B70064BC8
:101330001A70013C0548291C0122054BE4B298476C
:10134000002CF6D137BDC0468E0100204C01002094
:10135000D11F0000F0B589B0009001923F20FF221C
:10136000009C029304AB9A712040002240244A4B17
:1013700020431A7006AB1870080E5870080C98704D
:10138000080AD8701971131C082106AE905D041C60
:101390007F255B00DBB25C40AC4301D00924634095
:1013A00001394000C9B2C0B20029F0D10132052A8A
:1013B000EAD101255B00394C2B43737104AB991DB5
:1013C0002A1C374F201CB847311C0622201CB84766
:1013D00004ABD91DFF232A1C201C324D0B70A847DB
:1013E0000725039404AB2D4CDE1D0122FF23201C96
:1013F000311C2C4FB847327853B2002B05DA013D2F
:10140000EDB2002DEED1022205E00820264E10405C
:10141000326004D00622204B1A7000203AE00420EB
:10142000031C134001D00922F5E701218A4302D0B1
:10143000194A1170F1E7009B9B0407D51B4B984795
:10144000002803D10322144B1A7023E0009B9B0554
:1014500007D50023201C3360311C0122FF33114CBF
:10146000A047009B5B0509D50F4CFF230398211C67
:1014700004220C4DA84723681BBA23606A460C4B14
:10148000928801201A806A460A4B12891A8000222B
:10149000094B1A6009B0F0BD8E0100204C010020FC
:1014A000D11F0000711E000098010020E50F000010
:1014B0008C0100204A01002088010020002313B580
:1014C0001A1C0093014CA04716BDC04655130000DE
:1014D000014B18687047C046980100200022F0B503
:1014E000144B154E154C85B001901A703188144D6F
:1014F0002068A8470096002914D0124F01A9FF23A5
:10150000381C0422104EB0472368181D009B206031
:101510001988A84700290AD1381C03A90222FF23F1
:10152000B04704E0094B98470028E6D100E00120CD
:1015300005B0F0BD8E0100208C0100208801002044
:10154000294C00004C010020711E000035100000E5
:10155000F0B500250C1C124B85B001901D70002CBD
:101560001AD0104B9847013CA4B2002815D0019B1B
:101570000D4F59193A88FF230C4E0D48B0470D4ABC
:101580003B881168ED185B18136003A90222FF2342
:10159000064E0748B047E2E7012005B0F0BDC0465F
:1015A0008E010020351000008C010020711E00000B
:1015B0004C0100208801002001207047F7B500246D
:1015C000071C134B1C7001934D1EADB200291DD09A
:1015D000104B9847104E39193288104B10489847D5
:1015E000104A33881168E4185B1813600E4B984753
:1015F00000280CD0002D07D00C4B9847002803D1B1
:101600000523019A137002E0291CDDE70120FEBDCD
:101610008E010020A90F00008C010020D11F0000C6
:101620004C0100208801002095100000E50F00000B
:1016300008B5054B9847002803D10522034B1A70C3
:1016400001E0034B984708BDE50F00008E01002024
:10165000F910000008B5031C0120002B01D1014B3B
:10166000984708BDB10E000008B5031C0120002BEF
:1016700002D1081C014B984708BDC046E10E00008E
:1016800043425841C0B2704708B5031C0120002BEB
:1016900001D1014B984708BDF10E000008B5031CAD
:1016A0000120002B03D1081C014B111C984708BDD9
:1016B000410F000008B5031C0120002B03D1081CBA
:1016C000014B111C984708BD950F0000094B196884
:1016D00000290BD1EFF31080074A002805D172B61C
:1016E000BFF35F8F05490870012111701A6801323C
:1016F0001A6070479C010020A001002031000020EA
:10170000084B1A68013A1A601B68002B09D1064B76
:101710001B78002B05D00122044B1A70BFF35F8F9A
:1017200062B670479C010020A0010020310000201B
:10173000F7B50023012501AC154F211C022065706F
:10174000A3702570B8470423124E211C7361002337
:1017500003206570A3702570B8470823211C7361AE
:1017600003202570B8470823211CB361042025708D
:10177000B8471023211CB36102202570B847042309
:101780000520B361211C2570B84720237361F7BD84
:10179000991700000044004107B5802201AB1A7080
:1017A0000A785A704A789A708A78191CDA70014B54
:1017B000984707BDD528000003689A7A52B2002ADC
:1017C000FBDB02211A880A431A80704703689A7A61
:1017D00052B2002AFBDB02211A888A431A80704722
:1017E00038B5051C064B046898472A68937A5BB2A3
:1017F000002BFBDB012223881343238038BDC04626
:10180000CD17000010B5CB88C4881B1B9C060B7934
:101810005A044B799B0513438A78120313430279C8
:101820002343002A05D1CA78002A02D0802252021E
:10183000134348780A7880011043184310BDC388C9
:1018400010B58C0EE318D3808B011B0F53718B02E4
:10185000DB0E13710379002B03D0CB03DB0E9370E7
:1018600005E00B041B0F9370CB03DB0FD3700B054C
:101870009B0E53703F231940117010BD43790A1C11
:1018800010B50168002B03D00969054B984710BDBE
:10189000044B4B800468A37A5BB2002BF4DAFAE7BE
:1018A0003F1800000080FFFF70B517230668012A6B
:1018B0000DD8084B141C0D1C9847B37A5BB2002B53
:1018C000FBDBE400321990612B7A13770023181C9C
:1018D00070BDC0460518000037B501602021141CFA
:1018E0001B4A051C936904200B439361022301A941
:1018F0000B70184B98470420174B9847174B281C20
:10190000984723792B71E3786B71E388EB80144B54
:101910001D6021792A682388002901D0082100E070
:1019200048210B43A178002901D080210B4313806B
:10193000E378002B04D080215388C9010B435380E6
:10194000211C281C08310022064B984737BDC04691
:1019500000040040012800007D270000E11700007E
:101960000C090020A918000010B54908041C002328
:1019700040208C420BD8581C091B80B2A14201D3D5
:10198000031CF8E74020FF2B01D80020138010BD76
:1019900037B50D4B041C1A781D1C002A01D00029F4
:1019A0000CD001A91320094B0C7098471320084B49
:1019B000984701236C702B70002004E05B78081CB2
:1019C000A34200D01D203EBDA1010020012800003F
:1019D0007D270000284A031C00B5081C934218D03C
:1019E00003D8264A934207D03AE0254A93421DD0B5
:1019F000244A934227D033E00023032939D803F047
:101A000083F831020406204B33E0204B31E0204BB9
:101A10002FE0002303292CD803F076F826020406D1
:101A20001C4B26E01C4B24E01C4B22E00023032926
:101A30001FD803F069F81B020406194B19E0194B73
:101A400017E0194B15E00023032912D803F05CF8C6
:101A500010020406154B0CE0154B0AE0154B08E08C
:101A6000002306E0144B04E0032302E0134B00E0E4
:101A7000134B181C00BDC046000C00420008004279
:101A8000001000420014004203000500030006009D
:101A9000030007000300010003001E0003001F00F5
:101AA0000300090003000A0003000B0003001100FB
:101AB00003001200030013000300040003000800E9
:101AC000030010007FB56946094B6A4670CB70C1B0
:101AD0001B680B60002399005158884201D1D8B28D
:101AE00003E00133042BF6D1002004B070BDC046E2
:101AF000FC5900007047000070B50A4E0A4B32785E
:101B0000002A0BD1094C0A4D22606260A260E2609B
:101B100001321D605D609D60DD6032708000195093
:101B200070BDC046A3010020A401002010090020C0
:101B3000F51A000037B5051C01AC05490422201C2C
:101B4000044B9847281C044B984720563EBDC0467E
:101B50000C5A000029510000C51A000008B5024BBC
:101B600000201B68984708BDA401002008B5024B5F
:101B700001205B68984708BDA401002008B5024B0E
:101B800002209B68984708BDA401002008B5024BBD
:101B90000320DB68984708BDA401002038B504681D
:101BA000051C094B201C98471F2318401E3B8340EF
:101BB000181C064BD8672A68D369002BFCD1022277
:101BC00023689343236038BD351B000004E100E027
:101BD000036805201A7ED20703D50020C905C90D68
:101BE0009962704730B504240368051C1A7E1020E2
:101BF000224210D05A8B0020224203D05A8B1E3032
:101C000022435A83AA799B6A012A02D1DB05DB0DA4
:101C100000E0DBB20B8030BDF7B56B469D1D0023A5
:101C2000041C2B80194B06680F1C98472068C36959
:101C3000002BFCD1164B98471430164BC0B2984776
:101C4000154B011C2A1C381C9847031C1720002B1D
:101C50001BD12B7833732568EB69002BFCD10F4B1C
:101C6000281C98471F2318401E3B8340181C0C4B10
:101C700018602268D369002BFCD102222B68134321
:101C80002B602368D8690028FCD1FEBD9D1B000095
:101C9000C51A00001D28000069190000351B00004E
:101CA00000E100E0F0B501600C6889B01C23A407D6
:101CB00000D5BFE001270B683B400193019C052341
:101CC000002C00D0B6E05D4B061C081C141C0D1C3B
:101CD0009847811C8F405A4A1430136A1F43176279
:101CE000671DFB7F02AA1370C3B2111C181C00935E
:101CF000544B98470098544B9847544BF87F0199A0
:101D000098474E4A23780092012B03D10C222B686E
:101D100013432B60331C321C0C332832002520C3A4
:101D20009342FBD1331C3633B586F5623586B562F6
:101D30001D705D709D70032330687372009B357158
:101D40009847071C424B43499847434BBA00D6502B
:101D5000802302AA13710123937123783768557188
:101D6000D571AB4200D193710025A36A0493E36A55
:101D70000593236B0693636B0793AB0004AA9858F3
:101D8000E9B2002802D1381C344B9847431C06D0D6
:101D900002AB1871000CC0B203A9314B9847013552
:101DA000042DEAD123787371237CB371A37CF37182
:101DB000237D337202AB9D1C00232B802378012BE3
:101DC00010D1009B306898471430264BC0B298471A
:101DD000254B011C2A1CA06998471723002829D1EC
:101DE0002B783B736368A268617C1A43E3681A43EB
:101DF000237C002903D11D498978890701D58021D9
:101E00000A43A17C002902D0802189020B43E17C96
:101E1000002902D0802189000B43217D002902D0B6
:101E2000802189010B4339680A433A607A68134379
:101E30007B600023181C09B0F0BDC046C51A000025
:101E400000040040012800007D27000091190000D7
:101E5000F91A00005520000010090020D5190000D3
:101E6000D52800001D28000069190000002000414D
:101E7000F0B5041C3834267885B0F4B2052C39D07E
:101E80001724002A36D0C5790534002D32D0051C20
:101E9000141C0026019300916B79012B07D12A684D
:101EA000137EDB07FCD5281C0199144B98472A6840
:101EB000137E5B07FCD502AB9F1D0023281C3B80D3
:101EC000391C0F4B9847002801D0041C12E00099E0
:101ED0003A88731C8A55A9799BB2012904D10099CB
:101EE0000236120ACA54B3B2013CA4B2002C01D08B
:101EF0001E1CD1E7201C05B0F0BDC046D11B000060
:101F0000E51B000073B54679151C1523012E55D12C
:101F1000027A002A01D0002350E00C78002D3AD03C
:101F20004D78002D2CD003681B7E33400BD1620905
:101F3000E1093BD11F331C40A640D301204A9B1826
:101F40009E6105233AE06309E50931D11F2214405F
:101F5000A640051C1B4ADB019B185E6089781A4B62
:101F60009847EB79002BD6D12A68137E5B07FCD506
:101F70006B460024991D281C144B0C809847CAE717
:101F80006209E30916D11F210C40A6400D49D20178
:101F90005218566012E06209E3090DD11F210C406E
:101FA000A6400749D2015218966107E09B6100E004
:101FB0005261FFDE6D61FCE7AD61FAE7181C76BD8A
:101FC0000044004110440041D11B0000E51B00000B
:101FD000031CF7B538331D78EBB2052B34D017232B
:101FE000002A31D00F1C051C141C00262B681A7EF9
:101FF000D207FCD5A979721C92B2BB5D012902D02F
:1020000099B2161C04E0B95C02360902B6B2194353
:102010000E4B281C9847EB79002B08D02A68137EBA
:102020005B07FCD56B46281C991D094B9847631E1E
:102030009CB2002CDAD16A79231C012A04D12A68C7
:10204000137E9B07FCD50023181CFEBDD11B00008E
:10205000E51B0000F8B5684B8000C458231C221C07
:102060003633373225681B7816782F7E1E40AB7DBD
:102070001F40FB073AD56279012A0DD1637A002B04
:102080000AD15E4B1B88AB62638E013B9BB26386B9
:10209000638E002B00D12A756379012B26D1637AD8
:1020A000002B23D0E06A21680378DAB2431CE36294
:1020B000A379012B01D093B204E0437802301B02D4
:1020C0001343E062DB05DB0D8B62A38E013B9BB209
:1020D000A386A38E002B09D101332B75637A012BC4
:1020E00004D1E379002B01D10233AB7504210F42F7
:1020F0005ED06B8B0B4215D0637A012B0CD0231C66
:102100001E2238331A700323637202332B75330790
:1021100002D5201CA36998470422AB6A6B8B13433A
:102120006B8345E0627A2368D2B29B6A012A12D19E
:10213000638E013B9BB26386638E9BB2002B37D1CB
:102140002975211C38310B700333637216422FD06E
:10215000201CE3682BE0DB05A16ADB0DDAB20A7014
:10216000A26A511CA162A179012904D11B0A5370F2
:10217000A36A0133A362238E013B9BB22386238E85
:102180009BB2002B14D1221C3832137004332B75F0
:10219000627A022A04D11E420AD0201C636906E03A
:1021A000637A002B04D1B30702D5201C236998471A
:1021B00002210F4214D06379012B11D1637ADBB273
:1021C000012B0DD1E279002A0AD129750131617202
:1021D000211C38310A701E4202D0201CE368984747
:1021E000FF0907D080232B752B76730602D5636A0F
:1021F000201C9847F8BDC046100900202009002087
:10220000024BDB68DB06FBD57047C0460008004088
:102210000222F8B50026094D094C2B68094F1343DB
:102220002B60A284B847AB68E3626B68A362A684A4
:10223000B8472B68301C9BB2A384F8BDB4010020C2
:10224000000800400122000010B5082806D802F05E
:102250005BFC0705052E2E120A15260000202AE039
:10226000154B186927E0154B186A154B8005800F30
:10227000C340181C1FE0104B58691CE002230E4C91
:102280002068184017D00F4B984723685B0711D57B
:102290000D4B00209847A3689BB258430BE00B4BB3
:1022A00000201B785B0706D5034BD86803E080202D
:1022B000000200E0064810BDB40100200008004004
:1022C00000127A00012200001D2800005008004082
:1022D000006CDC0270B501218678057842784020D8
:1022E000094C0A40236A9201834313438022314000
:1022F000C90193430B437D3A044915402D020B401D
:102300002B43236270BDC04600080040FFFCFFFF66
:10231000F0B5224F4278067885B0BB8A03927242AC
:102320005641427B8178C47805790192027B029202
:10233000827B806894461A4A5061B00004260122CC
:10234000B343184308231440B44015409843ED00AC
:102350000543DB189D432C431140103349019C4336
:102360000C434021029B8C4313409B011C43019B67
:1023700049181340DB018C431C43072303990B408E
:1023800008491B020C401C4363461A401303064ACB
:1023900022401A43BA8205B0F0BDC0460008004092
:1023A000B4010020FFF8FFFFFFEFFFFF027A43892F
:1023B00092069B059B0D120C1A43194B30B55A60BF
:1023C0004288848881791443C2790A434178224340
:1023D000C90104780A431A60042C0ED1027B018AD9
:1023E00092060A43151CC2890E4912040A402A4368
:1023F0009A601A6814431C6010E0202C0ED1027BF6
:10240000018A92060A43141CC289064912040A4032
:1024100022439A601A6804490A431A6030BDC046D4
:10242000B40100200000FF032404000008B50828C0
:1024300006D802F069FB130505270D19071F2200B6
:10244000172020E00221104A136A0B43136219E09F
:1024500002210D4A93690B43936113E002210A4A5A
:10246000138A0B4313820DE00221074A938A0B4320
:10247000938207E0054B984705E00221044A137850
:102480000B431370002008BD00080040112200001B
:1024900044080040C2231E21F0B5444FDB00444AEB
:1024A000BB60536800248B431A390B4353600223EB
:1024B00091B00BAD2B703F4EE0B2291C0134B047F8
:1024C0000196252CF7D1042207A842708022002310
:1024D00012028260012203708370C370837343739E
:1024E000354B0271027398470520344CA047FB68B6
:1024F0009B07FCD500233F226B80AB80AB71EB7157
:102500006A816B703B3A2E4B2A701B689B0E3F2BE7
:1025100000D1203B2B72B723DB002B8203232B73CC
:102520001C330126EB81281C0025264B984703A865
:10253000254B86704670057098470620A047234BB0
:102540009847052304AC301C211C2370204B666087
:102550006570257265729847301C1E4B9847211C88
:10256000281C019B26709847281C1B4B98471B4B27
:102570009847174A174ED023F9680B40D02BFAD151
:102580000025174B281C1D725D729D72DD7207239A
:102590002370053B6360211C013B237265706572EB
:1025A0009047281CB04711B0F0BDC046000800405D
:1025B0000040004101280000112300002D240000EC
:1025C00024608000AD230000D5220000F12500002A
:1025D00011260000B52600007D2700001122000012
:1025E00000040040014B5878C0097047000C0040BF
:1025F0000821054A93690B4393610122034B1A702A
:102600001A78D207FCD4704700040040000C004048
:10261000F8B50C784B782402061C051C0443002BEB
:1026200002D08023DB021C434B7A002B02D0802394
:102630001B031C434B68012B12D95D1E1D400AD1A0
:1026400002229A4202D201355200FAE780232D027B
:1026500035435B0303E01D02802335439B021C438B
:102660000B7A002B02D080239B031C430C4FB847EE
:102670000028FBD10B4B98470B4B1E70B847002826
:10268000FCD10A4B9D601D1CB8470028FCD180235B
:102690006A685B0213401C436C60054B9847F8BDA9
:1026A000E5250000CD160000080C0040000C00409D
:1026B0000117000038B5051C094CA0470028FBD1C4
:1026C000084B9847084B1D70A0470028FCD180217B
:1026D000064A490253680B435360054B984738BD7F
:1026E000E5250000CD160000040C0040000C004061
:1026F00001170000F7B5071C184EB0470028FBD1A2
:10270000174B9847174B1F700193B0470028FCD117
:10271000154D164B6868C004C00E9847041C019BF9
:102720001F706B68DB02DB0F0193114B1F70B0470A
:102730000028FCD1AD680F4B9847019B2D0AADB224
:10274000002B07D1012D07D9201C291C0A4B9847C3
:10275000041C01E00135EC40201CFEBDE525000015
:10276000CD160000040C0040000C0040492200007F
:10277000080C0040011700001D4B000010B5041CA0
:10278000064B98478021064B064A1C705388C901A6
:102790000B435380044B984710BDC046CD16000034
:1027A000020C0040000C00400117000010B5041C92
:1027B0000D4B98470D4B0E4A1C700E4B598858888C
:1027C0000905104058805C880B48090F204058804C
:1027D0005C8808486404FBD40B0241880A401A4311
:1027E0004280064B984710BDCD160000020C0040F9
:1027F000FFF0FFFF000C0040FFBFFFFF01170000CC
:1028000010B50C78034B240204439847024BA4B242
:102810005C8010BDAD270000000C004010B5041C0A
:10282000064B9847064B1C70064B5C88064B2405EC
:10283000240F9847201C054B984710BDCD1600006B
:10284000020C0040000C004001170000F5260000BB
:10285000D37830B5002B1BD11478802C03D0802383
:1028600024065B02234302255478AC4309D19478B3
:10287000002C02D18024A40201E0C024E4022343FE
:1028800041605478013C012C04D8114C234001E0F4
:1028900000234160A0258CB2ED052C43D0251C43BC
:1028A00084622D060C0C2C431C438462D478002CCB
:1028B0000CD15B0305D59378012B01D1816100E038
:1028C00041615378013B012B00D8816030BDC04687
:1028D000FFFFFBFF10B500240A1C4309C109A142F8
:1028E00002D10649DB015C181F21012301408B4006
:1028F000201C191C024B984710BDC04600440041E3
:1029000051280000012307B5002201A94B700B706C
:102910000220054B8A7098470422044B5A61044BED
:102920009847044B984707BD9917000000440041A1
:102930009524000031170000FEE7000021482249DD
:1029400070B50023884201D1204B07E0204CCA1803
:10295000A242F9D2C45804331460F7E71D4A9342E7
:1029600002D2002204C3F9E7FF21022403251A4BF7
:102970001A4A8B430C2693600822194B19495C6252
:10298000CB78AB432343CB70CB78B3431343CB70AB
:102990003021154B987B8843103908439873997BF5
:1029A000B1431143997380219A7BAA4322439A73BE
:1029B0000E4A53680B4353600D4B98470D4B984795
:1029C000FEE7C046106D000000000020B0000020AF
:1029D000A4000020F40D00200000000000ED00E045
:1029E000FC7000410050004100480041004000419F
:1029F000DD50000099470000054B021C19680029B2
:102A000001D104491960186882181A607047C046DD
:102A1000CC010020F81D0020A02330B587B001AA0A
:102A20001B0113800023FA219370D37053729372A9
:102A3000D372154BC900041CD18004200121D3811D
:102A40000623124D11711072117351731374281CE7
:102A50000F4B10499847281C0F4B9847012C01D960
:102A600001200EE0201C0D4DA847032801D1201C99
:102A7000A8470028F4D10A4B201C9847431E9841D0
:102A8000800007B030BDC046DE07000024090020EA
:102A9000D918000000140040B917000055160000B6
:102AA0008916000008B5054B9847031E03D0032381
:102AB000022800D0023B181C08BDC0465516000075
:102AC000F0B587B00293174B071C0D1C141C9847D8
:102AD000061E01D1012022E0134B381C05A998479E
:102AE000029A059B724301337343121904209A42E0
:102AF00015D87302039300230193019B029A93421A
:102B00000CD0211C2A1C094B381C9847039BA41984
:102B1000ED180028DED1019B0133EDE7002007B05E
:102B2000F0BDC04681160000691600009D16000029
:102B3000F0B587B00293174B071C0D1C141C984767
:102B4000061E01D1012022E0134B381C05A998472D
:102B5000029A059B724301337343121904209A426F
:102B600015D87302039300230193019B029A9342A9
:102B70000CD0211C2A1C094B381C9847039BA41914
:102B8000ED180028DED1019B0133EDE7002007B0EE
:102B9000F0BDC0468116000069160000B5160000A1
:102BA00037B50423051C032926D8081C141C01F082
:102BB000ABFF1C040D02012305E0104B281C01A9EA
:102BC0009847019B01332360002315E00C4B281C20
:102BD0009847431EDBB2012B04D9FB2204380123A2
:102BE000104209D10023237006E0064B281C9847A9
:102BF0000023984200D00333181C3EBD6916000024
:102C0000811600005516000007B50E4B0E486946A8
:102C100098476B4658791B7940051B0418436B464F
:102C20001B780A4A18436B469B78DB0218436B46B5
:102C30005B785B0118436B46DB889B185B06184387
:102C40000EBDC0467D1800002409002044F8FFFF97
:102C5000002310B5934203D0CC5CC4540133F9E790
:102C600010BD011C00230B315A08DB01134302780D
:102C700001309B18DBB28842F6D1181C704710B5A2
:102C80000268041C111E14D00B781F2B03D93A2B99
:102C900003D00131F8E700200DE0501C1378814289
:102CA00007D1303BD9B2072903D80232181C226061
:102CB00001E00120404210BD10B50924002810D0C9
:102CC0000368002B0DD01A78002A0AD0D988828890
:102CD000914206D15878044B98470123184000D1FF
:102CE000041C201C10BDC046A52A0000CB7E021C7F
:102CF000887E1B021843032A05D14B7D0A7D1B02E7
:102D000013431B0418437047F7B5071CC56A3037D7
:102D10000123041C391C40782A1C0F4EB0470123A4
:102D2000002817D1236AA2692071EB1A934201D3BC
:102D300000230FE0E3780193019B012BF8D9A369ED
:102D40006078ED18391C01232A1C034EB047019B03
:102D5000013BF0E7181CFEBD312B000008B5031C39
:102D600002790020824202D0181C014B984708BD0E
:102D7000092D0000F8B5C36A041C0E1C00259942F9
:102D800010D0094B9847051E0CD1211C60783031BA
:102D9000321C0123054FB847002802D00126013517
:102DA0007642E662281CF8BD5D2D0000C12A0000B5
:102DB000002310B50371013BC362214B041C9847EB
:102DC000011C0320002939D11E4B1F4AE35CA25C81
:102DD0001B0213431D4A1BB2013893422ED1231C00
:102DE00069331B78081C1A06231C68331B781B04E4
:102DF0001343221C663212781343221C6732127866
:102E000012021343124A1B021B0A934216D0231CC0
:102E100085331878013B1B7800061B041843231CDC
:102E200082331B788334184323781B021843000233
:102E3000084B000AC018431E9841C0B210BDC046DE
:102E4000752D00002F0200002E02000055AAFFFF82
:102E500046415400BABEABFF0023F0B5036089B011
:102E6000C94B071C081C161C98470B23051E00DACB
:102E7000C0E1C64B8200D4580C23002C00D1B9E12C
:102E80003C602378002B0DD0C14B6078984701231C
:102E9000034007D1002E00D1ACE1420700D4A9E1E4
:102EA0000A23A7E10023E8B223706070B94B98476A
:102EB0000323C20700D59DE1002E01D04307EFD4C4
:102EC000201C0021B44DA847012827D1231C002035
:102ED000F333FF3300221978914209D0DA791106D1
:102EE0009A7912040A4319790A43597909020A4363
:102EF000810004AE01308A5110330428EAD1002742
:102F000004ABDE590220002E04D0201C311CA8473F
:102F100000280CD00437102FF2D167E100260123DE
:102F2000032800D166E1B04201D00D2362E1231CE9
:102F3000221C3C331B783B3212781B021343802245
:102F40001BB292009342F0D1231C221C47331B7802
:102F5000463212781B02134311D1231C57331B78BE
:102F60001A06231C56331B781B041343221C5432AD
:102F700012781343221C5532127812021343009325
:102F8000009BA361231C40331A78531EE270012B6F
:102F9000CBD8231C3D331978A1700029C5D04B1E16
:102FA0001942C2D1231C42331F78013B1B783F02D8
:102FB0001F4327813B07B8D1231C44331878013BBA
:102FC0001B780002184310D1231C53331878013B9F
:102FD0001B7800061B041843231C50331B7818432E
:102FE000231C51331B781B021843231C251C3F3321
:102FF0001B783E352D781B021D43019595D0009B13
:1030000053430393039A3B095B199B18029398421D
:103010008BD3C01A614B9847002886D0604B01259E
:10302000984204D95F4D8542AD416D420235019B06
:10303000029A0230F31892196061E6612362A2627B
:10304000032D17D1002F00D06FE7231C5F331B78AF
:1030500080001A06231C5E331B781B041343221CBA
:103060005C3212781343221C5D3212781202134331
:1030700063620FE0002F00D157E7039AD318636211
:10308000022D01D1400005E00323012243431040FB
:103090005B081818444BC018009B400A834200D2BA
:1030A00043E701235B422361E36081336371032DB6
:1030B00061D1231C221C61331B78603212781B0201
:1030C0001343012B57D1711C201C384B9847002803
:1030D00051D1374B6071374AE35CA25C1B0213434A
:1030E000354A1BB2934246D1231C33331B781A0650
:1030F000231C32331B781B041343221C30321278FA
:103100001343221C31321278120213432B4A93428A
:1031100031D12B4BE35C1A062A4BE35C1B041343AF
:1031200085229200A25C1343274AA25C1202134339
:10313000264A93421FD1264BE35C1A06254BE35CDB
:103140001B04134386229200A25C1343224AA25C12
:10315000120213432361214BE35C1A06204BE35C0C
:103160001B04134387229200A25C13431D4AA25CF6
:1031700012021343E3601C4A2570138801339BB28B
:103180001380E380002335E07F2C0000D40300206F
:10319000A52A0000192A0000B12D00001D4B0000D7
:1031A000F50F0000F5FF0000FF010000752D000085
:1031B0002F0200002E02000055AAFFFF525261416B
:1031C0001702000016020000150200007272416131
:1031D0001B0200001A020000190200001F0200007A
:1031E0001E0200001D020000D0030020012303285E
:1031F00000D09AE6181C09B0F0BDC04638B52F4B78
:10320000041C9847002857D12378032B4CD16379AD
:10321000012B49D1211C8C2230310B1C9200A218A9
:10322000934203D0002018700133F9E75522244B54
:103230004120E254234B9218E254221CDE3BFF3B18
:1032400031320B701370231C6122323385251A70C2
:1032500058707223AD0063551B4D63551B4B1C4DBD
:10326000E0541C4BE2542369B832FF32A3541A4A8B
:10327000180AA054194A180CA054194A1B0EA3543A
:10328000E3680132A354174A180AA054164A180CCE
:10329000A054164A1B0EA354E36960785A1CE262DC
:1032A0000123A847002363710021114B60780A1C99
:1032B0009847431E9841C0B238BDC0465D2D0000FE
:1032C0002E0200002F02000015020000160200006E
:1032D000312B000017020000190200001A02000042
:1032E0001B0200001D0200001E0200001F02000061
:1032F000A12B0000436902399A1E0023914203D298
:103300008378826A59438B18181C7047F7B50124DB
:10331000A14265D94369994262D203780E1C051C0B
:10332000022B2DD0032B3FD0A34259D14F08036A63
:103330007F18790AC9182B4B9847002802D001241E
:1033400064424DE07B1CFF05590A0193FF0D2B6A77
:10335000EF193037C918281C224B3F7898470028AE
:10336000EDD1019BD805C00D2D1830352B781B02EF
:103370001F43264201D03C0932E03F053C0D2FE0BF
:10338000036A090AC918174B98470028D7D1FF23A9
:1033900076005B001E40AB193036AD1930336C78C7
:1033A0001B7824021C431BE0036AC909C9180D4B92
:1033B00098470028C3D1FD30B600FF300640321CCC
:1033C0003032AA189478D37824041B061C4353780F
:1033D000AE191B0230361C4333781C4324012409E8
:1033E000201CFEBD752D0000F8B5051CE980846821
:1033F0000E1C012C01D1022038E003685A69944266
:10340000F9D2002C0BD11A78032A02D15A6A002A69
:1034100004D11A899642EED2586A17E0141C211C76
:103420009F783F01BE420DD32868114B9847011C7D
:10343000431C1AD00128DED92B685B699842DAD286
:10344000F61BEFE728680B4B0C1C9847EC60002834
:10345000D1D00F2133093140181849012B68303180
:10346000591828616961002000E00120F8BDC046BC
:103470000D330000F5320000F7B5041C0E1C151CBE
:10348000022001297AD96369994277D2237800937F
:10349000834241D0032B53D0012B6FD14B085B18D3
:1034A0000193590A236A364FC918201CB8473A1CA1
:1034B000002863D1019B00995F1CDB05DB0D0E40EA
:1034C000E318E9B2002E08D0191C303108780F211A
:1034D0000140E8B200010143C9B230331970012341
:1034E0002371236A790AC918201C9047002845D106
:1034F000FF05FF0DE719002E02D02D09EDB208E0FF
:103500003B1C30331A780F232D0A9A432B401A4361
:10351000151C30373D702FE0236A090AC918201C9A
:10352000174B9847002829D1FF2376005B001E40E7
:10353000A319303330361D70A6192D0A75701BE0A3
:10354000236AC909C918201C0D4B9847002815D1BA
:10355000FE23B6005B001E40331C3033E318DA78DC
:10356000A6191209120715432A0A303635705A7007
:103570002A0C2D0E9A70DD7001232371FEBDC0460A
:10358000752D0000F8B5051C0E1E06D1C768002F6A
:1035900013D043699F4211D30FE0244B9847012475
:1035A000A04241D9431C02D1012464423CE06B6932
:1035B000041C371C984201D236E001273C1C6B6981
:1035C00001349C4204D3012F01D800242CE00224B2
:1035D000281C211C154B9847002808D0431C01D0FB
:1035E000012801D1041C1FE0BC42E8D1EDE7281CF2
:1035F000211C0F4A0F4FB847002812D1002E0AD1C4
:103600002B69EC605A1C0FD00122013B2B616B79B6
:1036100013436B7108E0281C311C221CB84700289A
:10362000EED00128C0D00124201CF8BD0D330000CD
:10363000FFFFFF0F79340000F7B5C6880136B3B23B
:10364000002B01D104206FE00369002BFAD00F2278
:1036500032400F1C041C0092002A5DD1C168013366
:1036600003610068002903D103899E42EAD253E036
:1036700082783309013A1A424ED12C4B9847051EE5
:10368000012D01D802204FE0431C01D101204BE065
:10369000206843699D4239D3002FD3D0E168244B81
:1036A0009847051C0720002D3ED0012DEAD06B1C49
:1036B000ECD0204F2068B84701970028E6D1236856
:1036C0008C211A1C890030325B189A4203D00021E9
:1036D00011700132F9E72768291C381C164B9847EE
:1036E000F862002723689A7897420CD201221A7157
:1036F0002068019B98470028C8D122680137D36A07
:103700000133D362EEE7DA6AD71BDF62E560206837
:10371000291C094B984720610020009B22685B010F
:103720003033D318E6806361FEBDC0460D33000020
:10373000853500005D2D0000F532000001235B425D
:10374000F0B503840133FF33061C1C1C87B00093C3
:1037500030683169494B9847071E00D08BE0756986
:103760002B78002B00D181E0E97AE52B72D03F2243
:103770000A40090702D50F2A6CD101E00F2A54D163
:10378000F2690292002A69D04022134206D0934384
:10379000697B1C1CF3880091338401E0A3425CD157
:1037A0006B7B009A934258D1EB7EAA7E1B02134397
:1037B0001BB2002B51D13F222F7801931740013FBC
:1037C000323A57430C3A2E4B0199C95C6B185B781F
:1037D000695C1B0219430391002A12D0FE2F3CD8CA
:1037E000081C284B98477B1C0493029B7F00059084
:1037F000F85A244B9847059B83422ED1039A049F85
:1038000003E0214B0399994227D1019B0133019396
:103810000D2BD8D12B785B062AD5002A28D0029B05
:103820007F00FB5A002B23D017E0002C05D1174B4B
:10383000281C9847009B83421DD00123B269D17A8E
:103840000B4007D1E85CD15C0133884202D10B2BDD
:10385000F8D110E001235B423384FF24301C0021A7
:103860000B4B9847071E00D172E704E0042702E0E3
:10387000013CE4B2F2E7381C07B0F0BD752D000042
:10388000A05A00007D430000FFFF0000632C0000F1
:1038900039360000F0B50B7887B0061C0F1C2F2BB3
:1038A00001D05C2B00D101370024B4603B781F2B82
:1038B00006D8301C211C974B9847746127E10137CB
:1038C0003B782F2BFBD05C2BF9D00025F3690393B9
:1038D000785D6C1C1F281CD92F281AD05C2818D0A2
:1038E000FF2D00D100E101218B4B9847002800D12A
:1038F000FAE07F2808D80023884AD25C002A03D047
:1039000001338242F8D1EFE0039B6D005853251C30
:10391000DEE73F191F23002483426441A400002DE9
:1039200000D1E1E06B0003999A1E8A5A202A01D047
:103930002E2A01D1013DF2E7002203995A52B369C0
:103940001A1C0B32934203D0202119700133F9E77E
:10395000002303995A008A5A202A01D10133F8E73B
:103960002E2AFBD0002B06D003221443E4B202E03F
:10397000013D002D05D06A000399023A8A5A2E2A89
:10398000F6D1082202920022059201925A1C04925A
:10399000039A5B00985A00285DD0202805D02E2875
:1039A00008D1049BAB4200D1A0E003231C43E4B246
:1039B000049BEBE7059B029A934203D2049BAB4224
:1039C0001CD193E0029B0B2B06D103230B221C433B
:1039D000E4B2019B02923FE0049BAB4205D003237B
:1039E0001C43049BE4B2AB4235D8019B04959B0079
:1039F000DBB201930B230293033B2AE07F280DD90E
:103A00000021454B9847002803D0454B18188038B3
:103A1000007802231C43E4B2002807D00023414A67
:103A2000D25C002A07D001338242F8D103231C4321
:103A3000E4B25F2008E0031C413B9BB2192B5AD82B
:103A40000223019A1A430192B369059A9854131CF0
:103A500001330593ACE7019BB2691178E52901D1E7
:103A6000E0391170029A082A02D1019B9B00DBB257
:103A70000C221A400C2A03D003211940032902D139
:103A800002210C43E4B2A1070BD403210B40012B0C
:103A900002D10F331C43E4B2042A02D108231C4391
:103AA000E4B2B369301CDC7200211A4B984700283D
:103AB00002D1301C1C4B9847B369DB7A002805D033
:103AC000042824D1034222D1013020E05B071ED418
:103AD0007169CB7ADB0605D533681878134B9847A4
:103AE000B060EDE6052012E0062010E0029B0B2BF3
:103AF00000D07AE769E7031C613B9BB2192BA3D87E
:103B00000123019A20381A43019280B29CE707B042
:103B1000F0BDC046E933000041430000105A0000E8
:103B2000205A0000195A00003D370000ED2C00001B
:103B3000F0B5C36989B0856905AF0093041C854B56
:103B4000381C291C0C229847FB7A01273B4258D08D
:103B50000023EB72E3617F4B281C05A90B229847D9
:103B60003B1E052B13D900990A88002A0FD010207C
:103B700002315B009C460123134063445208DE037C
:103B800001D5754E734001380028F2D1ECE70721CA
:103B90000F221A40101C3030392801D93732101C3E
:103BA000013903AA561870701B09F1D17E205054B8
:103BB0008B4208D0E85C202805D00133F8E7E854B0
:103BC0000133072B05D820200729F8D8505C013194
:103BD000F5E7201C0021614B9847002809D1201CE3
:103BE0005F4B9847002804D10137642FB3D10730C9
:103BF000ADE0042800D0AAE005ABDB7AEB72009BB5
:103C0000E36105ABDB7A01279B070CD50020009A06
:103C10004300D35A002B01D00130F8E719300D21B1
:103C2000504B9847071C201C00214C4EB0470028E1
:103C300017D1051C206821694B4B9847002810D1EB
:103C400063691B78E52B01D0002B03D10135BD4200
:103C500001D10AE0051C201C0121444B9847002893
:103C6000E8D0042873D1033071E0013D002D50D01D
:103C7000E188201C491BB047002868D1A0693C4B53
:103C80009847019021692068374B9847011E5ED103
:103C9000EAB200926A46E36912799C4663690D2094
:103CA0005A730F22DA72EAB2013A4243081C1973BE
:103CB0009976D9762F4EB04203D066465000805B8D
:103CC00001322D4E8E5D98559E19371C060A7E7066
:103CD000002800D1274801310D29EBD12549884220
:103CE00004D061465200525A002A03D14022009962
:103CF000114300916A461278201C1A700123226831
:103D000000211371194B9847002820D1013D002D47
:103D1000B8D120682169144B9847002817D16369EE
:103D20001A1C2032934203D0002119700133F9E7A5
:103D300060690B22074BA1699847A3690020DA7AD2
:103D40001823134062691373012223681A7109B0A2
:103D5000F0BDC046512C000021100100E9330000E5
:103D60003D3700001D4B0000752D00003936000066
:103D7000632C0000FFFF0000A05A000070B5041C77
:103D80000D1E012D01D8022024E043699942FAD288
:103D900063699D4205D2201C291C0F4B9847061EC3
:103DA00001D1002016E00128EDD0431C11D0201CC9
:103DB000291C0022094B984700280BD123695A1C63
:103DC00005D0012201332361637913436371351CEC
:103DD000DEE7012070BDC0460D33000079340000DD
:103DE0001FB5124B019003A8141C00910391984732
:103DF0000B22002817DB0E4B8000C258002A01D08E
:103E000000211170019A002A01D00021117001993E
:103E100019500A1E07D00022012C04D101A86946BE
:103E2000044B9847021C101C04B010BD7F2C0000EE
:103E3000D4030020592E0000F0B591B0051C039169
:103E40000920002D00D198E0171C00231E222B60B2
:103E50003A4007A803A94A4B9847002800D08CE0B5
:103E600004AB0D93474B07A80E930399464B984715
:103E70000C9C002802D1002C00D106301F261C23E8
:103E80003E401F424CD000280AD0042802D107A887
:103E90003E4B984708230C9C1E43002807D06CE03B
:103EA0001123E27A1A4267D108207B0765D43307D1
:103EB00040D5374B98470027030CDBB282B2C1B222
:103EC000120A2374000E2376079BA173E273A17577
:103ED000E27560746076E77227776777A777E77790
:103EE00018780193211C2B4B98470123019AA77640
:103EF000E7762775677502901371B8421AD0101CC7
:103F00000299254BD76A9847002836D1029B07981B
:103F1000013BC360391C214B984700280AD02CE094
:103F200000282AD1E37A0420DA0626D4BA0701D57C
:103F3000DB0721D4330701D520231E43079F211C13
:103F4000FB6AAE710026EB612C62EE713878114B82
:103F500098472861E37F301C1A06A37F1B04134394
:103F6000227F1343627FAE6012021343EB60AE61A7
:103F70002F60FB88AB8000E0072011B0F0BDC04689
:103F8000592E0000D001002095380000313B000080
:103F9000092C0000ED2C00007D3D0000752D000077
:103FA000F0B585B003930023151C039A041C13601D
:103FB000524B01919847002800D09DE0E0790028FD
:103FC00000D099E0A3790730DB0700D494E0E368E0
:103FD000A2682F1C9B1A9D4238D91F1C36E0A2688C
:103FE000D30577D12068530A8678013E3340DEB28C
:103FF000002E2ED0236861690293181C404B98470D
:1040000000282FD0831900937D0A43D0029BAA1960
:104010009B789A4200D99D1B029B01995878009A7F
:104020002B1C384EB047002820D1A3795B0622D440
:104030006D02019B039A5B190193A3687F1B5B19B7
:10404000A360039B1B6800935B191360002FC6D10C
:1040500051E0002A01D1206902E061692A4B9847AA
:10406000012801D8022002E0431C02D10120E071A6
:1040700042E06061BEE7A369009A981AA842D7D2CD
:10408000211C8022019B40021818243192001F4BF2
:104090009847CDE7A269009B9A4219D04025A379A1
:1040A0002B420BD0211C029B24315878184E01233F
:1040B000B0470028DAD1A379AB43A371211C236850
:1040C00024315878009A01230E4DA8470028CDD1FD
:1040D000009BA361A3683D1CD9058023C90D9B00EB
:1040E0005B1A9F4200D91D1C6118243101982A1CBB
:1040F000064B98479DE7381C05B0F0BDB92C000071
:10410000F5320000C12A00000D330000512C0000E0
:10411000312B0000F8B5264B041C9847061E45D1EC
:10412000A3799A0642D540252B420DD0211C236845
:10413000204E58782431A2690123B0470126002877
:1041400034D1A379AB43A3712068E1691A4B984736
:10415000061E2BD12027256AEB7A3B43EB72237B8B
:104160002B77637B6B77E3681B0CAB77E3681B0EE5
:10417000EB7723691A0AAB761B0C2B751B0AEA76C0
:104180006B750E4B9847030AA875EB75030C000E70
:10419000AE74EE742B766876A3792268BB43A37164
:1041A000012313712068064B9847061C301CF8BD8C
:1041B000B92C0000312B0000752D0000092C0000E7
:1041C000FD31000010B5064B041C9847002805D1AE
:1041D000201C044B9847002800D1206010BDC04629
:1041E00015410000B92C0000F7B54E4B041C0D1C06
:1041F0009847002800D094E0E079002800D090E0B3
:10420000E3689D4203D9A279920700D41D1C0022C5
:10421000A368A260954201D1002556E02768BE78C8
:104220007602002B14D0013B0093311C3E4B681EDC
:1042300098473D4B0190311C00989847019B834261
:1042400006D3009A73421A40A260AD1A616911E068
:10425000216900290DD1381C344B9847011E0129D2
:1042600001D1022002E0431C02D10120E07158E09C
:10427000206161610029CFD0B5421AD9A3792068A5
:104280009B0704D5294B9847011E03D110E0284B0A
:104290009847011C4B1CE8D00129E2D923685B69CF
:1042A0009942DED2A36861619B19A360AD1BE3E76D
:1042B000351CA3685B19A360EB05ADD020681D4BCE
:1042C00098470028CDD06D0A4519A368DB051ED09C
:1042D000A26995421BD0261C4021A37924360B42AB
:1042E0000BD02368311C5878134F0123B84700289E
:1042F000BBD14022A3799343A3712368311C587822
:104300002A1C01230D4EB0470028AED1A561A36839
:10431000E2680020934204D92022E360A37913438A
:10432000A371FEBDB92C00001D4B000085350000B7
:104330000D330000F5320000312B0000C12A0000CF
:1043400010B57F2816D9002906D0FF2811D880384B
:10435000094B4000C05A0DE0074A4C00A25A8BB2EC
:10436000824203D001318029F6D10B1C8033D8B2B0
:1043700000E0002010BDC0468A5E000070B57F28B6
:1043800006D8031C613B192B1AD8203880B217E0DD
:10439000F72500210C226D006B1A5B085B18094E93
:1043A0005C00A65BB04207D001D81D1C00E0191CC0
:1043B000013A002AF0D103E0002A01D0024BE05A72
:1043C00070BDC046AE5A00008A5F0000002210B5E2
:1043D0000378002B08D04C7801301B1B4C689B00E5
:1043E0001B5DD218D2B2F3E7101C10BDF0B58FB030
:1043F000039217AA12780E1C944600220A920B927E
:104400000C920D92149A02901478A94A013CE0177C
:10441000400F0019C010C5B2164004D50827013E50
:104420007F423E4301360027F6B2C9100096049140
:10443000F9B20CAEA94203D2FF21F1550137F7E7DB
:10444000224004D50824013A644222430132FF2469
:1044500001329440E24301353254EAB20192FF2B1B
:1044600004D063460026012B61D108E000230CAA8A
:104470009A5C0AA95A540133082BF8D1F1E78D4B05
:10448000159814999847039B0026834202D9181A5D
:104490004010C6B20123009A5B429340DB43029A6C
:1044A000002794469BB20593049B013BDB019C448F
:1044B000BBB2B3423BD2002563462C1CF9187E4B9D
:1044C000C918059B08200AAA1218525D009880316D
:1044D0008240A4180AAAAA5CA4B2D243D2B28240F3
:1044E0009B180A789BB222431A400A70FF225BBADB
:1044F00064BA0135019813401440EAB28242E1D314
:104500000825021C0AA84019805C009A803190405E
:10451000241808780AAA044301980137105C009A0D
:10452000C043C0B290401B1823400B70C0E7029AF2
:10453000039B94466344DBB2B6180793F3B29C46E0
:104540000123009A5B429340DB43002704999BB20E
:1045500001390593CB010693159BDA5D002A66D0DD
:10456000149B5B78D31A149ADBB252689B00D31861
:1045700002921A7803925B880493069B049C63441E
:104580000893049B039AE31A9BB2934248D20020FB
:10459000011C089B049A059D9A1A474B1219D218C0
:1045A000029408260AAB9B191B5C009E8032B34024
:1045B000C918149B029E9B6889B209939B5D1E1CBF
:1045C0000AABC35C01307340009EB340ED18137812
:1045D000ADB20B432B401370FF236DBA49BA029E54
:1045E0001D401940039BF318019E0293C3B2B342CE
:1045F000D7D3301C08260AAB9B19185C009B80326D
:104600009840091810780AAB014301980134185CEE
:10461000009BC043C0B298402D180D401570B0E704
:10462000131C6344DBB29C467B1C9FB294E76A4632
:10463000634613811489079B9C4235D20026301CA7
:10464000069BE1181C4BC918059B0CAD009F725DC1
:104650008031BA4080180AAAB25C80B2D243D2B28A
:10466000BA40FF279B180A789BB202431A4040BA0F
:104670005BBA3B4038400136019F0A70F2B2BA4241
:10468000E3D3009AED5D8031954040190D780AAA78
:104690002843D55D009AED43EDB295405B19034088
:1046A00001340B70A4B2C6E760460FB0F0BDC0463F
:1046B00007000080CD43000050040020F0B5071C27
:1046C0000E1C151C8BB0059310AB04CB0F4C1B7844
:1046D00014AA069312AB1B78099207931399201C16
:1046E0000B4B9847109B2A1C0093069B311C02938E
:1046F000079B01940393381C059B064DA847201C7B
:10470000054B9847C0B20BB0F0BDC0462C09002045
:1047100089510000ED4300004B51000037B56B4656
:104720001025D91D0823054C087001226561044835
:104730006361044B9847A56137BDC0460044004102
:10474000D0080020D11F0000F8B50024502010260A
:104750000827404220430B4DC0B2A8471020A8476D
:104760000020A847084D094BE1016E61C918AF61EF
:1047700007488022074B013498476F61AE61BC4205
:10478000E4D1F8BD1D470000004400415004002062
:10479000D0080020D11F0000F0B5B04B8DB0984775
:1047A00000220AA8AE4B02705B68C270DB061B0FCA
:1047B0008370AC4B027142709847AB4A13780692F3
:1047C0005BB2002B04DB137802229343069A13702A
:1047D0000023A64DAB602B7BDB0709D404222B887A
:1047E000134205D180235B006B802B8813432B8001
:1047F000802636029E4C301C211C40229D4B98473F
:104800000528F7D0002303216888984A084201D17F
:10481000E15C0CE050880840012802D15900615A3F
:1048200005E050880140022902D199006158516089
:10483000C046C046C046C0460133402BE3D1FE23EC
:1048400040365B029E42D5D16B889B049B0E012BA8
:1048500001D1864A13730421AB682A889BB28A432C
:104860002A8000226A80934209D180231B021A68A1
:1048700082F30888804A9360804B1B689847804B7E
:10488000984780227F4B80488049D2009847804BD0
:104890009847804DA84700207F4B98470795011EF9
:1048A00019D00128F5D100207C4B98470228F0D080
:1048B0007B4B002098470A2200237A4D0021A8470D
:1048C0000023794A794D80185941794A0023A84735
:1048D000784B9847E7E78C22774D9200774B281C5E
:1048E0009847281C76490122764B98470B282AD0F6
:1048F000754D7649281C0122754B98470028C8D170
:10490000099072B6BFF35F8F8026724B3602187023
:10491000301C714B98470528FAD0FE230136FF362C
:104920005B029E42F4D18021281C09026B4B802639
:104930009847360209AB281C211C4022684FB84713
:10494000099B402B17D00020544B98470228A0D039
:10495000534B002098470A220023524D0021A847BC
:104960000023514A514D80185941514A0023A8470C
:10497000504B9847E7E7301C211C4022594B984781
:104980000528F8D0584B6420009301230027C0214C
:1049900002937043554B01970393554B4902C0183E
:1049A000544B98473B1C04903221381C8022524FB4
:1049B000B847079B9847FE2340365B029E42B9D119
:1049C000281C4E4B984700240126474F4C4B322160
:1049D000802202960393484D231C00970194201CCB
:1049E000A8472C4B98472E4B201C9847FA222D4D58
:1049F00052000023211CA84700232B4A2B4D80186E
:104A000059412B4A0023A8472A4DA8473D4B322144
:104A1000802202960393384E231C00970194201C99
:104A2000B0471C4B98471E4B201C9847FA221D4E3E
:104A300052000023211CB04700231B4A1B4E801844
:104A4000594100231A4AB047A847201C134B9847E6
:104A50000228B8D1069B1870FEE7C0460529000061
:104A600000400041190300000010004000480041D0
:104A7000B00D0020FD04000000ED00E00480000007
:104A8000E50100002951000050040020506800009A
:104A9000FD07000049470000650E00001D080000EA
:104AA000F5260000814C0000571B0000414C00001F
:104AB000581B0000010000205C0900203B51000051
:104AC0002E680000E13D00008C0B002031680000E2
:104AD000393E0000310000206D050000E941000072
:104AE000A13F000059040000340000203F6800008E
:104AF0000000CEFF1D4B0000BD460000C541000078
:104B000044680000B86C000002B4714649084900CE
:104B1000095C49008E4402BC7047C046002243082D
:104B20008B4274D303098B425FD3030A8B4244D375
:104B3000030B8B4228D3030C8B420DD3FF220902B7
:104B400012BA030C8B4202D31212090265D0030B76
:104B50008B4219D300E0090AC30B8B4201D3CB036C
:104B6000C01A5241830B8B4201D38B03C01A5241AE
:104B7000430B8B4201D34B03C01A5241030B8B42B0
:104B800001D30B03C01A5241C30A8B4201D3CB029B
:104B9000C01A5241830A8B4201D38B02C01A524180
:104BA000430A8B4201D34B02C01A5241030A8B4283
:104BB00001D30B02C01A5241CDD2C3098B4201D39B
:104BC000CB01C01A524183098B4201D38B01C01A19
:104BD000524143098B4201D34B01C01A5241030990
:104BE0008B4201D30B01C01A5241C3088B4201D33F
:104BF000CB00C01A524183088B4201D38B00C01AEC
:104C0000524143088B4201D34B00C01A5241411A12
:104C100000D20146524110467047FFE701B500201F
:104C200000F00CF802BDC0460029F7D003B5FFF72D
:104C300075FF0EBC4243891A1847C0467047C046EC
:104C4000002B11D1002A0FD1002900D1002802D059
:104C50000021C943081C07B4024802A14018029071
:104C600003BDC046D9FFFFFF03B4684601B50298F3
:104C700000F04CF8019B9E4602B00CBC7047C04649
:104C8000F0B54F46464605042D0C2C1CC0B4170445
:104C9000160C3F0C9946030C7C4375435F437343EA
:104CA0007D19260CAD199C46AF4203D980235B02C7
:104CB0009846C4444B465143434324042E0C240CD1
:104CC0002D0466442C1959188919201C0CBC9046D7
:104CD0009946F0BDF0B583B0161C1F1C00900191E1
:104CE00000F02EF8041C0D1C221C2B1C301C391C3F
:104CF000FFF7C6FF009A019B121A8B410899201CEE
:104D00000A604B60291C03B0F0BDC046F0B5141C0E
:104D100083B01D1C0090019100F00AF9221C2B1C8D
:104D2000061C0F1CFFF7ACFF009A019B121A8B4167
:104D30000899301C0A604B60391C03B0F0BDC046B6
:104D4000F0B544465F4656464D46F0B41C1C85B04F
:104D5000002900DAA9E00F1C0021061C8846101C5F
:104D6000191C002C00DA97E0341C3D1C8246894651
:104D7000B94273D870D04946504600F085F9834651
:104D8000391C301C00F080F95B46181A031C83465E
:104D9000203B9C4600D59CE0002300225146009217
:104DA000019363469940019151468140019B0091D6
:104DB000BB4200D983E000D17EE0009A019B341C05
:104DC0003D1CA41A9D416346002B00DA9AE00026A0
:104DD00000270296039701369E40039601268640DF
:104DE0000296002800D171E00099019AD3079946F4
:104DF0004B464E081E435708002301220CE0AF42E9
:104E000001D1A6420AD8A41BBD4124196D41013825
:104E1000A4185D41002806D0AF42F0D9013824190A
:104E20006D410028F8D12022029E039F5B4652422A
:104E300036196F4199185AD4281CC8402C1C5B465F
:104E4000DC40002968DB041C8C40231C5946884048
:104E5000021CB61A9F4103E0B0428CD900260027FD
:104E600041464B1E9941002300910193009A019BFA
:104E7000002554429D41331C6340181C3B1C6B4071
:104E8000191C009B019CC018614105B03CBC9046B8
:104E90009946A246AB46F0BD4346DB430C1C984600
:104EA000131C00215842A1415EE7002746428F4172
:104EB00001214942884652E7B14200D87DE70026E9
:104EC000002702960397002800D08DE7029E039FDB
:104ED000C6E720215346091ACB400022191C0023A3
:104EE000009201934B4683400B4301935CE75A4683
:104EF00020239B1A2A1C9A40201C131C5A46D0407F
:104F000018439BE720260027331A002602960397B2
:104F10000127DF40039761E75B4620215D46C91A00
:104F2000031CAC40CB40191C231C0B438EE7C0462E
:104F3000F0B545464E465746E0B4041C82B00D1C01
:104F4000914698468B4262D85FD04146484600F071
:104F50009BF8291C061C201C00F096F82023311A0F
:104F60005B428A46C81865D44B4683401F1C4B469B
:104F70008B401E1CAF4258D855D0A41BBD41002801
:104F800000DA77E000220023009201930132824090
:104F9000019201238B40009300293CD0FB079846E7
:104FA000404672087B080243012600270CE0AB4212
:104FB00001D1A2420AD8A41A9D4124196D41013998
:104FC000A4197D41002906D0AB42F0D9013924193A
:104FD0006D410029F8D12022009801995346524290
:104FE000001969419E183AD42F1CF7405346DD4002
:104FF000002E29DB3C1CB440231C5446A7403A1C1D
:10500000801A99410090019105E082429DD90023C8
:105010000024009301940098019902B01CBC9046B2
:105020009946A246F0BDA342A7D9002200230092D0
:105030000193B1E720224B46521AD3401A1C434633
:105040008B401F1C174392E7534620245646E41A10
:105050003B1CB540E3401C1C2B1C2343CDE75246B0
:1050600020239B1A2A1C9A40271C131C5246D74007
:105070001F43BBE720230022581A0023009201930C
:105080000132C240019284E710B5002903D100F03B
:1050900007F8203002E0081C00F002F810BDC046FE
:1050A0001C2101231B04984201D3000C10391B0A58
:1050B000984201D3000A08391B09984201D300091C
:1050C000043902A2105C40187047C0460403020273
:1050D0000101010100000000000000000E4B70B54E
:1050E00000251E1C0D4CE41AA410A54204D0AB00F0
:1050F000F35898470135F8E701F0F6FD084B002515
:105100001E1C084CE41AA410A54204D0AB00F358AE
:1051100098470135F8E770BDF46C0000F46C0000AE
:10512000F46C0000F86C0000002310B5934203D02B
:10513000CC5CC4540133F9E710BD031C82189342C0
:1051400002D019700133FAE770470023C25C0133C3
:10515000002AFBD1581E704730B59BB000910491D6
:1051600008496D4602910591012182244942E98155
:10517000A4006946AC8100F0CDF80023009A1370BA
:105180001BB030BDFFFFFF7F38B5051C0C1C131C86
:10519000034A291C1068221CFFF7DEFF38BDC046F9
:1051A000A0000020032370B5CC1C9C430834051CD0
:1051B0000C2C01D20C2405E0002C03DA0C23002077
:1051C0002B6042E08C42F9D3204A1368101C191C52
:1051D000002913D00A68121B0DD40B2A02D90A60C9
:1051E0008B181FE08B4202D15A6802601BE04A68AC
:1051F0005A600B1C17E00B1C4968E9E7144E336832
:10520000002B03D1281C00F001FB3060281C211C5E
:1052100000F0FCFA031C421CD0D00322C61C9643AB
:1052200086420AD11C60181C07210B301A1D8843C6
:10523000821A0AD05142995007E0311A281C00F016
:10524000E5FA431CBAD0331CECE770BDF80300202C
:10525000F4030020F0B58E6885B0071C0C1C039287
:105260000193B34245D390238A89DB001A423DD093
:1052700003250969236801985B1A029363695D43FA
:10528000EB0F5D19029B6D1001331B189D4200D27C
:105290001D1C381C53050FD5291CFFF783FF061E64
:1052A00013D0029A2169FFF73FFFA289184B1340E0
:1052B00080221343A38111E02A1C00F01FFB061E6D
:1052C0000CD1381C216900F0D3FA0C2340220120B4
:1052D0003B60A38940421343A38117E0029B2661F0
:1052E000F61826606561019EED1AA560019BB34228
:1052F00000D2019E321C2068039900F0A4FA00201D
:10530000A3689B1BA36023689E19266005B0F0BDAF
:105310007FFBFFFFF0B59FB0029005938B890E1CB9
:10532000171C1B0610D50B69002B0DD14021FFF770
:1053300039FF30603061002804D10C23029A013813
:105340001360D0E040237361002306AD6B6120330E
:105350006B761033AB763C1C2378002B03D1E31B18
:10536000049312D003E0252BF9D00134F4E7049B19
:105370000298311C3A1CFFF76DFF431C00D1ACE0D2
:105380006A69049B944663446B612378002B00D1C7
:10539000A3E00122002352426A6002A9543252184B
:1053A00001342B60EB60AB601370AB654F4F21781D
:1053B000381C052200F03CFA002808D0C01B012749
:1053C0008740381C2B68013418432860EEE72B68AF
:1053D000DA0604D55322202102A8121811701A07E8
:1053E00004D553222B2102A81218117022782A2AE0
:1053F00001D0099B0EE0059A111D12680591002A43
:1054000001DB099204E05242EA60022213432B605E
:10541000013409E02278303A092A04D80A214B43A2
:1054200001349B18F6E7099323782E2B18D1637863
:105430002A2B09D1059B02341A1D1B680592002BEB
:105440000DDA01235B420AE0002301342278303A6E
:10545000092A04D80A214B4301349B18F6E7079325
:10546000234F2178381C032200F0E2F9002807D0EE
:10547000C01B40278740381C2B6801341843286024
:1054800021781C480622671C297600F0D1F90028F3
:1054900012D0194B002B06D10722059B07339343EB
:1054A0000833059314E005AB00930298291C321CC5
:1054B000124B00E000BF07E005AB00930298291CE7
:1054C000321C0E4B00F08AF80390039B013304D08A
:1054D0006B69039A9B186B613DE7B3890B985B0678
:1054E00001D5012040421FB0F0BDC046B46C0000A1
:1054F000BA6C0000BE6C00000000000055520000B5
:10550000F7B5171C01930A698B6800900C1C934235
:1055100000DA131C221C3B6043321278002A01D0AF
:1055200001333B6023689B0602D53B6802333B6036
:10553000062523681D401ED0231C43331B785A1EAA
:105540009341226892061CD53020E1184031C87082
:10555000211C5A1C45310978A21840320233D170FF
:105560000FE0221C0123009801991932089EB047D0
:10557000431C0ED00135E3683A689B1A9D42F0DB6C
:10558000DAE7221C009801994332089DA847431C82
:1055900002D10120404220E006232068E1683A68F9
:1055A00003400025042B03D18D1AEB43DB171D406C
:1055B000A3682269934201DD9B1AED180027AF42D0
:1055C0000ADA221C0123009801991A32089EB0477A
:1055D000431CDED00137F2E70020FEBDF0B58BB0F2
:1055E00006920A1C43320793059004920A7E0C1C13
:1055F000109B6E2A00D1A8E011D8632A22D009D8C6
:10560000002A00D1B2E0582A00D0C2E045310A7029
:105610007C4A4FE0642A1DD0692A1BD0B9E0732A66
:1056200000D1A7E009D86F2A29D0702A00D0B0E0B5
:10563000202209680A43226037E0752A1FD0782AA1
:1056400033D0A6E00E1C1A684236111D196013688B
:105650003370A1E021681A68080606D4490604D50B
:10566000111D19600023D55E02E0111D1960156837
:10567000002D3BDA2D23049A6D42137036E0216829
:105680001A68080606D4490604D51568111D196064
:10569000ADB202E0111D196015685A4B227E0393CA
:1056A0000A276F2A1DD108271BE0221C78214532CA
:1056B0001170554A19680392081D226818600D6818
:1056C000100602D4500600D5ADB2D30702D5202370
:1056D0001A4322601027002D03D1202322689A4309
:1056E0002260231C002243331A7002E00A27454B34
:1056F00003936368A360002B03DB042221689143BA
:105700002160002D02D1049E002B0ED0049E281C87
:10571000391CFFF789FA039B013E5B5C281C337040
:10572000391CFFF7FBF9051EF1D1082F09D12368B9
:10573000DB0706D563682269934202DC3023013E11
:105740003370049B9B1B23612BE009681A680806D1
:1057500007D4490605D5111D19601368A28A1A805D
:1057600004E0111D1960136862691A600023049E29
:10577000236116E01A68111D196016680021301C9B
:10578000626800F055F8002801D0801B60606368F3
:1057900003E0261C42363270012323610023049A61
:1057A0001370079B05980093211C069B09AAFFF71D
:1057B000A7FE431C02D10120404221E02369059845
:1057C0000699321C079DA847431CF4D023689B0709
:1057D00005D4099BE068984212DA181C10E00025F5
:1057E000E368099A9B1A9D42F3DA221C012305986B
:1057F00006991932079EB047431CDCD00135EFE70C
:105800000BB0F0BDC56C0000D66C000038B50023AD
:10581000064C051C081C2360FDF7EEF8431C03D161
:105820002368002B00D02B6038BDC046F00D00204F
:10583000C9B28218904204D003788B4202D0013062
:10584000F8E70020704710B5814208D28B189842C3
:1058500005D29B1A013A09D3995C8154FAE70023D7
:10586000934203D0CC5CC4540133F9E710BD00006F
:1058700030B500293ED004390B68002B00DAC91876
:105880001D4A1368141C002B02D14B60116031E0DB
:1058900099420DD208680A189A4203D11368C318B6
:1058A0000B6053684B60216024E08A4203D8131CCC
:1058B0005A68002AF9D11D685C198C420BD109681D
:1058C000691858181960904214D110685268091864
:1058D00019605A600EE08C4202D90C23036009E083
:1058E00008680C18944203D11468526800190860C3
:1058F0004A60596030BDC046F8030020F8B5061C68
:105900000C1C151C002904D1111CFFF74BFC041CB6
:1059100018E0002A03D1FFF7ABFF2C1C12E000F0C7
:1059200013F8A8420ED2301C291CFFF73BFC071EBF
:1059300007D0211C2A1CFFF7F7FB301C211CFFF7A6
:1059400097FF3C1C201CF8BD0B1F1A68101F002A73
:1059500004DA891804390B68D0180438704700003D
:10596000000000000A0000000C0000000D00000014
:105970000F00000014000000190000001E000000CD
:1059800023000000280000002D000000320000006D
:10599000370000003C0000004600000050000000FE
:1059A0000A00000064000000E80300001027000067
:1059B00000000000000000000000000000000000E7
:1059C0000A0000000C0000000D0000000F000000A5
:1059D000140000001A0000001E0000002300000058
:1059E000280000002D0000003400000037000000F7
:1059F0003C0000004600000050000000000800428B
:105A0000000C00420010004200140042090A0B0C76
:105A1000222A3A3C3E3F7C7F002B2C3B3D5B5D00C5
:105A20004355454141414143454545494949414126
:105A30004592924F4F4F5555594F554F9C4F9E9FF2
:105A400041494F55A5A5A6A7A8A9AAABACADAEAF35
:105A5000B0B1B2B3B4414141B8B9BABBBCBDBEBF2D
:105A6000C0C1C2C3C4C54141C8C9CACBCCCDCECFC9
:105A7000D1D145454549494949D9DADBDCDD49DF22
:105A80004FE14F4F4F4FE6E8E85555555959EEEF66
:105A9000F0F1F2F3F4F5F6F7F8F9FAFBFCFDFEFF8E
:105AA00001030507090E10121416181C1E00E00051
:105AB000E100E200E300E400E500E600E700E800C2
:105AC000E900EA00EB00EC00ED00EE00EF00F00072
:105AD000F100F200F300F400F500F600F800F90020
