:020000020000FC
:10800000A051002095FE000091FE000091FE0000AE
:108010000000000000000000000000000000000060
:1080200000000000000000000000000075CA000011
:10803000000000000000000041CB000085CB0000E4
:1080400091FE0000691F010091FE000091FE0000FA
:1080500011C2000091FE0000F1C0000091FE00007E
:1080600091FE000005EF000015EF000025EF000075
:1080700035EF000045EF000055EF000091FE0000D5
:1080800091FE000091FE000061C8000071C8000070
:1080900081C8000091C80000A1C8000091FE000046
:1080A00091FE000091FE000091FE000091FE000094
:1080B0000000000010B5064C2378002B07D1054BBB
:1080C000002B02D0044800E000BF0123237010BD44
:1080D000000100200000000030760100084B10B5C0
:1080E000002B03D00749084800E000BF0748036899
:1080F000002B00D110BD064B002BFBD09847F9E7B1
:1081000000000000040100203076010030760100FC
:10811000000000007047C04610B5034B1B68002BE1
:1081200000D0984710BDC0461C010020F0B557464E
:108130004E464546E0B4002817D080460D4B994680
:108140000020C847002529000B4A00238018594108
:108150000A4A00230A4EB0470A4B984701235B4264
:108160009C46E0444346002BEAD11CBC904699460D
:10817000A246F0BD05FC0000571B0000581B000084
:10818000852D010001000020F8B5074C202767610C
:10819000402666616420054DA847A7610A20A847CC
:1081A000A6610A20A847F8BD804400412D81000047
:1081B00070B582B00023134A136001AC01256570CD
:1081C000A3702570210026200F4EB04721002520E6
:1081D000B04721002720B0470C4B1B681D4203D03D
:1081E0000A4B1B689B0701D4094B9847094B9847DA
:1081F0000122094B1A70BFF35F8F62B6002002B0F4
:1082000070BDC0461C0100206DEA000010E000E0D7
:1082100015810000898100004100002010B584B064
:108220000E4B186001AC20000D4B9847242301939E
:1082300000236360013323720133E37221000420C1
:10824000084B9847002204210748084B9847002113
:108250000420074B984704B010BDC0461C01002005
:10826000FDC2000011C3000019810000A5C100007B
:10827000D1C1000010B5002804D000210420044B17
:10828000984703E000210420024B984710BDC046E8
:10829000D1C10000F1C1000030B591B0304C0523D0
:1082A000237000236370A37001A901224A708B70B0
:1082B0000A7005202B4B98472378D9090022002902
:1082C00004D15A09D20128498C4662441F210B402F
:1082D0001E3908009840906102AC2170002303937E
:1082E000049323746374A174E17423752422A3544A
:1082F000183A002108A81D4B984780235B02E360D1
:108300001B4BA36201235B42E3621A4B23631A4BAC
:1083100063631A4BA361220019491A481A4B984704
:10832000002819D1174D2C682000184B98471F239F
:1083300018401E3B8340164A13602A68D369002BFD
:10834000FCD12268023313432360124B984701206B
:10835000114B9847002001E00620404211B030BD8B
:10836000A82D00206DEA000000440041C144010036
:1083700003000400030006000300070000127A0057
:1083800000080042AC2D002015F00000D9EE0000DE
:1083900000E100E0898100002D810000F0B55F461A
:1083A00056464D464446F0B485B003286DD10E685C
:1083B0004D680C89002202ABDA71002E08D0002D26
:1083C00060D1012399460023984602ABDD1D05E0EC
:1083D000002399460133984602ABDE1D01222F4946
:1083E0002F48304B9847002C3FD02D4B9B46012700
:1083F00004229A4604239C4649464B425941019126
:10840000C14630785B461B68197E3942FCD0197E24
:108410003942FCD09862197E1142FCD051468979CC
:108420008846197E1142FCD0588B0021104205D09D
:10843000598B6046014389B259831E214046012869
:1084400003D1986AC005C00D01E0986AC0B2002946
:10845000E7D12870013CA4B2019B984645444B46A5
:1084600059424B41F618002CCBD10D4B1968022212
:108470000B7E1342FCD0002208490948094B98475B
:10848000002004E00620404201E00120404205B007
:108490003CBC90469946A246AB46F0BDA82D0020B4
:1084A000AC2D00200DF3000070B50B4D2C682000A2
:1084B0000A4B98471F2318401E3B834080220849DF
:1084C0008B502A68D369002BFCD123680222934386
:1084D0002360002070BDC046AC2D0020D9EE000006
:1084E00000E100E0002A06D082180B78037001300A
:1084F00001319042F9D17047002A04D082180170EE
:1085000001309042FBD1704703000278002A07D067
:108510000020013080B201331A78002AF9D100E03E
:10852000002070477047C04610B5034B18680349D8
:10853000034B984710BDC0465C3400203801002032
:10854000CDD6000000B583B00120084B984701A9A3
:108550000748084B9847002806D10221019B194380
:1085600001910348044B984703B000BD7582000099
:10857000701000004D9500005995000010B50E4B8D
:108580001B78002B11D10D4B1B78032B03D00B4B09
:108590001B78042B09D10A4B984700280BD10949B5
:1085A00009480A4B9847002805D1034A137801333C
:1085B000DBB21370002010BD480100203401002000
:1085C0004591000078560000741000005995000095
:1085D00000B583B0174B1B78002B04D0154A1378D5
:1085E000013BDBB21370134B1B780020002B1ED114
:1085F000114B1B78032B03D00F4B1B78042B16D188
:10860000002301930D490E480E4B984700280ED1C8
:1086100001A901300C4B9847002808D101998B071C
:1086200005D50223994301910130064B984703B0C9
:1086300000BDC04648010020340100202143000055
:1086400074100000599500004D95000010B50023EE
:10865000084A1360084A1360084A1370084A1370E6
:10866000084A13700848094B9847094A094B1A6091
:10867000002010BD240100203C0100204801002002
:108680003401002028010020298500001D820000FF
:10869000258500002C01002010B50A4B98470023C7
:1086A000094A1370094A1370094A1370094A137072
:1086B000094A1360094A1360094A1360094A1360A2
:1086C00010BDC0467D850000340100204801002017
:1086D0004001002028010020240100203C0100204E
:1086E000440100202C010020F0B5574680B488B02A
:1086F00082460C00019200930EAB80CB1E8810AB1B
:108700001D887F220A4007AB5A70187008225A80D1
:10871000002F05D05A889219AA1892B25A8006E002
:1087200007AB5A8800998C46624492B25A804C4BEF
:108730009847002800D08FE00023059302AAD38039
:108740000493049B52461A430492049B24021C4344
:10875000049407AB5B88049A1B04134304930499A5
:108760004048414B9847002876D100230493049A4F
:1087700002331343049304993C483B4B9847002829
:108780006AD10022059202ABDA8006331B889BB2C5
:10879000374A93421CD8374C04A93448A0470028D4
:1087A00016D1049B9B0708D405A93348314B984741
:1087B00000280DD0002305930AE002ABDA880132CD
:1087C00092B2DA8006331B889BB2294A9342E3D9DE
:1087D000059B002B3ED0059B069307A94B889BB2B7
:1087E0004B8006980822254B9847002834D1069BD9
:1087F00008330693019B002B0BD00698009C2200A7
:1088000019001E4B9847002826D1069BA4466344B6
:108810000693002F0ED0069B009AAD1AED18069510
:10882000069832003900154B9847002814D1069B52
:10883000F3180693059B9B000493049A02231343A9
:10884000049304990E48084B9847002804D10D4B17
:10885000984701E00320404208B004BC9246F0BDB6
:108860007D8500008C1000005995000078100000F4
:10887000E70300004D95000000041500CD950000B1
:108880006C100000D1850000F0B5474680B484B07C
:108890005D4C5E4EA0470028FCD101A95C48B04762
:1088A0000028F7D1019BDB0700D4A2E0594B984781
:1088B00001230199994301915548574B9847002846
:1088C000E8D10022554B1A70019B9B041B0D984662
:1088D000E0D00023039303A951484C4B9847051E51
:1088E00003D001204B4B984786E002AF04223900A9
:1088F00003984C4B984705007B889BB27B800028EF
:1089000003D00120434B984776E002AB5B889BB2D3
:1089100098450BD002AB5B884246D31A042B05DD89
:1089200001203C4B984706256D4265E002AB1B7861
:10893000012B0DD13C4B1B68002B50D002AA507864
:10894000C0B25188039A0832083989B2984746E084
:1089500002AB1B78022B0DD1344B1B68002B3ED091
:1089600002AA5078C0B25188039A0832083989B2F5
:10897000984734E002AB1B78042B0DD12C4B1B68BD
:10898000002B2CD002AA5078C0B25188039A08322A
:10899000083989B2984722E002AB1B78062B0DD12B
:1089A000244B1B68002B1AD002AA5078C0B2518801
:1089B000039A0832083989B2984710E002AB1B7855
:1089C000072B13D11C4B1B68002B08D002AA507830
:1089D000C0B25188039A0832083989B298470F4BC0
:1089E0001B78002B05D1154B984702E006256D42F8
:1089F00002E0134B98470500002D00D04AE7002005
:108A000004B004BC9046F0BD7D8500004D9500008B
:108A10007010000075820000599500004001002090
:108A20008410000065950000240100203C01002016
:108A30004401002020010020300100204585000075
:108A4000D1850000F0B54F464646C0B483B006005D
:108A50000C0015001F00002803D0002901D0002AB7
:108A600007D1002F34D00122214B1A70214B984797
:108A700039E069462048214B9847002833D1009BB4
:108A8000984601A91E481D4B984700282BD1434604
:108A90009B041B0D98469D421DD8019B9E421DD3F1
:108AA0007219914643449A421BD82A002100300093
:108AB000144B9847002816D1019B4344994501D097
:108AC000002F10D001220A4B1A700A4B98470AE077
:108AD0000C20404207E00C20404204E00C204042C1
:108AE00001E00C20404203B00CBC90469946F0BD1A
:108AF0004001002045850000701000004D950000E9
:108B0000841000006595000007281BD880000F4BDB
:108B10001B589F460E4B1960002015E00D4B196045
:108B2000002011E00C4B196000200DE00B4B196088
:108B3000002009E00A4B1960002005E0094B19608C
:108B4000002001E00C2040427047C04680620100D6
:108B50003C01002024010020440100202C010020C1
:108B6000200100203001002030B59DB014002C28D9
:108B700011D10023042201A92000854CA047002820
:108B800000D003E1834B1B68002B00D1FEE001A95C
:108B90002C309847FAE01B2811D10023082201A9A4
:108BA00020007B4CA047002800D0EFE0794B1B68E9
:108BB000002B00D1EAE001A91B309847E6E0062827
:108BC00011D10123302201A92000714CA0470028B7
:108BD00000D0DBE06F4B1B68002B00D1D6E001A971
:108BE00006309847D2E00E2800D1CFE0322811D1CC
:108BF0000023102201A92000654CA047002800D0C6
:108C0000C4E0644B1B68002B00D1BFE001A93230E7
:108C10009847BBE02F2816D16422002101A85E4BA3
:108C200098470023642201A92000594CA04700283E
:108C300000D0ABE0574B1B68002B00D1A6E001A988
:108C40002F309847A2E0342811D10023042201A933
:108C500020004F4CA047002800D097E04D4B1B68E8
:108C6000002B00D192E00021343098478EE011288B
:108C700017D10022494B1A700023043201A92000A9
:108C8000434CA047002800D080E001AB1A78444B49
:108C90001A70404B1B68002B78D001A911309847FF
:108CA00074E013280FD100232C2201A92000384C96
:108CB000A04700286AD1374B1B68002B66D001A95A
:108CC0001330984762E004280FD1002304221AA928
:108CD00020002F4CA047002858D12E4B1B68002B9A
:108CE00054D01AA90430984750E065280FD10023CA
:108CF00004221AA92000264CA047002846D1254B63
:108D00001B68002B42D01AA9653098473EE009281D
:108D10000FD10123642201A920001D4CA047002887
:108D200034D11C4B1B68002B30D001A90930984767
:108D30002CE02A280FD10123042201A92000144C81
:108D4000A047002822D1134B1B68002B1ED001A97D
:108D50002A3098471AE0202818D10023082201A9B8
:108D600020000B4DA847002810D101AB9A882000A5
:108D7000083001230199064CA047002806D1054B75
:108D80001B68002B02D001A9203098471DB030BDD0
:108D9000458A00004C010020F984000050010020A9
:108DA0005101002010B5041E3AD02D4B98470028E1
:108DB00039D020002A4B9847202837D82123E35C5C
:108DC0000D2B36D84123E35C002B07D14233E35C03
:108DD000002B03D14333E35C002B2DD03F23E35C16
:108DE000012B2CD0032B2CD11F33E35C013B032B35
:108DF0002AD82323E35C102293430A2B27D124345F
:108E0000002C27D02000164B9847002825D02000A2
:108E1000134B9847030000201A2B20D90C381EE072
:108E20000C2040421BE00C20404218E00C20404245
:108E300015E00C20404212E00C2040420FE00020E0
:108E40000DE00C2040420AE00C20404207E00C20DC
:108E5000404204E00C20404201E00C20404210BDA2
:108E60000985000010B58AB001226B46DA7100282E
:108E70001DD00268104B1A600022104B1A706B460E
:108E8000D81D0F4B9847041E13D100200D4B984757
:108E9000041E08D10C4901200C4B984702A80C4B2A
:108EA0009847040005E000200A4B984701E00C2495
:108EB000644220000AB010BD4C0100205001002087
:108EC000E19600004D860000698B0000098B0000D0
:108ED000359600004597000010B50020034B9847D9
:108EE0000020034B9847002010BDC0469986000023
:108EF0004597000010B5014B984710BD89880000C8
:108F0000F0B54F464646C0B4A3B005900C0015001E
:108F10001F002AAB1B8899462BAB1B789846012A69
:108F200025D0002F00D185E0022A20D13800574BF0
:108F3000984740281BD13B781A00303A362A7CD813
:108F40000A3A062A7CD9473B192B7CD97A1C38006F
:108F50004030137819003039362977D80A39062974
:108F600077D9473B192B77D901328242F1D1631E61
:108F70001F2B74D84B460D2B01D9FF2B72D107AE96
:108F8000220005995A2002AB9C466044404B98470A
:108F9000341946340023237044334A46F252434680
:108FA0005A1E93416722B3544123F554032D1DD11A
:108FB0003B78013BDBB207AA1370032B55D87A78B4
:108FC000511E07AB59701023110099430B294FD143
:108FD000B91C162002AB9C4660442D4B98477B7809
:108FE00007AA9446634400229A7018E0022D0CD11F
:108FF0003800264B9847431E9BB23F2B3BD8421C60
:10900000390007A8224B984709E0042D05D13E22DC
:10901000390007A81E4B984701E0012D2ED10023EF
:109020000293019300936C3307AA28210120194C65
:10903000A04725E00C20404222E00C2040421FE0E7
:109040000C2040421CE00C20404219E00C20404221
:1090500016E00C20404213E00C20404210E00C20AF
:1090600040420DE00C2040420AE00C20404207E064
:109070000C20404204E00C20404201E00C20404221
:1090800023B00CBC90469946F0BDC046098500004F
:10909000E5840000E986000030B583B006AC248882
:1090A000002501950094024CA04703B030BDC04696
:1090B000018F000010B584B00200002302930193D9
:1090C000009310330A210220014CA04704B010BDC8
:1090D000E986000010B584B00400094B98470028C9
:1090E0000AD10023029301930093483322004621C2
:1090F0000130044CA04701E00C20404204B010BDF8
:10910000A58D0000E9860000F0B583B00400A52518
:109110006D010A4E0A4F21002800B047002C09D0EB
:109120000023019301A92800B8470028F3D1019B2F
:109130009C42F0D1002003B0F0BDC046599500001C
:109140004D950000F0B55F4656464546E0B484B004
:109150000120364B984703A90120354B98470190D1
:1091600000285CD10024334B9B46304B9A46324B4F
:1091700098460221039B19430120D8470120D0477C
:1091800002A9434618682A4B9847002802D1029B3F
:10919000002B0ED1284D0E232B600120234B984726
:1091A000286802A9224B984700280DD1029B002B6A
:1091B0000AD0029B5B0732D40134032120001F4BED
:1091C000984700290DD021E01B4D13232B6001206F
:1091D000164B9847286802A9154B98470028E8D0F5
:1091E00012E0124F144E124D0220B84702A9306807
:1091F000A847029B5B0712D40134032120000F4BC8
:1092000098470029F0D001E0019008E00221039B7B
:1092100019430120074B9847029B5B07A9D501988A
:1092200004B01CBC90469A46A346F0BD2D810000B8
:109230004D9500005995000010000020A52B01005D
:1092400000B583B001A91748174B984700281CD1D7
:1092500080214900019B194301911248134B984703
:10926000002815D101A9D02040010F4B98470028B4
:1092700011D180214902019B19430191D020400165
:109280000A4B9847002809D10AE00620404207E02F
:109290000620404204E00620404201E00620404211
:1092A00003B000BD081400004D9500005995000062
:1092B00010B582B0274B1C68002C46D119008020C5
:1092C0004001254B9847002803D00022214B1A600B
:1092D0003DE001A92148204B9847002803D00022F7
:1092E0001C4B1A6033E01B4B1B681D4A934206D18E
:1092F000019B012B21D01B4A164B1A601DE01A4A14
:1093000093420CD1019B032B17D0042B03D1174A96
:10931000104B1A6011E0164A0E4B1A600DE0154A08
:1093200093420AD10B49EC2080030B4B984700284D
:1093300003D00022074B1A6009E0064A0E4B116861
:109340000B40A021C9020B431360024B1C68200094
:1093500002B010BD540100204D950000F413000030
:10936000A0021000A1021000B0021000B102100013
:10937000B2021000F0001000FFFFF0FFF8B5070088
:10938000244D254C254E2800A047002802DB012053
:10939000B047F8E72248204B9847C30709D41F4E2F
:1093A000204C1D4D0120B0472000A8471E4B98427D
:1093B000F8D1022F09D11D491D481E4CA04780211C
:1093C00049031D48A04700270EE0032F08D1174985
:1093D0001748184CA04700211748A047002703E072
:1093E000043F7B425F41FF01144B98470005000D8D
:1093F000E8239B00984204D102203843104B984741
:1094000002E038000E4B98470E490648094B984732
:109410000020F8BD14100000419500002D810000CF
:10942000BC0702000C000C009ED0AD107DD51C3C8A
:10943000AC070200599500008C100000B1920000AA
:1094400009910000612F52EF70B582B0154B019366
:10945000154B0093023801280CD8144B0193144B80
:10946000009307E00220B0470198A847013C002C78
:1094700005D112E00124644200200E4E0E4D009BE7
:109480009842EFD1009A0020074B9A4207D1002161
:1094900004480A4B9847002001E00520404202B0F2
:1094A00070BDC0468C10000036265302AC07020087
:1094B000C3C15DD72D810000419500005995000082
:1094C00070B582B000230193A024640101A920009B
:1094D000124B98471249019B194001912000114BF2
:1094E0009847002817D10A240C4D0E4E01A9A02040
:1094F0004001A84700280ED101994B050AD5084B19
:1095000019400191A0204001B047013CE4B2002C79
:10951000ECD100E0002002B070BDC0464D950000C7
:10952000FFFBFFFF5995000010B5014B984710BD98
:109530009982000010B5014B984710BDA984000026
:1095400010B5014B984710BD319B000010B5014B81
:10955000984710BD459B000010B5014B984710BDC2
:109560005D9B0000F0B557464E464546E0B482B0DC
:10957000804689461500134B1F88083FBBB20193F4
:109580001E0004009A4206D80021AAB249442000D5
:109590000D4B984710E00C4B9A46371A4346E11A98
:1095A0004944019A2000D047002805D1AD1B391944
:1095B000A419B542F2D8E8E702B01CBC904699461F
:1095C000A246F0BD0C0000200D9C0000F0B55746EF
:1095D0004E464546E0B482B0804689461500134B9E
:1095E0001F88083FBBB201931E0004009A4206D8B0
:1095F0000021AAB2494420000D4B984710E00C4BC3
:109600009A46371A4346E11A4944019A2000D04746
:10961000002805D1AD1B3919A419B542F2D8E8E7E5
:1096200002B01CBC90469946A246F0BD0C0000203A
:10963000799C0000F0B583B004000023019301A9D8
:109640002048214B98470500204B019A9A4204D1AB
:1096500001A91F481C4B98470500019B1A0C1112C9
:10966000E17111110F2631402172324062721A12DB
:1096700022711A11324062713340A371154B984721
:10968000206023791A02A3793340134360790001E3
:10969000FF2738400343E0790002627A1640064310
:1096A000217A0901394032000A430B498A4201D923
:1096B0000D256D42094A934201D80D256D422800BF
:1096C00003B0F0BDAC0702004D950000C3C15DD7EB
:1096D00048100000B1920000301300002F1300006A
:1096E00070B5002805D005786B1E032B02D9012523
:1096F00000E0012500200D4B9847041E14D10C4BAF
:10970000984728000B4B9847041E0BD128000A4BA2
:109710009847041E06D1023D012D05D9074B9847F5
:10972000041E01D0064B9847200070BD299500000B
:10973000759B00007D930000499400004192000059
:109740003595000010B5084B9847041E0AD100203B
:10975000064B9847041E05D1054B9847041E01D1BE
:10976000044B9847200010BDC194000009A50000DB
:1097700035950000219B000000B585B001AB0022AB
:1097800001920290198119000320024B984705B0FD
:1097900000BDC0469D830000F0B583B0061ECF2EED
:1097A00004D003003B33DBB2012B07D801216B4609
:1097B000D81D184B98470023002828D10B246B464E
:1097C000DD1D144F01212800B84700281AD12B783D
:1097D000B34205D0013CE4B2002CF3D10B3400E0DD
:1097E0000B246B46DD1D0B4E01212800B0470028DD
:1097F0000AD12B78002B09D0013CE4B2002CF3D124
:10980000012304E0002302E0002300E0012318000C
:1098100003B0F0BD79970000F0B55F4656464D465F
:109820004446F0B483B08246894693460023984666
:10983000254F80239B01994502D84B461EB201E07B
:109840008026B6010A246B46DD1C01212800B8479A
:1098500000282BD12B781B090F2B04D0013C24B2FC
:10986000631CF2D129E0002C22DDB6B25046404400
:109870003100154B984700281CD15B46002B09D1BD
:10988000124B1B78002B05D1022101A80E4B9847E3
:10989000002811D14346F3181BB298464B469E1B35
:1098A000B3B29946002BC4D1012006E0002004E0A9
:1098B000002002E0002000E0002003B03CBC904605
:1098C0009946A246AB46F0BD7997000058010020AA
:1098D00000B585B001AB01900022029219811900F8
:1098E0000320024B984705B000BDC0469D83000091
:1098F00070B584B008AC257801AC20703F30C4B29C
:109900000E2C00D985E0A000494C2058874601ABB9
:109910000A0C5A700A0A9A70D970052181E00B0A64
:10992000DBB2002D02D101AA537004E08022524222
:10993000134301AA537001AB99700022DA7005211C
:109940006FE001AB00225A709A70DA70052168E06E
:1099500001AB00225A709A70DA70052161E001AB08
:10996000FF225A709A70DA7005215AE001AA080C99
:109970005070080A9070D170190A11715371072143
:109980004FE001AA080C5070080A9070D170190CB1
:109990001171190A51719371082142E00B0ADBB26F
:1099A000002D02D101A8437004E08020404203430F
:1099B00001A8437001AB9970110ED970110C197187
:1099C000110A59719A7108212BE001AB080C5870EB
:1099D000080A9870D970110E1971110C5971110A79
:1099E0009971DA7109211CE05B0010784340E35C57
:1099F0000132AA42F8D15B0001AA935501E0013976
:109A0000C9B289B201A80B4B98474342584140B2B2
:109A10000CE000200AE04E1E01AA95197F23064C97
:109A2000E2E7064B1B78002BE9D1F4E704B070BDE8
:109A3000A0620100D1980000DC6201005801002002
:109A400030B583B00A00302802D90023C92401E0D0
:109A50000123C32400930423010020000A4DA847DA
:109A6000002301280DD12000084B9847012301282D
:109A700007D00023009300220021CF20024CA047F2
:109A80000023180003B030BDF19800009997000042
:109A9000F0B585B00D00FF2802D90026CA2401E0E8
:109AA0000126C42400960423002201002000194F3F
:109AB000B847002301282AD12000174B98470128D6
:109AC00008D00023009300220021CF20114CA04792
:109AD00000231CE03200042103A8104B9847012802
:109AE00008D00023009300220021CF20094CA0477A
:109AF00000230CE003AA5378190293781B040B434C
:109B000011780B43D278120613432B6001231800FF
:109B100005B0F0BDF1980000999700001998000079
:109B20000022024B1A7000207047C04658010020E6
:109B300000B583B001A9024B9847019803B000BD5E
:109B4000919A000010B5044B98470023012800D0DB
:109B5000063B180010BDC046919A000010B5044B9A
:109B600098470023012800D0063B180010BDC046CE
:109B7000419A000010B582B0002300931D4A137073
:109B800069461D481D4B9847002808D10122194BF2
:109B90001A7069461848194B9847002828D0154B69
:109BA0001B78002B0DD17C33009999432C3B194332
:109BB00000911148124B9847002819D001220D4BF3
:109BC0001A7001A9802040010C4B984700280DD045
:109BD000094C20000B4B9847702301009943203B10
:109BE00019432000084B9847002001E0062040421E
:109BF00002B010BD5801002024E80000919A000036
:109C0000419A0000319B00005D9B000070B582B05E
:109C10000E00140000230093130000220100C8204E
:109C2000124DA84701281CD1C730114B9847012875
:109C300007D00023009300220021CF200B4CA04727
:109C40000FE00022210030000A4B9847030000205B
:109C5000012B08D00023009300220021CF30034CB9
:109C6000A0470620404202B070BDC046F1980000F7
:109C70009997000019980000F0B5574680B486B057
:109C80008A46150000230093130000220100C7201C
:109C90002F4CA047012855D1C6302E4B984701289C
:109CA00007D00023009300220021CF20284CA0479A
:109CB00048E0002205AB1A8000268027BF016B46D2
:109CC000DF812C1CBD4201D96B46DC89A4B2002E79
:109CD00004D10323BD4205D9023B03E00023AF4278
:109CE0005B4102330B2002AA944660441022524288
:109CF000134303700121184B9847002817D153468E
:109D000098192100144B9847002810D1134B1B7849
:109D1000002B05D1022105A80F4B9847002806D13A
:109D2000A3191EB22D1BADB2002DCAD108E000232D
:109D3000009300220021CF20054CA047002003E023
:109D4000002001E00620404206B004BC9246F0BD6F
:109D5000F198000099970000D19800005801002068
:109D6000F0B55F4656464D464446F0B485B0029085
:109D70000E0003921F000EAB1C88002C48D003017C
:109D800027495B58002B43D00301CB189B889BB21B
:109D9000002B3DD00301CB189B7A012B38D1F480E6
:109DA000030199460B004B449B46D84601975B46FE
:109DB0009B88E31A1BB2002B04DD43469D88ADB29D
:109DC000002301E025000123154A494689582A004D
:109DD0000198144FB84700281AD1114B4A46D3585E
:109DE0003360B580F3885B1BF3800F4B1B68002B3F
:109DF00005D00D4B1B683200039902989847641BED
:109E0000A4B2019B9C46AC4463460193002CCED186
:109E100005B03CBC90469946A246AB46F0BDC04654
:109E2000183A0020458A0000C83A0020F0B54F4695
:109E30004646C0B49BB00D00140041281AD100233F
:109E4000042209A92000AA4CA047002800D049E11B
:109E500009AB5A7805AB1A70A64B1B68002B00D1D2
:109E600040E1A44B1B6809AA0020105605AA012155
:109E7000984737E142281AD10023042209A920007B
:109E80009B4CA047002800D02CE109AB5A7805ABC9
:109E90001A70984B1B68002B00D123E1954B1B686F
:109EA00009AA0020105605AA022198471AE1432862
:109EB0003FD100230C2205A920008D4CA04700288B
:109EC00000D00FE105AB0921595600291ADB0A0120
:109ED000894B9B180022DA7201329A72874A1388E2
:109EE00001339BB2138013889BB2002B03D11388DC
:109EF00001339BB21380814B1A8892B20B017E48CA
:109F0000C318DA8009AB197002229A8005AA518819
:109F1000D980069A0B92774B1B68002B00D1E1E0A9
:109F2000744B1B6805AA0820105609AA04219847FB
:109F3000D8E0442801D04B2825D10023042209A9C8
:109F400020006B4CA047002800D0CBE009AB0020DC
:109F5000185605AA10705B785BB25370002B07D1BE
:109F600009AB5A88083A92B203016349CB181A81A7
:109F7000604B1B68002B00D1B4E05E4B1B6805AA48
:109F800005219847AEE04A2815D10023442209A9AB
:109F90002000574CA047002800D0A3E0584B1B6876
:109FA000002B00D19EE0564B1B68199A03921100BA
:109FB00009A8984796E0462805D0482805D00626E7
:109FC0004D2803D04CE0062600E00926002310228D
:109FD00005A92000464FB847002800D082E005AA16
:109FE0000C201056D3899C4603014349C91800230D
:109FF0000B730827D35F98465389994609AF538856
:10A000007B81069B0C93CA8892B294451FD143462C
:10A01000002B0DDDA8450BDA23004B444246694670
:10A020008A818A89009232003900364CA04759E073
:10A0300009AB42469A80002309932E4B1B68002BE4
:10A0400050D02C4B1B6809AA310098474AE0102DCC
:10A0500048D90123002200210020254CA04741E0DF
:10A06000452805D0472805D007254C2803D022E0F5
:10A07000072500E008250023082209A920001C4C20
:10A08000A04700282ED109AB002018569A8859887D
:10A0900005AB198003011849CB18DB889BB29A42A3
:10A0A00020D1144B1B68002B1CD0124B1B6805AA37
:10A0B0002900984716E0522814D10123142209A937
:10A0C00020000B4CA04700280CD10F4B0A9A1A60B5
:10A0D0001B68002B06D00C4B1C6809AB1A7C0B9933
:10A0E0000998A0471BB00CBC90469946F0BDC046ED
:10A0F000458A0000C83A0020183A00205A01002082
:10A10000D03A0020619D0000CC3A002010B50A4BE7
:10A110001B78002B0ED1B02200210848084B98472D
:10A1200008490220084B98470122034B1A7000226D
:10A13000064B1A8010BDC04659010020183A002075
:10A14000F98400002D9E0000098B00005A010020B8
:10A1500010B5B02200210748074B98470021022084
:10A16000064B98470023064A1360064A1360064AC6
:10A17000137010BD183A0020F9840000098B00000C
:10A18000C83A0020D03A002059010020024B186044
:10A19000024B19607047C046C83A0020D03A0020F0
:10A1A00070B586B01600022848D1012949D00B228B
:10A1B0000724022947D0083C4FE025002301CB1893
:10A1C0009B7A002B33D12001254BC018102200218F
:10A1D000244B98472B01224AD31801229A72224A13
:10A1E000138801339BB2138013889BB2002B03D1D9
:10A1F000138801339BB213801B4B1A8892B22B0138
:10A200001749CB18DA8064B2F30726D505AA147073
:10A210002D014D192123EB7200230293019300932A
:10A22000043350210220114DA84716E00C49013497
:10A23000E4B29442C1D3012464420EE0012464429A
:10A240000BE007220024250023010549CB189B7A47
:10A25000002BEBD120014018B8E7200006B070BDFC
:10A26000183A0020F98400005A010020E986000015
:10A2700030B589B00400002923D0002824DB030175
:10A280001648C3189B7A012B21D1002A22D005AD94
:10A290002C7208222800124B984724010F4B1C19DE
:10A2A000E3886B8100230293019300930C332A000F
:10A2B000412102200B4CA04700280DD0092040422C
:10A2C0000AE00620404207E00620404204E0062063
:10A2D000404201E00620404209B030BD183A00205B
:10A2E000E5840000E986000010B586B000281BDB7D
:10A2F0000301114AD3189B7A012B18D105AA1070BB
:10A30000517000010C4B1818C3885380002302932E
:10A3100001930093043342210220084CA0470028F7
:10A3200007D00920404204E00620404201E0062018
:10A33000404206B010BDC046183A0020E986000031
:10A34000002807DB0001064B1818837A012B04D183
:10A35000002004E00620404201E006204042704711
:10A36000183A002030B589B00C00002832DB0029F3
:10A3700033D01F4B9A4233D803011E49CB189B7A26
:10A38000012B30D104A908704A800301194DEB1844
:10A39000DB888B815025062800DD0C3D0301154923
:10A3A000CB18DB7A4521DB0705D50001114B1818C6
:10A3B0000589ADB2073180231943029501920094BB
:10A3C000703B04AA02200C4CA047002300280CD0AC
:10A3D0000E3B0AE006235B4207E006235B4204E0F3
:10A3E00006235B4201E006235B42180009B030BD42
:10A3F000B4050000183A0020E986000030B587B0A7
:10A40000002833DB002934D0002A35D004011E4D4A
:10A410002C19A47A012C32D10401615129198A80A6
:10A42000097B002200292CD12A1901211173D27A2B
:10A430004531D20700D50731002B02D1013B0493EF
:10A4400000E0049304AA107100010F4B1818C38890
:10A45000D3800023029301930093083302200B4C16
:10A46000A047002200280CD00E3A0AE006225242F1
:10A4700007E00622524204E00622524201E0062290
:10A480005242100007B030BD183A0020E9860000A3
:10A4900030B587B0041E29DB0301184AD3189B7A14
:10A4A000012B26D105A908700201144B9B18DA88EC
:10A4B0004A8000229A72DA80DB7A4921DB0700D5D4
:10A4C00005310023029301930093043305AA02206F
:10A4D0000B4DA847051E01D009256D4224010748F0
:10A4E000201810220021074B984704E006256D42F2
:10A4F00001E006256D42280007B030BD183A002063
:10A50000E9860000F984000070B582B00400294B90
:10A5100098470005000D0025274B984247D901A90F
:10A520002648274B9847051E41D12649019B1940D3
:10A53000254B194301912148244B9847002C16D0F4
:10A5400000212348214CA047AB212248A0470121EC
:10A550002148A04700212148A04781212048A04749
:10A56000204E214C3000A0470128FBD115E00021EE
:10A570001748164CA047B9211648A0470121164894
:10A58000A04700211548A04781211548A047154E36
:10A59000154C3000A0470128FBD10A49019B194006
:10A5A00080235B02194301910448084B9847280017
:10A5B00002B070BDB19200009F03000010140000B3
:10A5C0004D950000FF8F88F800101101599500008B
:10A5D000080201000C020100140201001C0201002B
:10A5E00004020100180201004195000000B583B08B
:10A5F00001A901234B7000228A7062B60B702B20D8
:10A60000034B984780221201024B9A6103B000BDB0
:10A610006DEA000080440041F0B55F4656464D4665
:10A620004446F0B483B001AC002525700126667065
:10A63000A570052200215448544B9847544F80235D
:10A640001B0198467B610220524B984772B64346E5
:10A65000BB612570667021002B204F4B984700206E
:10A660004E4B984702000023910F900012184B4167
:10A6700092185B414A48002180185941494A0023F9
:10A68000494CA047494B98470023494DA0244046D8
:10A690008026760202E00133B34206D099B22A59ED
:10A6A0000242F8D00023002907D1424B98470020EE
:10A6B00062E00133B34206D10CE03D4DA02480207E
:10A6C00000018026760299B22A590242F1D1002671
:10A6D000002907D1374B984700204DE00133AB42AA
:10A6E0000CD111E03248A0218022120180256D0298
:10A6F000254B9B469C469946984600239FB244585A
:10A700001442EBD0BA4601E000239A46002302E04F
:10A710000133AB4229D09FB244581442F8D1F40817
:10A720005B461B5D5B00DBB2574502D84F463B558D
:10A7300005E00127BA4657463B4367463B5501367D
:10A74000B6B2282ED9D11B4B98470F4A10785378B0
:10A75000C0189378C018D378C318FF20034010792D
:10A76000181A43425841C0B206E0F40843461B5D44
:10A770005B0047463B55E2E703B03CBC9046994638
:10A78000A246AB46F0BDC046D43A0020C144010009
:10A7900080440041D9D200006DEA000005FC0000B1
:10A7A000BFCF6A00C0CF6A00852D010001000020E4
:10A7B00000440041EDA5000000B583B001A90123CC
:10A7C0004B7000228A700B702B20044B984780221C
:10A7D0001201034B9A6103B000BDC0466DEA000050
:10A7E00080440041F8B5134B984700281FD0124E03
:10A7F000B4787F202040114DA8478721C905104B10
:10A800009847071CF078A847391C0E4B98470E4B09
:10A8100098470E4A0E4B0F4DA8470F4B984764B20E
:10A82000002C05DA80231B069C46604400E00020D3
:10A83000F8BDC04619A60000D43A00203138010006
:10A84000B9320100CD2F0100313E01009A9999994A
:10A850009999B93F3D390100D93E010070B50F4BC0
:10A860009847002817D00E4C20780E4B9847872128
:10A87000C9050D4B9847051C60780C4B9847291C5F
:10A880000B4B98470B4B98470B4A0C4B0C4CA04773
:10A890000C4B984700E0002070BDC04619A6000090
:10A8A000D43A0020C1380100B9320100313801002A
:10A8B000CD2F0100313E01009A9999999999B93F9C
:10A8C0003D390100D93E0100F0B585B001910A4E35
:10A8D0008027BF0277617E210140084D02AB9A1D9F
:10A8E0002800074CA0476B46998802AB9A1D2800A8
:10A8F000A047B76105B0F0BD80440041DC3A0020BC
:10A90000A1F20000F0B583B06B469C1D00232380AC
:10A91000094D8027BF026F617E21014080331943BA
:10A9200022000648064EB047220000210348B047E7
:10A93000AF61207803B0F0BD80440041DC3A0020D4
:10A94000A1F2000070B505000C00044B98470443C9
:10A95000E1B22800024B984770BDC04605A900002F
:10A96000C9A80000F0B583B00E0017008022920243
:10A970000F4B5A617E2101406B469A1D0D480E4BCC
:10A980009847002E0ED03C00013EF5B201357D19EE
:10A99000084E094F21786B469A1D3000B8470134A4
:10A9A000AC42F7D180229202014B9A6103B0F0BD14
:10A9B00080440041DC3A0020A1F20000F8B5060016
:10A9C0000D00170000210220154CA04704210A2089
:10A9D000A04780211420134B9847320029001220F1
:10A9E000114B984703210220A047104C104E04251C
:10A9F0000A20B047054204D1013CA4B2002CF7D193
:10AA00000CE000210220064B98474420084CA04748
:10AA100038704220A0477870002000E00320F8BD85
:10AA2000C9A8000045A9000065A90000881300001E
:10AA300005A90000F0B55F4656464D464446F0B4C1
:10AA400085B005000C000092019311AB1B789A466B
:10AA500012AB1B789B46109B002B01D01A7800E0AC
:10AA6000002253461B01D318DFB200210220784E8A
:10AA7000B0477F210820B04780211420754B9847AC
:10AA8000009A01991220744B984739001A20B04758
:10AA900029000220B0470C2D03D180211A206D4BD4
:10AAA0009847FA25ED006D4E01270820B047044273
:10AAB00006D1074200D0B9E0013D002DF5D1B7E045
:10AAC0000C20664B9847040001201323234200D03A
:10AAD000B7E00E9B002B6BD00F9B002B68D0133080
:10AAE0005E4B984703000F9909780420994200D2E1
:10AAF000A7E00F990B70002B4FD003AA0021118003
:10AB00008020800256494861013BDDB292215548C0
:10AB1000554B9847002D33D00026534B9846F3B23F
:10AB2000002B21D15346002B1ED0072B0AD800271B
:10AB300001210A009A401743FFB20133DBB2082B10
:10AB4000F7D100E0002703AB99461A00922145484F
:10AB5000454B98470E9B1B78BB434A4612881740CB
:10AB60001F430E9B1F7007E003AF3A0092213D4840
:10AB7000C0473B880E9A93550136F3B29D42CED81A
:10AB800003AE320000213748374B984733880E9A7E
:10AB9000535580229202324B9A6118202F4B9847CE
:10ABA000072303409846109A002A47D0137045E0C7
:10ABB0000220230745D40E9B002B3BD00F9B002B7C
:10ABC0003AD000205B46002B3BD00F9B1B78012B1B
:10ABD00004D14346042B25D0073032E0012B23D982
:10ABE00007204246002A2CD1023BD9B203AA0E9874
:10ABF0001E4B9847002824D10F9B1B780E9AD21821
:10AC0000023A117803AA12780720914219D10E9ABC
:10AC100094466344013B1A7803AB5B789A4210D1A7
:10AC200000200EE0FF200CE007200AE0032008E0EF
:10AC3000032006E0002004E0002002E002202307B9
:10AC4000BFD505B03CBC90469946A246AB46F0BD88
:10AC5000C9A8000045A9000065A9000005A90000D9
:10AC600080440041DC3A0020A1F20000BDA90000B0
:10AC7000F0B54F464646C0B491B001AC01256570B1
:10AC80000026A6702570210031202B4FB8472B4B92
:10AC9000994680234B44984680239B024246936109
:10ACA00021000820B84780235B004A4693612100B9
:10ACB0002A20B8478023DB004246936102AC25700E
:10ACC0000396049626746674A574E5742675242389
:10ACD000E6540C22002108A8194B9847194BA36190
:10ACE00080235B02E360184BA36201235B42E362B3
:10ACF000164B2363164B6363164E22001649300031
:10AD0000164B984716493000164B98473468200078
:10AD1000154B98471F2318408540144B1D6032681F
:10AD2000D369002BFCD1226802331343236011B096
:10AD30000CBC90469946F0BD6DEA0000004400410D
:10AD4000C1440100A086010002003000030036006B
:10AD500003003700DC3A0020001C004215F0000020
:10AD600040420F0065EF0000D9EE000000E100E076
:10AD700070B51D4C80256D00656100201B4B984708
:10AD80003222002300211A4EB0471A4A00238018AD
:10AD90005941194A0023194EB047194B9847A561EC
:10ADA00080215420174CA047A9215620A0470321F9
:10ADB0005820A047E8215A20A04740212A20A04738
:10ADC0003D212220A04770214C20A04728200E4B77
:10ADD0009847C3439B0705D003231843C1B22820DB
:10ADE000084B984770BDC0460044004105FC000078
:10ADF000C52D0100571B0000581B0000852D0100C8
:10AE000001000020C9A8000005A90000F0B55F46B8
:10AE100056464D464446F0B48DB01A2502AB9C46CA
:10AE2000654402232B7019246444262323701C20BC
:10AE3000AD4B98477F2101401C20AC4B98471B230A
:10AE400002AA9446634407221A70002204920392D5
:10AE50000293019509AB00930123220030210C20BD
:10AE6000A34CA047031E0FD11A3302AA9446634491
:10AE70001A780123022A07D11A3363441B785A1E19
:10AE80009341DBB2002B03D00020022B00D024E141
:10AE90001C20954B98477F2101401C20934B9847DD
:10AEA00001239B46914B9A46914B99465B46022B58
:10AEB0000AD0032B0ED0012B00D0E6E0932209AB81
:10AEC0001A7000230793F0E0952209AB1A70032350
:10AED0000793EAE0972209AB1A7006230793E4E090
:10AEE0001F2D23DD09A8702343708278C378534057
:10AEF00002795340427953408371232202AB9C462E
:10AF0000624407217B4B9847002800D0D7E00022FD
:10AF10001A2302A98C4663441A7003321B2363442C
:10AF20001A7022266644092398461FE0EB17590F32
:10AF30006C1807221440641AE4B21A2102A884464D
:10AF400061440C7013405B19DB100233DBB209AEB5
:10AF50001A01A2187270621E94411C19E2B2904646
:10AF6000F6180922D31A1B22624413701A2702AB67
:10AF70009C4667443C7821016118C9B21A20D04729
:10AF800000230493039402971B3302AA944663445C
:10AF900001930096434609AA30210C20C847022895
:10AFA00024D11A30504B9847830600D587E01F23E1
:10AFB000184000D12030A84200DC80E045B26A1E73
:10AFC000D317590F521807231A40531AEA08D9B257
:10AFD000481E81415218013209A9FF200340FE3862
:10AFE00098400300885C03438B5479E7002866D1BE
:10AFF0001F2D01DC202573E709AB9B78882B60D1DE
:10B0000062E0511C09A8825C1A700133CAB29442F2
:10B01000F7D11B2302AA944663441B78032B4ED11D
:10B02000173363441B78002B49D11E22624401214F
:10B030003000304B9847002841D109AB9A7873789B
:10B040009A423CD109ABDA78B3789A4237D1337857
:10B050005A0704D55B460133DBB29B4626E7264AF6
:10B06000D3725B465B005B440133137009A8502325
:10B070000370002343701E2202AB9C4662440221EF
:10B080001C4B984700280ED101E0002025E000234A
:10B0900004930393029301930093043309AA30218C
:10B0A0000C20134CA047012017E0079BDB005B42FC
:10B0B0005BB21D1C002B00DA00256DB210E70020EA
:10B0C0000BE00222042401E003220324079901314A
:10B0D000094BCB18A418E4B293E70DB03CBC9046E2
:10B0E0009946A246AB46F0BD05A90000C9A80000DC
:10B0F00035AA0000BDA90000183B0020F0B5574656
:10B100004E464546E0B4C30704D580225201294B80
:10B110009A6103E080225201264B5A61830704D5CD
:10B1200080229201234B9A6103E080229201214BFD
:10B130005A61430704D5802212021E4B9A6103E034
:10B14000802212021B4B5A61030704D58022920011
:10B15000184B9A6103E080229200164B5A6100203E
:10B16000154B9946984702000023144C00251219EC
:10B170006B4110001900124B9846124A0023C04739
:10B18000114FB8470B4E04239A46B3610020C847BD
:10B190000300180000210018494100196941094ABB
:10B1A0000023C047B847534673611CBC904699467C
:10B1B000A246F0BD0044004105FC0000BFCF6A007C
:10B1C000852D0100C0CF6A000100002010B50B4B97
:10B1D000186A1A6A196A1B6A520B0124224052002B
:10B1E000C90B214089000A43C004C00F02435B0A17
:10B1F0002340DB001A43100010BDC046004400414C
:10B20000F0B55F4656464D464446F0B485B003ACB3
:10B210000023237001226270A37021000C20354DA1
:10B22000A84721000D20A84721000F20A847210092
:10B230000920A847304E80231B05B36100202F4B07
:10B240009A469847020000232D4800218018594152
:10B250002C4B99462C4A0023C8472C4B98469847BC
:10B260000427B7610020D0470200002324480021B2
:10B2700080185941244A0023C847C047244B9B46A5
:10B280009847019077610020D047020000231C48B6
:10B290000021801859411C4A0023C847C047B761A4
:10B2A0000020D04702000023154800218018594192
:10B2B000154A0023C847C047D84780467761012315
:10B2C000237021000C20A84721000D20A847210051
:10B2D0000F20A84721000920A847019B18014346D9
:10B2E0001843C0B205B03CBC90469946A246AB4656
:10B2F000F0BDC0466DEA00000044004105FC0000BE
:10B30000BFCF6A00852D0100C0CF6A000100002078
:10B31000CDB10000F0B557464E464546E0B40500B5
:10B320000E000822204B5A61204CA0470306FCD493
:10B33000002D03D008221C4B9A6102E008221A4B10
:10B340005A6100201A4FB84702000023194C00250B
:10B3500012196B4110001900174B9946174A002328
:10B36000C847174B9A4698470F4B984680231B05B2
:10B37000424653610020B8470200002312196B4176
:10B38000100019000D4A0023C847D0470423424645
:10B39000536130090B4CA0470F203040A0471CBC24
:10B3A00090469946A246F0BD0044004101B200001B
:10B3B00005FC0000BFCF6A00852D0100C0CF6A00E8
:10B3C00001000020FDB0000010B5012908D00029BF
:10B3D00004D0022906D0032906D006E0002304E0A9
:10B3E000402302E0102300E0502301381818802188
:10B3F00049420143C9B20020014B984710BDC046E5
:10B4000015B3000070B50D00C10038231940083392
:10B4100019430020054B98472C000835034E21782E
:10B420000120B0470134AC42F9D170BD15B3000022
:10B43000F0B557464E464546E0B484B003AE01230E
:10B4400073700022B2703370310003204B4FB84745
:10B4500031001B20B84731000220B84731000C20D2
:10B46000B84731000D20B84731000F20B8473100F0
:10B470000920B847424B08225A61802212055A61BE
:10B4800004225A6100203F4B984702000023010F1D
:10B490000001801A99413C4A0023801859413B4AD7
:10B4A00000233B4EB0473B4B984703263A4B9A4606
:10B4B000344B98460320D0470020C04704000025A5
:10B4C000830F01938300009300980199001969414B
:10B4D0002D4A0023801859412C4A00232C4FB8478D
:10B4E0002C4B9847013EF6B2002EE3D102202A4BA6
:10B4F00098470020234B984702000023810F8000CB
:10B5000012184B4120480021801859411F4A00233E
:10B510001F4CA0471F4B9847282100201F4CA047D5
:10B520000C210020A04701210020A0470621002077
:10B53000A0471B4C210000201A4DA84721000831CC
:10B540000120A847210010310220A847210018310E
:10B550000320A847210020310420A84721002831DA
:10B560000520A847222200210F48104B984704B01D
:10B570001CBC90469946A246F0BDC0466DEA00004C
:10B580000044004105FC0000571B0000581B000050
:10B59000852D010001000020FDB0000015B3000062
:10B5A000DC63010005B40000243B0020C14401001D
:10B5B000F0B5474680B400210120144B9847144C45
:10B5C00026001036250020239846124F2B002A789B
:10B5D000002A01D142462A7019780120B847013566
:10B5E000B542F3D101210120084B98472027094D8E
:10B5F0002300627C002A00D16774597C0120A8478F
:10B600000134B442F4D104BC9046F0BDC9B300008B
:10B61000243B002015B30000F0B585B000900191E7
:10B620000C4E8027FF0077610B4D02AB9A1D122153
:10B6300028000A4CA0476B46198802AB9A1D2800C7
:10B64000A0476B46998802AB9A1D2800A047B761B6
:10B6500005B0F0BD80440041DC3A0020A1F20000BA
:10B66000F0B585B001900C4D8026F6006E610B4C54
:10B6700002AB9A1D12212000094FB84702AB9A1D58
:10B6800001212000B847072201992000054B984767
:10B69000AE6105B0F0BDC04680440041DC3A0020F8
:10B6A000A1F2000001F40000F0B585B0614E8027E2
:10B6B000FF007761604C6B469A1D132120005F4D9F
:10B6C000A8476B469A1D01212000A84702AD002320
:10B6D0000722290020005A4CA047B7612B78DB09CC
:10B6E00046D102AC22780F218A4370339A437F20DF
:10B6F0000240227062788A439A436270A3788B4337
:10B700003026B343402293430340A370E2780723DB
:10B710009A4301231A43D2B208200243D2B2102521
:10B72000AA4320208243E27022798A431A43D2B28C
:10B73000B243227162798A431343DBB2AB43834342
:10B740006371A3798B430F221340A37120003D4BFB
:10B750009847002100203C4DA84723781907090F7E
:10B7600080395B065B0F1B01C918C9B20120A847CD
:10B7700042210820344B9847344C0023E37002A93F
:10B780008B791807000FFA22D200944660441B09F7
:10B790009A009B185B00C318E3808B789A06920F7F
:10B7A0009000821852001B071B0FD318A3704B7810
:10B7B0005A06520F9000821852001B071B0FD31815
:10B7C00063700B785A06520F9000821852001B07C4
:10B7D0001B0FD31823704B79DA06D20F9000821812
:10B7E00052001B071B0FD31863710B799A06920F37
:10B7F00091008A1852001B071B0FD31823712100D8
:10B800001348144B98471448E388144A94466344F9
:10B8100043616379013B03612379C360A37883604B
:10B8200063784360237803600D4B98470D4B186095
:10B8300005B0F0BD80440041DC3A0020A1F20000D8
:10B84000E1F1000061B6000019B60000404600209A
:10B850007847002059EB0000A843002094F8FFFF30
:10B86000694601001046002010B584B01400072975
:10B8700000D989E08900454B5B589F46444B1B78B3
:10B880005BB2834200D07FE0002A08D00022A2569B
:10B89000002A04D1002118003E4B984774E018009C
:10B8A0003D4B9847FF223A4B1A706DE0384B1B789E
:10B8B0005BB2834268D1002A03D00023D356002B09
:10B8C00062D0354B9847FF22314B1A705CE0304B09
:10B8D0001B785BB2834257D1002A17D02F4B002030
:10B8E0001856431C01D02C4B9847294B0020185662
:10B8F000002200212A4B984700202056274B187021
:10B900000023284A2849294CA0473DE00023002075
:10B910001856214B984737E0204B1B785BB2834287
:10B9200032D10022A35E002B04DD214B1868214B8D
:10B93000984729E01E4B18681E4B984724E0174B88
:10B940001B785BB283421FD1002A0ED00423D15E44
:10B9500000290ADD00230393154B186803AB0093FD
:10B9600000230322144CA0470EE00422A35E0C33F4
:10B9700005D1094B9847FF22084B1A7004E00023B9
:10B98000084A0949094CA04704B010BD0C640100E5
:10B9900016000020E9A2000091A40000140000207D
:10B9A00041A30000B405000060340020FDA30000A6
:10B9B000A02E002099D30000C9D5000030B587B073
:10B9C0002C2802D0322856D058E00B78012B03D116
:10B9D00001222B4B1A7051E0002B4FD10022284B33
:10B9E0001A70284B1B78022B11D1274B9847FF2345
:10B9F000264A1370264A1370264A1370264A13707B
:10BA0000264B984700212648264B984736E0264C7F
:10BA1000E36D18061A0E10431A02FF2109040A40AA
:10BA200010431B0AFF221202134003430293236EAA
:10BA30001D06180E28431D020D4028431B0A134003
:10BA400003430593636E1D06180E28431D0229400B
:10BA500001431B0A1A400A43039202A8134B98475A
:10BA600023001E336822A25CFF210091E1392000EF
:10BA70000F4CA04702E00122014B1A7007B030BD05
:10BA80005C0100208046002051A10000160000202B
:10BA90001400002015000020170000200DA1000058
:10BAA00069B800008DA10000002E0020B5900000B4
:10BAB0009990000010B504000A0072B6084B0020EF
:10BAC000185600232100074CA047002803D1064840
:10BAD000064B984703E062B60A20044B984710BD16
:10BAE0001400002065A3000010270000D9D2000038
:10BAF000F0B55F4656464D464446F0B499B0BD4B4E
:10BB000001330493BB4B9B46033305930121494208
:10BB10000120B94B9847B74B1B78022B2BD0032B36
:10BB200000D131E1012B00D05AE1B24C6378013BE6
:10BB3000D800C01AC000C018B04E8019A11C39220C
:10BB4000AF4B9847AF4D0222AF492800AF4B984703
:10BB50000DABAF4A31002800AE4EB0472800AE4BC7
:10BB600098470123237000236370A37003212000F2
:10BB7000AA4B984734E10DAC2C2204992000A04B2D
:10BB80009847E37AE268120213430793272306AA31
:10BB90009446634400221A705A709A70DA702C32FC
:10BBA00021009F489F4B9847002814D09C4D2C2281
:10BBB0000DA92800924B9847924C02229A492000E6
:10BBC000924B984706AB2C2229002000914DA847A4
:10BBD0002000914B984707A8944B98470BAD4369B9
:10BBE000934A94466344EB80036901336B71037B92
:10BBF0002B71037AAB7003796B7003682B7029008B
:10BC00008C488D4B98472F7808AC8C4B99460A216D
:10BC1000380098470F239A460F2631402378524622
:10BC200093430B430193864B98460A21380098476B
:10BC30000723184003016A4610797027B843184358
:10BC40007F23184020706B780A2101931800C847A1
:10BC500031406378524693431A000A4302920A2104
:10BC60000198C0470723184003016A46107AB84379
:10BC700018436070AF780A213800C8473140A37874
:10BC8000524693430B4301930A213800C0470323D4
:10BC9000034018016B461B793027BB430343402206
:10BCA00093433F321340A370E378783A93430122E1
:10BCB0001343DBB208221343DBB21022934310324A
:10BCC0009343E3702B790A2101931800C847314050
:10BCD0002379524693431A000A4302920A2101989B
:10BCE000C0470323184003016A46107AB84318433B
:10BCF00020716F790A213800C84731406379524674
:10BD000093430B4399460A213800C047012318404A
:10BD100003014A4669460A71087910229043184384
:10BD2000202398436071ED88464B9C4665440A2168
:10BD30002800454B98473140A77953469F430F430E
:10BD40000A212800414B984700013E400643A67156
:10BD500020003F4B9847002100203E4DA847237804
:10BD60005906490F09011B071B0F803BC918C9B2AF
:10BD70000120A8471F4802230370002343708370EB
:10BD80000321264B98472BE0334B1B785A465370C0
:10BD9000324B1B789370042231490598184CA04708
:10BDA0005B46D81D04222F49A04758460B30042279
:10BDB0002D49A04701235A46D373002313745374AB
:10BDC00093745846133004220DA9A04758461730E3
:10BDD00014220021254B9847032158460F4B9847C2
:10BDE000234B002018560023224A0249224CA04728
:10BDF0008CE6C046603400204DD50000D0430020C2
:10BE0000AF440100844100202C6401002917010087
:10BE10003A020000511A0100D91C0100B5BA000015
:10BE20004C460020914401003C6401006542010041
:10BE30006C0700007847002059EB0000A52B01009B
:10BE4000992A010030F8FFFF792D0100AD2B010088
:10BE500061B6000019B6000078460020494600206F
:10BE6000CC4300200C4600207C460020C144010049
:10BE700014000020B4050000FDA3000030B599B007
:10BE8000264B98470020264B9847264B129312A822
:10BE9000254B9847002805D0FA25AD00234C2800F3
:10BEA000A047FCE76C46482200216846204B984793
:10BEB000204B6A4603CB03C2198811809B7893708C
:10BEC00001232122A3541E32A354C0210232A154C3
:10BED00018390132A1540132A3540132A354FE3364
:10BEE000154A1370154A1370154A1370154A1370CA
:10BEF0000022154B1A706846144B9847002805D04D
:10BF0000FA25AD00094C2800A047FCE7104B9847E4
:10BF100000211048104B984719B030BD51A10000C6
:10BF2000D98E0000BDB90000658E0000D9D2000096
:10BF3000C14401004C6401001600002014000020E0
:10BF400015000020170000205C010020D5900000A3
:10BF50000DA1000069B800008DA10000F0B587B008
:10BF6000002201210720374B9847374B18601822D1
:10BF700000216846354B9847354B00936846354B52
:10BF80009847002805D0FA25AD00334C2800A0477B
:10BF9000FCE7324CA022002120002C4B9847304B6C
:10BFA000220003CB03C21B88138020001E30102206
:10BFB0002C492D4B984722003C322C4B03CB03C21B
:10BFC0001B7813702A4BE3652A4B23662A4B636662
:10BFD00002256823E554673B6922A3540132A35428
:10BFE000FA2000011C4B9847244B9847244B1D70A6
:10BFF000244F254D254E012149420120B847041EFA
:10C0000004D0013C0020A847002CFAD13378012B42
:10C01000F1D11F4B1B787F2BEDD90022012102208B
:10C020001C4B98471A4B18700028E4DB1A4902236E
:10C030000B801A4B4B8000234B601022184B984703
:10C04000D9E7C04625CD0000A42E0020C144010040
:10C05000BDB90000658E0000D9D20000002E00207E
:10C060005864010064640100AF440100746401007D
:10C07000C001A8C000FEFFFFFE01A8C07DBE0000F9
:10C08000804600204DD50000F58E00005C010020A8
:10C0900016000020A1A1000094460020045A0000D0
:10C0A00071A2000070B582B0C8256D00094B0193E4
:10C0B0000126009600232A0007490848084CA0479B
:10C0C000084B0193009600232A0007490748A04720
:10C0D00002B070BD5C340020806401005DBF0000D0
:10C0E00029CE0000A02E002088640100F1BA0000D3
:10C0F00010B5264B9847264A138C0F210B409B0006
:10C100002448185803780B40303153544E23D25CE6
:10C11000D2B203781B012049C91849881F4CE31883
:10C120005B88CB1A4361D3070DD501214E23184AF2
:10C13000D1543E3B4374037CDB0723D54368002B7B
:10C1400020D098471EE093070DD502214E23104AB8
:10C15000D15400234374037C9B0713D58368002BC1
:10C1600010D098470EE053070CD504214E23084AFF
:10C17000D154483B4374037C5B0703D5C368002B51
:10C1800000D09847064B984710BDC046B5E900005F
:10C1900000480041B0010020B046002060010020AE
:10C1A000F5E900001723002A0DD18B00074A9B58A0
:10C1B000002B03D189008850002304E0834201D082
:10C1C0001D2300E0002318007047C04604470020EC
:10C1D0001723002907D100221F2800D8034A012372
:10C1E0008340D360002318007047C0460018004009
:10C1F0001723002907D100221F2800D8034A012352
:10C2000083409360002318007047C0460018004028
:10C2100070B50022154B1A7000231F25144E134CC5
:10C220001F2B19D90FE0002100E012490A619B0081
:10C230009B59002B00D0984723780133DBB2237041
:10C240000F2BEDD911E02900194001228A4000216D
:10C2500009691142E7D1EFE72900194001228A401C
:10C26000044909691142E0D1E6E770BD00470020AA
:10C270000447002000180040044A117802230B43B1
:10C28000137053785BB2002BFBDB70470018004043
:10C2900000B583B0124A916940230B43936101A911
:10C2A00002230B7005200F4B984705200E4B984733
:10C2B0000E4A117801230B43137053785BB2002BA5
:10C2C000FBDB0B4B19004031002204C39942FCD127
:10C2D0001022084B1A60084B984703B000BDC046B7
:10C2E000000400401DFD000091FC0000001800400B
:10C2F0000447002000E100E079C200000023036051
:10C30000436001220272427283720233C372704729
:10C31000F0B583B005000C0001A900234B70CB7071
:10C3200023790B70237A8B702078144B9847002068
:10C330001F2D00D81248072129408900E27AA37AEC
:10C34000002B01D008231A43EB089B00C3189E69F9
:10C350000F278F40BE438A4032439A61637A002B95
:10C3600005D042690123AB401343436104E04369B4
:10C370000122AA409343436103B0F0BD45FE000093
:10C380000018004010B51F4AD16904230B43D36144
:10C390001D4B198B2022FF320A431A831A7D052375
:10C3A000D2072CD501780902C022920011404278B0
:10C3B000D201FA3313401943827852001E231A40E7
:10C3C0000B001343C27892048021C9020A40134330
:10C3D00002791204C02189020A4013430A4A5360B9
:10C3E00093685B035B0F094908249C400C809368A9
:10C3F0004B8043780B71138BDB05DB0F1B0118009F
:10C4000010BDC0460004004000400041C4010020AF
:10C4100030B50400244A1088538843438B4206D227
:10C42000182080229201214BCB1893423AD8204BFE
:10C430005D688022D2022A435A60188B2022FF3284
:10C4400002431A831B7DDB0703D4194B5D60052073
:10C4500028E0452C15D8A300164AD3589F46144B04
:10C460001B8BDB0503D5124B5D6010201AE0890899
:10C4700049000F4BD96108E0890849000C4BD9618C
:10C4800003E00B4B5D6017200CE0A5200002044385
:10C49000074B1C80190001220B7D1342FCD0044B7A
:10C4A0005D60002030BDC046C401002000C07FFF99
:10C4B0000040004190640100F8B5254B1D885B8861
:10C4C0006B431824834240D36B1E18423DD1013C7C
:10C4D00095423AD31F4B1B7D123CDB0735D51E4CD2
:10C4E0001C4B1C801D0001242B7D2342FCD0194CC9
:10C4F000258B2023FF332B4323834608002A1FD09C
:10C5000076000023571ECD5CBB4201DBACB203E0DA
:10C51000CC18647824022C43348002339BB2023658
:10C520009A42F0D80A4B1B790024002B0DD13F2AE8
:10C530000BD8002201000420084B9847040004E0B7
:10C54000034B1B790024002BF3D02000F8BDC0461C
:10C55000C40100200040004144A5FFFF11C40000B9
:10C5600070B5194B1D885B886B431824834228D310
:10C570006B1E184225D1013C954222D3134B1B7DE3
:10C58000123CDB071DD5114C258B2023FF332B4399
:10C5900023834008002A13D040000025561E2B1884
:10C5A0001C88A4B22B041B0CCC54B34202DACB1867
:10C5B000240A5C700235ABB29A42F0D8002400E045
:10C5C0000024200070BDC046C4010020004000418E
:10C5D000114B1A885B8853431821834219D3920068
:10C5E000013A104215D10D4B1B7D1339DB0710D5D5
:10C5F0000A4B198B2022FF320A431A83800840001D
:10C60000D861074A1A80190001220B7D1342FCD021
:10C61000002108007047C046C401002000400041CE
:10C6200002A5FFFF30B583B0204901220B7D1342E4
:10C63000FCD01F4B1B886A4613801E4B1B885380FF
:10C640001D4B1B8893801D4B1B88D380009B0722AA
:10C650001A4002705A06520F42709A04920E82706B
:10C660009A0B01210A40C270DA03920F0271019AFB
:10C67000140A0C4044715C0E0C4084719C0E0C40FA
:10C68000C4715C00240F047254000E252C40DB0F93
:10C690002343437253061B0F8372D3091940C1729F
:10C6A000120C8281002003B030BDC0460040004122
:10C6B000004080000240800004408000064080006E
:10C6C000F0B55F4656464D464446F0B489B0172350
:10C6D00000287AD041490B689B46414B1B68019367
:10C6E0000778467883789A46C37899460379029307
:10C6F0004379039383790493C3790593037A06936B
:10C70000457A837A0793C47A838998460022052064
:10C71000344B9847031E58D1002230494430314BE6
:10C720009847031E51D12D4907225B46934307309A
:10C7300007401F43693087433301184006003E43DA
:10C740002948064053461802FC239B011840064323
:10C75000264B1E404B4698030643254B3340029818
:10C76000C003034323480340049840060343224880
:10C770000340059880060343204803400698C006FE
:10C7800003435B005B08E80703430B601C4B019805
:10C790001840030003980002034393436D081D43B0
:10C7A00078239D43079BDB001D4380239D43E401C9
:10C7B0002C432404240C43461B041C43084B1C60DC
:10C7C00000220620074B98470300180009B03CBC24
:10C7D00090469946A246AB46F0BDC0460040800058
:10C7E0000440800011C40000FFC0FFFFFFBFFFFF37
:10C7F000FF7FFEFFFFFFFFFDFFFFFFFBFFFFFF8748
:10C80000FFFEFFFF70B58000144BC5582B689C7B62
:10C810002B7E1C406B7E1C40E30705D52800AB68CF
:10C82000984701232A689373A30705D52800EB686E
:10C83000984702232A689373E30605D528002B69DD
:10C84000984710232A689373A30605D528006B69BF
:10C8500098472B6820229A7370BDC0464447002039
:10C8600010B50020014B984710BDC04605C8000018
:10C8700010B50120014B984710BDC04605C8000007
:10C8800010B50220014B984710BDC04605C80000F6
:10C8900010B50320014B984710BDC04605C80000E5
:10C8A00010B50420014B984710BDC04605C80000D4
:10C8B00010B582B00400374A916910230B4393618D
:10C8C000354B1B78DB091020002B61D1E378073052
:10C8D000002B5DD022799A425AD862799A4257D871
:10C8E0002D4A137802218B431370D3795BB2002B4E
:10C8F000FBDB63780020002B4AD001A9A3780B70E2
:10C900000330264B98470320254B98472378002B6C
:10C9100002D00320234B9847E378013B2279002A79
:10C9200009D01D490878042202430A702279013A8D
:10C930001201134304E018490A78042082430A7064
:10C940001549CA7952B2002AFBDBDBB2124A537096
:10C950006379002B08D01100CA7952B2002AFBDBA0
:10C96000013BDBB20C4A93702378002B05D00A4AB6
:10C97000117880230B43137004E0074A11780223D7
:10C980000B431370044AD3795BB2002BFBDB00200E
:10C9900002B010BD00040040001000401DFD00006A
:10C9A00091FC000039FD0000A522044B1A721A0008
:10C9B000D3795BB2002BFBDB7047C0460010004010
:10C9C00070B58401044E054D7368191900220420C6
:10C9D000A8470528F8D070BDCC01002011C4000084
:10C9E00010B5C823074AD35C002B09D01400882354
:10C9F000D35CD318D87A044B98470022C823E2545A
:10CA0000002010BDCC010020C1C90000034B1B68F1
:10CA1000013301D072B6FEE772B6FEE718000020BF
:10CA20000B4A13681868203080F30988022080F3CD
:10CA30001488BFF36F8F3FBCAE4608BC04BC62B61F
:10CA40001847C046C046C046C046C046C046C0465D
:10CA5000582A002010B5031F802464041C60043B86
:10CA60001960043B02491960143B1A60403810BD3C
:10CA70000DCA00007047C04610B50F4B1A68FF2161
:10CA800009040A431A601A68FF2109060A431A605A
:10CA900000200A4B9847FA218900094B9847013832
:10CAA000084B18600722084B1A600022074B1A60D7
:10CAB000074B9847074B984720ED00E005FC000026
:10CAC000992A010014E000E010E000E018000020C6
:10CAD00021CA00000DCA000080225205034B1A60D3
:10CAE000BFF34F8FBFF36F8F7047C04604ED00E078
:10CAF00072B6044A136801331360BFF34F8FBFF35C
:10CB00006F8F704718000020064B1B68002B01D167
:10CB100072B6FEE7013B034A1360002B00D162B6F8
:10CB20007047C04618000020EFF3108072B67047BF
:10CB30000020C04680F310887047C0460000000007
:10CB4000EFF309800E4B1A6820381060F0C044469D
:10CB50004D4656465F46F0C008B572B600F060FC20
:10CB600062B60CBC116808681030F0C8A046A9462F
:10CB7000B246BB4680F309882038F0C81847C04643
:10CB8000582A002010B5074B98470400064B9847D9
:10CB9000002803D080225205044B1A602000044B69
:10CBA000984710BD29CB0000D9D0000004ED00E06B
:10CBB00035CB000070B50400430702D007239C4327
:10CBC0000834104B9847104B1B68002B05D10722E7
:10CBD0000E4B083393430C4A13600D4B1B68E4184B
:10CBE0000C4A944207D8A34207D2074A1568ED18A9
:10CBF000074B1C6002E0002500E00025064B98472B
:10CC0000280070BDC9D000009C020020A0020020B6
:10CC10009802002007270000EDD10000002801D075
:10CC200072B6FEE77047C046030008334360012236
:10CC300052428260C3600361002303607047C046B4
:10CC4000002303617047C04643684B609A688A605E
:10CC50009A68516099600861036801330360704706
:10CC600030B50C6802000832631C02D1026904E08E
:10CC70001A0053681D68AC42FAD253684B60996041
:10CC80008A605160086103680133036030BDC046AB
:10CC900003694268816891608268416851605A689E
:10CCA000904201D182685A60002202611A68501EC7
:10CCB0001860704770B504000D00002801D172B6ED
:10CCC000FEE7144B98472268216CE36B4B43D01866
:10CCD00060600020A063A2605B1AD318E360FF23AA
:10CCE0004422A3540132A354002D07D12369002B01
:10CCF0000BD020001030084B984706E02000103081
:10CD0000064DA84720002430A847054B984701202E
:10CD100070BDC046F1CA0000C5D4000029CC000097
:10CD200009CB000070B506000D00002801D172B6D5
:10CD3000FEE7080070434C300A4B9847041E0ED0A3
:10CD4000002D01D1206002E003004C330360E66354
:10CD5000256401212000044B98470023A364200090
:10CD600070BDC046B5CB0000B5CC0000084B1B68B9
:10CD70001B68002B04D101225242064B1A6006E0C8
:10CD8000034B1B68DB68DB685A68024B1A6070470C
:10CD9000B4290020782A002070B504000D00194B3A
:10CDA0001E68194B196800204922885418680430FD
:10CDB000164B9847631C08D1002D06D0124B1968FA
:10CDC00004311348134B98471AE034190E4B1B6873
:10CDD0005C60A64207D9104B18680B4B19680431E8
:10CDE0000E4B98470CE00E4B1868074B196804313E
:10CDF0000A4B98470B4B1B689C4201D2094B1C60A5
:10CE000070BDC046742A0020582A002091CC000032
:10CE1000982A002049CC0000D429002061CC0000D1
:10CE2000B4290020782A0020F0B5474680B484B0A9
:10CE300001900D00029397003800564B9847061E4C
:10CE400000D1A0E04C20534B9847041E0CD0066341
:10CE5000381F30180723984380462A782D33E25430
:10CE60002B78002B04D111E030004B4B98478AE01F
:10CE7000691C2300353320003C300A781A700A7888
:10CE8000002A03D0013101338342F6D100223B2333
:10CE9000E2540A9F042F00D90427E762E7630026C3
:10CEA0002664231D039318003C4DA847200018302A
:10CEB000A84724610523DB1BA361646266644823E1
:10CEC000E6540133E654029A01994046344B9847A0
:10CED00020600B9B002B00D01C60324B9847324ADD
:10CEE000136801331360314B1B68002B22D12F4B89
:10CEF0001C601368012B29D12D4E63339846B04432
:10CF00002C4F3000B8471436B045FAD12A4B98461A
:10CF10001800284EB047294F3800B0472848B0477E
:10CF20002848B0472848B047284B42461A60284B4B
:10CF30001F600BE0274B1B68002B07D11B4B1B68A6
:10CF4000DB6AE26A934201D8184B1C60224A1368DC
:10CF500001331360E36A214A1268934201D91F4AE0
:10CF600013609800C3189B001148C01803991C4B0C
:10CF700098471C4B9847174B1B680120002B04D087
:10CF80000A4B1B6801E00120404204B004BC9046FB
:10CF9000F0BDC046B5CB00001DCC000041CC000068
:10CFA00055CA0000F1CA0000802A0020582A00203B
:10CFB000DC29002029CC0000C0290020842A002080
:10CFC0005C2A0020402A0020982A0020B429002052
:10CFD000D4290020B82900207C2A0020AC2A002077
:10CFE00049CC000009CB000070B5051E01D172B616
:10CFF000FEE7154B1B6898421BD0144B98476C6991
:10D00000134B9847134B1B689C4214D0124B1B6860
:10D010009C4212D0114B9C4204D1A86A4342584111
:10D0200002300FE00E4B9C4209D0002C09D00120A9
:10D0300008E0002006E0022004E0022002E00420D4
:10D0400000E0042070BDC046582A0020F1CA00004C
:10D0500009CB0000B4290020D4290020982A002000
:10D06000402A002010B582B00F4B0193002300939B
:10D07000C8220E490E480F4CA04701280DD172B6A8
:10D08000012252420C4B1A6002320C4B1A600022F1
:10D090000B4B1A600B4B984703E0431C01D172B64F
:10D0A000FEE702B010BDC046702A0020A86501004E
:10D0B00019D3000029CE0000782A0020B8290020CA
:10D0C000742A002079CA0000024A136801331360F1
:10D0D0007047C046BC290020F0B583B0364B1B68B2
:10D0E000002B60D1354B1D6801351D60002D12D11C
:10D0F000334B1B681B68002B01D072B6FEE7304A29
:10D100001168304B1868106019602F4A136801339A
:10D1100013602E4B98472E4B1B689D423CD3284BE7
:10D120001B681B68002B09D0254B1B68DB68DC687B
:10D1300063689D420ED3274F274E0EE001225242D4
:10D14000234B1A6028E01E4B1B68DB68DC686368B1
:10D150009D4202D21E4A13601EE0231D0193180057
:10D16000B847A36A002B03D020001830194B98470A
:10D17000E36A3268934201D9174A13609800C318D2
:10D180009B001648C0180199154B98470C4B1B681B
:10D190001B68002BD7D1D1E7124B1B68002B08D19D
:10D1A000114B984705E00F4A1368013313600E4B8B
:10D1B0009847002003B0F0BDBC290020742A00204D
:10D1C000B4290020D4290020B02900206DCD000012
:10D1D000782A002091CC0000AC2A0020DC29002015
:10D1E00049CC0000D82900208D1F0100F8B52C4B38
:10D1F0001B68002B01D172B6FEE72A4B9847284BDB
:10D200001A68013A1A601B68002B44D1264B1B6830
:10D210000026002B23D13EE0FB68DE68300018308A
:10D22000224B9847351D2800204B9847F36A204A27
:10D230001268934201D91E4A13609800C3189B00DC
:10D240001C48C01829001C4B98471C4B1B68DB6A04
:10D25000F26A9A4205D30122194B1A6001E0194C77
:10D2600027002368002BD7D1002E01D0164B9847FA
:10D27000164B1C68002C0CD0154F114E0125B847D9
:10D28000002800D03560013C002CF8D100220F4B63
:10D290001A600B4B1B680F4B98470020F8BDC04627
:10D2A000BC290020F1CA0000802A002091CC000097
:10D2B000AC2A0020DC29002049CC0000582A00209C
:10D2C000B02A00205C2A00206DCD0000D829002063
:10D2D000D9D0000009CB000010B5041E0FD0094BB7
:10D2E0001B68002B01D072B6FEE7074B9847002160
:10D2F0002000064B9847064B9847002801D1054B64
:10D30000984710BDBC290020C9D0000099CD00006D
:10D31000EDD10000D9CA0000F0B5474680B4144DE5
:10D32000144F154E1DE0B8473468144B9847002C35
:10D3300017D0134B9847104BDB68DC68201D114B4E
:10D340009847114A1368013B1360094A1368013B6F
:10D3500013600E4B9847206B0D4B98469847200062
:10D36000C0472B68002BDED10A4B9847F9E7C0462F
:10D37000542A0020C9D00000402A0020EDD100002E
:10D38000F1CA000091CC0000802A002009CB0000E7
:10D390001DCC0000D9CA000070B5051E01D172B6BF
:10D3A000FEE7164B98472800154B9847022820D1D6
:10D3B0002C1D2000134B9847134B9847AB6A002B4A
:10D3C00006D0280018300F4B984701224923EA5411
:10D3D0000E4B9847EB6A0E4A1268934201D90C4AE9
:10D3E00013609800C3189B000A48C01821000A4B1C
:10D3F00098470A4B9847002070BDC046C9D000002E
:10D40000E9CF000091CC0000F1CA000009CB000078
:10D41000AC2A0020DC29002049CC0000EDD100001E
:10D4200010B5234B1B68002B03D00122214B1A603F
:10D430003CE000221F4B1A601F4B1B689A00D21859
:10D4400092001E495258002A11D1002B05D102E04A
:10D45000143A002B07D172B6FEE79A00D218920058
:10D46000143A16498A18013B11680029F0D0134C70
:10D470009A00D11889006118486840684860D2183D
:10D4800092000832A218904205D141689A00D21841
:10D490009200A21851609A00D218920007498A1887
:10D4A0005268D168064A1160034A136010BDC04635
:10D4B000BC290020B02A0020AC2A0020DC29002052
:10D4C000582A002070B5C368DD68002D01D172B6FE
:10D4D000FEE72C0018342000144B9847144B1B68AF
:10D4E000002B13D12C1D2000104B9847EB6A114ADA
:10D4F0001268934201D90F4A13609800C3189B0029
:10D500000D48C01821000D4B984703E021000C483E
:10D510000A4B98470B4B1B68EA6ADB6A00209A4269
:10D5200003D90122084B1A60013070BD91CC000074
:10D53000BC290020AC2A0020DC29002049CC0000B6
:10D540005C2A0020582A0020B02A002070B505006F
:10D550000C00184B9847184B1B685B6C002B0BD1C9
:10D56000154B1A6801214823D154002C04D0200007
:10D57000124B9847124B9847124B98470D4B9847C0
:10D580000D4B1B685C6C002C0AD0002D04D00A4B9C
:10D590001B6800225A6403E0074B1B68621E5A6432
:10D5A000054B1A6800214823D154064B98472000A8
:10D5B00070BDC046F1CA0000582A002099CD000075
:10D5C000D9CA000009CB0000F0B583B004000F00F9
:10D5D00016001D00002801D172B6FEE7314B9847B6
:10D5E0000190002D01D0636C2B604822A35CDBB25C
:10D5F0000221A154022E0CD002D8012E05D011E038
:10D60000032E0AD0042E0AD00CE0626C3A43626406
:10D6100008E0626C0132626404E0676402E0022B9D
:10D6200037D06764012B36D1A36A002B01D072B6C4
:10D63000FEE71D4B1B68002B13D1261D30001B4B32
:10D640009847E36A1A4A1268934201D9184A13604C
:10D650009800C3189B001748C0183100164B984714
:10D6600004E0210018311548134B9847144B1B68F0
:10D67000E26ADB6A01249A420ED9089B002B03D090
:10D680000123089A136007E001220E4B1A6001245F
:10D6900002E0002400E0012401980B4B9847200091
:10D6A00003B0F0BD29CB0000BC29002091CC0000C4
:10D6B000AC2A0020DC29002049CC00005C2A002094
:10D6C000582A0020B02A002035CB0000F8B504000D
:10D6D0000F00002801D172B6FEE7204B98470600E4
:10D6E0004823E25C0221E154636C01336364012A44
:10D6F0002FD1A36A002B01D072B6FEE7184B1B682E
:10D70000002B13D1251D2800164B9847E36A164AB3
:10D710001268934201D9144A13609800C3189B0001
:10D720001248C0182900124B984704E02100183114
:10D7300010480F4B9847104B1B68E26ADB6A9A420D
:10D7400007D9002F02D001233B6002E001220B4BDE
:10D750001A6030000A4B9847F8BDC04629CB00003C
:10D76000BC29002091CC0000AC2A0020DC2900203C
:10D7700049CC00005C2A0020582A0020B02A002052
:10D7800035CB000010B5074B19682223CB5C5A1E1D
:10D790009341DBB24A7C096803480078034CA047F8
:10D7A00010BDC046B82A0020BE2A002025E5000092
:10D7B00010B50423002871D1394B1B7AD9090022F6
:10D7C000002904D15A09D20136498C466244116AB3
:10D7D0001F2213401E3A9A4011420FD0304B9B7BC0
:10D7E000012B06D1304B1B78002B02D000222F4B8F
:10D7F0001A6004222A4B9A7302234FE0284B9A7B2B
:10D80000042A20D1033A9A73284B1B68002B11D1AC
:10D810000124254B1C700020254B9847FA21490113
:10D82000244B9847FA239B005843204B58601C60B8
:10D83000022333E000221C4B1A70FA2080001E4B9A
:10D84000984702232AE0012A0CD1174B1B78002BA2
:10D8500019D0164B1A680223D2031FD50022134B8E
:10D860001A6010E00323032A18D00022134B1A7009
:10D870000B4C134B1C60134B9847A37B023B5A4243
:10D880005341DBB20AE0064B02229A730E4A1A6039
:10D8900001225A74002121329954E6E7180010BD84
:10D8A0001C00002000440041B62A002010E000E0E7
:10D8B00005FC0000992A0100D9D20000BE2A0020F0
:10D8C000B82A002085D70000801A0600F8B5094D57
:10D8D000094F0A4E00210A48B847041E07D0B04736
:10D8E000FF23034203D0013D002DF3D1002420008B
:10D8F000F8BDC046410D030061E7000079E7000074
:10D900000D1B000010B582B00B4B1B6899890904F0
:10D910000123009310220948094CA047002809D090
:10D92000054B186812300121064B9847002801D09A
:10D93000054B984702B010BDB82A00200911080015
:10D94000D9E50000F9E700007DE8000010B5044BC0
:10D950001B78002B02D10020024B984710BDC04617
:10D96000BE2A002079E5000010B50422034B9A730B
:10D97000FB32034B1A70034B984710BD1C0000206C
:10D98000BE2A0020F1E30000F0B589B0CD4B9847E6
:10D99000041E012C03D0CC4B984720003CE2CB4B1B
:10D9A0001B680122DA7300221A749A81C84B9847C7
:10D9B000002188204001C74B9847002800D1DCE1B6
:10D9C000D5214900C448C34B98470025002800D101
:10D9D000DCE1C24B9847431C00D1D6E10005000DA5
:10D9E000D5235B000135984200D1CFE1C5E100218C
:10D9F000BB48B047002800D1D6E10399B948B847E1
:10DA0000002800D1D0E1A847C30703D5013C002C72
:10DA1000EDD1C9E10021B448AE4B9847002800D1B0
:10DA2000C2E1AE4B9847430000D4C9E1A74B1A6846
:10DA3000D17B08230B43D373C2E1AC4CAC4DA54E54
:10DA4000A64F00212800B047002800D195E1B84733
:10DA5000C30703D5013C002CF3D18EE10021A2487D
:10DA60009C4B9847002800D187E19C4B9847C023E6
:10DA7000DB0518408023DB05984200D0A8E1934BDA
:10DA80001A68D37B08210B43D373A1E1994B9847C4
:10DA9000002800D171E18D4B19688B7C9B061B0F10
:10DAA000022B0DD002D8012B07D003E0032B0AD0A4
:10DAB000042B0BD012230B740AE014230B7407E021
:10DAC00022230B7404E030230B7401E040230B7419
:10DAD000487D4206120F9200072303409B008648B0
